:020000040800F2
:100000000080012085530008D1340008D334000853
:10001000D5340008D7340008D934000800000000A7
:10002000000000000000000000000000DB340008B9
:10003000DD34000800000000DF340008E13400086F
:10004000D5530008D5530008D5530008D5530008F0
:10005000D5530008D5530008D5530008D5530008E0
:10006000D5530008D5530008D5530008D5530008D0
:10007000D5530008D5530008D5530008D5530008C0
:10008000D5530008D5530008D553000800000000E0
:10009000000000000000000000000000D553000830
:1000A000D5530008D5530008D5530008D553000890
:1000B000D5530008D5530008D5530008D553000880
:1000C000D5530008D5530008D5530008D553000870
:1000D000D5530008D5530008D55300080000000090
:1000E000D5530008D5530008D55300080000000080
:1000F000000000000000000000000000D5530008D0
:1001000000000000D5530008D5530008D55300085F
:1001100000000000000000000000000000000000DF
:10012000D5530008D5530008D5530008D55300080F
:10013000D55300080000000000000000000000008F
:10014000000000000000000000000000D55300087F
:10015000D5530008D5530008D5530008D5530008DF
:10016000D5530008D553000800000000000000002F
:10017000000000000000000000000000000000007F
:1001800000000000D553000800000000000000003F
:04019000D55300083B
:1001C0000348044B834202D0034B03B118477047E6
:1001D0007C0000207C00002000000000054806494B
:1001E0000B1AD90F01EBA301491002D0034B03B145
:1001F000184770477C0000207C00002000000000B1
:1002000010B5064C237843B9FFF7DAFF044B13B15E
:100210000448AFF300800123237010BD7C00002050
:1002200000000000D853000808B5044B1BB1044976
:100230000448AFF30080BDE80840CFE700000000AD
:1002400080000020D85300088B891A072DE9F0415F
:100250000C46804641D44A68002A59DDE66A002EE1
:1002600053D00022D8F80050216AC8F8002013F4B7
:10027000805251D101234046B047431C5FD0A3892F
:10028000E66A216A5F0705D56268636B801A0BB165
:10029000236CC01A024600234046B047461C45D195
:1002A000D8F80030B4F90C20002B55D01D2B01D00C
:1002B000162B5AD123690022C4E90032616BC8F8B9
:1002C000005011B304F14403994202D0404600F0BB
:1002D000F9FA00206063BDE8F0810E69AEB10D68E7
:1002E0000E6099070CBF63690023AD1BA3600AE091
:1002F0002B463246A76A216A4046B8470028A5EB3C
:10030000000506440ADD002DF2DC0020BDE8F08186
:100310000A6C002AA2DCF8E7606DB3E7A38943F01A
:100320004003A3814FF0FF30BDE8F0812269A3892B
:10033000226000226260DA04C0D56065BEE7D8F8AA
:100340000030002B9BD01D2B0CD0162B0AD0A3897C
:1003500043F04003A381D9E72169C4E90013D30422
:10036000ACD5EAE7C8F80050CFE742F04002A281DE
:10037000CCE700BF0B6923B310B5044682B008B1C7
:100380008369BBB1104B994212D0104B994216D0E1
:100390000F4B994208BFE168B1F90C302BB12046F0
:1003A00002B0BDE81040FFF74FBF002002B010BD03
:1003B0006168F1E7019100F007F90199E2E7A168AE
:1003C000EAE70020704700BF3054000810540008CE
:1003D000F053000820B1054B01461868FFF7CABF6B
:1003E000034B0449186800F035B900BF0000002035
:1003F000505400087503000800207047014900F0C0
:1004000029B900BF750300080020704770B54A1E67
:10041000682505FB02F50E4605F1740100F0A8FA07
:10042000044640B100210C30666005F1680221608D
:10043000A06000F0F7F9204670BD00BF1E4B70B5FC
:100440001D68AB69064643B34835D5E90134013B25
:1004500005D51EE0013B5A1C04F1680419D0B4F91B
:100460000C20002AF6D10025144B6566C4E900551E
:10047000A560C4E90455A5612946E360082204F19A
:100480005C0000F0CFF9C4E90D55C4E912552046CF
:1004900070BD2C682CB12546D7E7284600F010F82F
:1004A000D2E704213046FFF7B1FF04462860002858
:1004B000F1D10C233360EAE7505400080100FFFF3C
:1004C0002DE9F84F334B34491A68816290424FF05E
:1004D0000003C0E91233036504BF012383610546AD
:1004E000FFF7ACFF68602846FFF7A8FFA860284622
:1004F000FFF7A4FF6E68E86000240423F3607466CD
:10050000C6E90044B460C6E90444B461214606F17A
:100510005C00082200F086F9DFF888B0AF68DFF8E9
:1005200088A0DFF88890DFF888801C4BC6F8308000
:10053000C6E9086BC6E90AA92146FB6008227C6669
:10054000C7E90044BC60C7E90444BC6107F15C0032
:1005500000F068F9EE68124BC7F83080C7E9087BF5
:10056000C7E90AA92146F3607466C6E90044B4608D
:10057000C6E90444B46106F15C00082200F052F9B7
:100580000123C6E9086BC6E90AA9C6F83080AB6149
:10059000BDE8F88F50540008FD0300080900010071
:1005A00012000200ED0C0008150D0008550D0008A2
:1005B000750D0008024B0349186800F04BB800BFE6
:1005C0005054000875030008836903B978E7704741
:1005D000704700BF704700BF704700BF704700BF43
:1005E000024B0349186800F00FB800BF000000205C
:1005F000F9030008024B0349186800F005B800BF72
:1006000000000020090400082DE9F04110F148071E
:100610001BD088460026D7E90154013D0FD4A38999
:10062000012B05F1FF3506D9B4F90E300133204610
:1006300001D0C04706436B1C04F16804EFD13F684A
:10064000002FE8D13046BDE8F0813E463046BDE897
:10065000F08100BF2DE9F84310F148071FD088460C
:1006600006464FF00009D7E90154013D11D4A38992
:10067000012B05F1FF3508D9B4F90E3001332146BD
:10068000304602D0C04749EA00096B1C04F16804F7
:10069000EDD13F68002FE6D14846BDE8F883B94662
:1006A0004846BDE8F88300BF70B50D4E0D4D761B72
:1006B000B61006D00024013455F8043B9847A642F2
:1006C000F9D1094E094D761B04F086FEB61006D00E
:1006D0000024013455F8043B9847A642F9D170BD77
:1006E000AC5E0008AC5E0008B05E0008AC5E0008BE
:1006F000844641EA000313F003036DD1403A41D32D
:1007000051F8043B40F8043B51F8043B40F8043BEB
:1007100051F8043B40F8043B51F8043B40F8043BDB
:1007200051F8043B40F8043B51F8043B40F8043BCB
:1007300051F8043B40F8043B51F8043B40F8043BBB
:1007400051F8043B40F8043B51F8043B40F8043BAB
:1007500051F8043B40F8043B51F8043B40F8043B9B
:1007600051F8043B40F8043B51F8043B40F8043B8B
:1007700051F8043B40F8043B51F8043B40F8043B7B
:10078000403ABDD2303211D351F8043B40F8043B1B
:1007900051F8043B40F8043B51F8043B40F8043B5B
:1007A00051F8043B40F8043B103AEDD20C3205D32B
:1007B00051F8043B40F8043B043AF9D2043208D023
:1007C000D2071CBF11F8013B00F8013B01D30B8895
:1007D00003806046704700BF082A13D38B078DD073
:1007E00010F003038AD0C3F10403D21ADB071CBF45
:1007F00011F8013B00F8013B80D331F8023B20F8AF
:10080000023B7BE7043AD9D3013A11F8013B00F8E7
:10081000013BF9D20B7803704B7843708B7883706F
:1008200060467047F0B4860746D0541E002A3CD07C
:10083000CAB2034602E014F1FF3436D303F8012BA9
:100840009D07F8D1032C29D9CDB245EA05250F2CF7
:1008500045EA054533D9A4F11006360903F120070E
:1008600007EB061703F1100242E9045542E902556D
:100870001032BA42F8D1721C14F00C0F03EB0212C2
:1008800004F00F0613D0331F23F003030433134483
:1008900042F8045B9342FBD106F003042CB1C9B2C9
:1008A0001C4403F8011B9C42FBD1F0BC704734464A
:1008B0001346002CF3D1F8E714460346C2E71A4664
:1008C0002646E0E700293CD038B551F8043C0C1F1F
:1008D000002BB8BFE418054600F010FD234B1A6842
:1008E0002AB1A2420DD921686018824223D06260E9
:1008F00028461C60BDE8384000F002BDA34203D882
:100900001A465368002BF9D111685018A04219D02B
:1009100024D821686018834206D06360546028465A
:10092000BDE8384000F0ECBCD3E90003014463604B
:1009300021605460F3E7D2E9000201446260216063
:10094000D6E7704720680144501883421160E6D111
:10095000D3E90003014453601160E0E70C232B60EE
:100960002846BDE8384000F0CBBC00BF980000200E
:10097000F8B5CD1C25F0030508350C2D38BF0C2526
:10098000002D064633DBA94231D82A4F00F0B6FCD1
:100990003A6852B113685B1B04D43FE023685B1BC9
:1009A00029D522465468002CF8D1796800293BD01B
:1009B0002946304600F014F9431C28D0C41C24F00A
:1009C0000304A04205D0211A304600F009F9013095
:1009D0001DD02560304600F093FC04F10B0020F0A0
:1009E0000700231DC21A01D01B1AA350F8BD0C2208
:1009F00032600020F8BD0B2B05D8A242636811D0ED
:100A00005360E7E7144623601C442560E2E70C23AB
:100A10003046336000F074FC0020F8BD0B2BF1D899
:100A2000536814463B60D5E7304600F0D9F878604B
:100A3000BEE700BF980000200EB410B5044683B096
:100A400008B1836963B106A803460190059AA168BD
:100A5000204600F0B1FE03B0BDE8104003B070477F
:100A6000FFF7B2FDEFE700BF0FB410B50B4B1C68EA
:100A700082B00CB1A36963B105A803460190049A42
:100A8000A168204600F098FE02B0BDE8104004B016
:100A900070472046FFF798FDEEE700BF00000020FA
:100AA00010B5044682B008B1836933B1A26820460C
:100AB00002B0BDE8104001F075BD0191FFF784FD63
:100AC0000199F3E738B50B4B1C6805460CB1A369D7
:100AD00033B12946A2682046BDE8384001F062BD26
:100AE0002046FFF771FD2946A2682046BDE8384040
:100AF00001F058BD0000002083692DE9F0418046D7
:100B00000E4633B384682F4B9C4230D02E4B9C4210
:100B100039D02E4B9C4208BFD8F80C40A3891B0744
:100B20002AD5236943B3013EA36816F8015F013B50
:100B3000A3609DB3002B07DAA7699F42224629468E
:100B4000404623DC0A2D21D023685A1C22601D70E8
:100B5000EAE7FFF739FDD8F81830D8F80840002B3D
:100B6000D1D14046FFF730FD164B9C42CED1D8F88C
:100B70000440A3891B07D4D42146404600F098FACC
:100B80000028D0D006E0D8F80840C7E700F01AFAED
:100B90000130C9D14FF0FF30BDE8F081002B09DAF8
:100BA000224640460A2100F00DFA0130F2D00A2018
:100BB000BDE8F08123680A22591C21601A70104692
:100BC000BDE8F0813054000810540008F0530008CC
:100BD000024B01461868FFF78FBF00BF00000020DE
:100BE00038B5074C002305460846236002F07EFA1C
:100BF000431C00D038BD2368002BFBD02B6038BDD0
:100C0000E42000200FB410B50B4B1C6882B00CB16F
:100C1000A36963B105A803460190049A6168204660
:100C200001F01EFB02B0BDE8104004B07047204642
:100C3000FFF7CAFCEEE700BF000000200EB410B5BD
:100C4000044683B008B1836963B106A803460190E6
:100C5000059A6168204601F003FB03B0BDE810402F
:100C600003B07047FFF7B0FCEFE700BF0CB470B5FE
:100C70009CB020AC0B4E54F8042B029123460691F5
:100C80006FF0004502A901940795CDE9045600F0E4
:100C900015FC029B00221A701CB0BDE8704002B027
:100CA000704700BF0802FFFF0EB430B59CB01FAB09
:100CB0000C4C0D4D53F8042B019301460291069103
:100CC000206802A96FF000440794CDE9044500F0C4
:100CD000F5FB029B00221A701CB0BDE8304003B047
:100CE000704700BF000000200802FFFF10B50C464F
:100CF000B1F90E1001F0DCFC002803DB636D034446
:100D0000636510BDA38923F48053A38110BD00BF88
:100D1000002070472DE9F0411646B1F90C201F461E
:100D2000D3050C460546B1F90E1009D422F48052C1
:100D3000A2813B4632462846BDE8F04100F0A2B908
:100D40000022022300F04CFAB4F90C20B4F90E1082
:100D5000ECE700BF10B50C46B1F90E1000F040FAF8
:100D6000A389421C0EBF23F4805343F48053606573
:100D7000A38110BDB1F90E1000F01ABA00000000F6
:100D800090F800F06DE9024520F007016FF0000CCB
:100D900010F0070491F820F040F049804FF0000473
:100DA0006FF00700D1E9002391F840F000F108004E
:100DB00082FA4CF2A4FA8CF283FA4CF3A2FA8CF386
:100DC0004BBBD1E9022382FA4CF200F10800A4FAED
:100DD0008CF283FA4CF3A2FA8CF3E3B9D1E9042341
:100DE00082FA4CF200F10800A4FA8CF283FA4CF378
:100DF000A2FA8CF37BB9D1E9062301F1200182FA32
:100E00004CF200F10800A4FA8CF283FA4CF3A2FA37
:100E10008CF3002BC6D0002A04BF04301A4612BA45
:100E2000B2FA82F2FDE8024500EBD2007047D1E948
:100E3000002304F00305C4F100004FEAC50514F0D7
:100E4000040F91F840F00CFA05F562EA05021CBFA8
:100E500063EA050362464FF00004A9E7012B2DE980
:100E6000F84F41D0242B98463ED80F46DFF81CC1DE
:100E700000E02F463D4615F8014B1CF8046016F0C3
:100E80000806F6D12D2C6CD02B2C0ABF95F800B09B
:100E9000A346BD1C002B46D0102B57D0002E14BFEC
:100EA0004FF000496FF000490027B9FBF8FEBC463F
:100EB00008FB1E9A07E0E64513D32FD00CFB084C25
:100EC000012715F801BBABF13004092C05D9ABF1B2
:100ED0004104192C0FD8ABF13704A34213DD002FC6
:100EE000E9DA4FF0FF37ECE700F074F916230360FE
:100EF0000020BDE8F88FABF16104192C03D8ABF1E9
:100F00005704A342EBDC002F25DB0EB1CCF1000C23
:100F10000AB177BB11606046BDE8F88FA245CDDA13
:100F20004FF0FF37CDE7BBF1300F03D04FF00A0889
:100F30004346B3E72B7803F0DF03582B1BD14FF068
:100F4000100895F801B043460235A7E7BBF1300F12
:100F500015D09846A2E7222303603AB1691ECC4619
:100F6000D8E795F800B00126BD1C93E7CC46604653
:100F7000D2E7E146F2E74FF0080843468EE72C78C7
:100F800004F0DF04582CDAD0984687E7555400085F
:100F900064E700BF10B4044C13460A4601462068BB
:100FA0005DF8044B5AE700BF0000002010B4044C69
:100FB00013460A46014620685DF8044B4EE700BF21
:100FC00000000020F8B50D461446064608B18369B6
:100FD00043B3254B9C422AD0244B9C4229D0244B1E
:100FE0009C4208BFF468A389A269A2601A0722D5AF
:100FF000236903B322686169D31AEDB299422F467F
:1010000029DD0133A168501C0139A16020601570F1
:1010100062699A4216D0A389DB0701D50A2D11D047
:101020003846F8BDFFF7D0FA0F4B9C42D4D1746814
:10103000D9E7B468D7E72146304600F039F838B927
:101040002369D7E721463046FFF794F90028E7D017
:101050004FF0FF37E4E721463046FFF78BF90028D1
:10106000F6D122680123CDE730540008105400085F
:10107000F0530008024B0A4601461868FFF7A2BF6A
:101080000000002070B50D46084C114606461A4671
:1010900028460023236002F037F8431C00D070BDBF
:1010A0002368002BFBD0336070BD00BFE42000201C
:1010B0003B4B70B51D6806460C460DB1AB69DBB104
:1010C000384B9C421ED0384B9C424AD0374B9C42F6
:1010D00008BFEC68B4F90C2093B2190718D5206941
:1010E00008B313F001022CD0636900225B42A361B4
:1010F000A26060B3002070BD2846FFF765FA294B57
:101100009C42E0D16C68B4F90C2093B21907E6D484
:10111000DD063CD5580726D4206942F00803A38198
:101120009BB20028DDD103F42072B2F5007FD8D045
:101130003046214600F098F8A389206913F0010297
:10114000D2D1990758BF6269A2600028D2D1B4F900
:101150000C301A06CFD543F04003A3814FF0FF3087
:1011600070BDAC68B6E7616B51B104F144039942BC
:1011700004D03046FFF7A6FBB4F90C2000236363CC
:1011800000232069636022F024022060C5E742F05A
:101190004002092333604FF0FF30A28170BD00BFD1
:1011A000000000203054000810540008F0530008DC
:1011B00038B5074C002305460846236001F06EFF52
:1011C000431C00D038BD2368002BFBD02B6038BDFA
:1011D000E4200020014B1868704700BF0000002089
:1011E00070B50D46084C114606461A46284600239F
:1011F000236001F06BFF431C00D070BD2368002BFF
:10120000FBD0336070BD00BFE420002070B50C46F9
:10121000B1F90E10002996B016461D4613DB6A463A
:1012200001F0AAFC00280EDB019A02F47042A2F53C
:101230000052B2FA82F252094FF4806300202A6011
:10124000336016B070BDA38900221B062A6004D546
:1012500040230020336016B070BD4FF4806300203F
:10126000336016B070BD00BF8A8992070B4606D561
:1012700001F1470201211A60C3E90421704770B5EA
:1012800082B001AB6A460C460646FFF7BFFF0099E5
:1012900005463046FFF76CFBB4F90C3070B11649C7
:1012A000B162019A0099206043F08003A381C4E9F0
:1012B00004018AB92B43A38102B070BD9A05FBD407
:1012C00023F0030304F1470243F002030121A38149
:1012D0002260C4E90421EFE73046B4F90E1001F0B2
:1012E000E3FD10B9B4F90C30E4E7A38923F003035C
:1012F00043F001031BB2DDE7FD030008704700BFA8
:10130000704700BF2DE9F0478E681D46AE420C467F
:101310000B68174636D88046888910F4906F0ED136
:10132000354618462A46394601F022FEA26823684F
:10133000961B2B44A66023600020BDE8F087D1E90E
:10134000041606EB4606A3EB010906EBD6766B1CEA
:1013500076104B44B342324684BF1E4632464305A4
:1013600012D511464046FFF703FB824600B34A46BA
:101370002169FFF7BDF9A38923F4906343F080034B
:10138000A38106E02E46CCE7404601F059FE824696
:1013900050B1A6EB09020AEB09036661C4F810A07C
:1013A0002360A2602E46BCE721694046FFF78AFA17
:1013B0000C23C8F80030A38943F04003A3814FF009
:1013C000FF30BAE72DE9F04F936883B09046002BC9
:1013D0006DD017688D6882460C460868083743E070
:1013E000A38913F4906F2ED0D4E9041505EB4505BD
:1013F000A0EB010B05EBD5750BEB06006D10013072
:10140000A8422A4684BF05462A465B0536D51146C2
:101410005046FFF7ADFA00283AD05A4621690190AC
:10142000FFF766F9A289019B22F4906242F08002E4
:10143000A281A5EB0B0203EB0B0065612361206029
:10144000A2603546B3465A46494601F091FDD8F8A8
:101450000830A2682068551B58449E1BA560206078
:10146000C8F808601EB3083757E90296AB46002E4D
:10147000F9D0AE42B4D23546B346E4E7504601F067
:10148000DFFD03460028D4D121695046FFF71AFA40
:101490000C23CAF80030A389002243F040034FF028
:1014A000FF30A381C8E9012203B0BDE8F08F00201E
:1014B000C8F8040003B0BDE8F08F00BF2DE9F04F7D
:1014C00090468A899FB014068B46029003D50A691C
:1014D000002A00F00B81059330238DF8323098F804
:1014E00000308E4E002120220B918DF831200127F3
:1014F000002B00F08480252B00F0F680454603E0A9
:10150000252B00F0868025466B786C1C002BF7D1CC
:10151000B4EB080A73D04246534659460298FFF787
:10152000F1FE01306BD00B9B6A7853440B93002A79
:1015300065D000234FF0FF3201340693CDE9083324
:101540008DF85B301C93079205E0069A07FA03F3C7
:1015500013432C4606932546052215F8011B3046F9
:1015600001F0B6FCAA46831B0028EED1069BD906E3
:1015700044BF20228DF85B2021781A0744BF2B221C
:101580008DF85B202A2948D1059A11680432002978
:1015900005927EDB09916178A51C2E2956D0604CFE
:1015A0000322204601F094FC002868D0001B069B13
:1015B000402404FA00F00343069305F1010829785A
:1015C00058488DF83010062201F082FC002866D0C1
:1015D000554B002B56D005AB00935A46534B0298FF
:1015E00006A9AFF300808146B9F1FF3F07D00B9BFE
:1015F0004B440B9398F80030002B7FF47CAFBBF882
:101600000C305B0654BF0B984FF0FF301FB0BDE8A5
:10161000F08FB4EB080A8CD07DE7A1F13002092AE3
:1016200088BFA246B9D8099B01E02C46013529782C
:1016300003EB830302EB4303A1F13002092AAA461C
:10164000F3D92E2904F102050993A8D19AF80110C3
:101650002A292ED1059B9AF802101A6807920433A2
:10166000002A05930AF103050AF1020337DB2C4C2B
:10167000032220469A4601F02BFC002896D1A8466A
:1016800055469CE7059B073323F007030833059372
:10169000ADE7494243F00203099106937BE705ABAE
:1016A00000935A46214B029806A900F089FA814618
:1016B0009AE7A1F130020023092A079301D923E018
:1016C0005546697803EB830302EB4303A1F1300233
:1016D000092A05F1010AF3D9023507935FE74FF0B4
:1016E000FF329A4607925AE7444622E74021039385
:1016F000FFF73EF9039BCBF80000CBF8100030B1A8
:101700004022CBF81420E6E6AA46013547E7029AC4
:101710000C2313604FF0FF3078E700BF505E0008E5
:10172000585E00085C5E0008000000000513000819
:101730009368013B002B936011DA10B49469A342C3
:1017400009DB0A2907D01368581C10601970084675
:101750005DF8044B70475DF8044BFFF733BC13682A
:10176000581C106019700846704700BF9BB1F8B54F
:1017700013440F4606465D1E541E01E0AC4208D0DD
:101780003A4614F8011F3046FFF7D2FF431CF5D14B
:10179000F8BD0020F8BD0020704700BF936810B569
:1017A000144613B95360184610BD01F0F9F900232F
:1017B000C4E9013310BD00BF2DE9F04F9FB08B4647
:1017C00090461C46039018B18369002B00F0B78047
:1017D000A24B9B4500F0B980A14B9B4500F0C78010
:1017E000A04B9B4504BF039BD3F80CB0BBF80C3057
:1017F000180740F1B280DBF81030002B00F0AD800C
:1018000030238DF8323098F80030059400212022E2
:101810000B918DF83120944E0127002B00F087802A
:10182000252B00F01581454603E0252B00F0A38011
:1018300025466B786C1C002BF7D1B4EB080A76D0E8
:101840004246534659460398FFF790FF01306ED049
:101850000B9B6A7853440B93002A68D000234FF007
:10186000FF3201340693CDE908338DF85B301C93C9
:10187000079205E0069A07FA03F313432C460693F2
:101880002546052215F8011B304601F021FBAA462A
:10189000831B0028EED1069BD90644BF20228DF879
:1018A0005B2021781A0744BF2B228DF85B202A2960
:1018B00066D1059A1168043200290592C0F29D8014
:1018C00009916178A51C2E2973D0684C032220460B
:1018D00001F0FEFA002800F08680001B069B4024E1
:1018E00004FA00F00343069305F1010829786048E3
:1018F0008DF83010062201F0EBFA002800F083800A
:101900005C4B002B72D005AB00935A465A4B0398A0
:1019100006A9AFF300808146B9F1FF3F07D00B9BCA
:101920004B440B9398F80030002B7FF479AFBBF851
:101930000C305B0618D40B981FB0BDE8F08FFEF793
:1019400043FE464B9B457FF447AF039BD3F804B05F
:10195000BBF80C3018073FF54EAF59460398FFF718
:10196000A7FB00283FF44CAF4FF0FF30E4E7039BA8
:10197000D3F808B03AE7B4EB080A3FF46FAF5FE77B
:10198000A1F13002092A88BFA2469CD8099B01E038
:101990002C460135297803EB830302EB4303A1F1C5
:1019A0003002092AAA46F3D92E2904F10205099327
:1019B0008BD19AF801102A292FD1059B9AF8021091
:1019C0001A6807920433002A05930AF103050AF105
:1019D000020338DB254C032220469A4601F078FAB0
:1019E00000287FF47AAFA84655467FE7059B07336A
:1019F00023F007030833059391E7494243F00203BC
:101A0000099106935DE705AB00935A461A4B03987C
:101A100006A900F0D5F881467EE7A1F13002002347
:101A2000092A079301D915E05546697803EB83032A
:101A300002EB4303A1F13002092A05F1010AF3D9AF
:101A40000235079341E74FF0FF329A4607923CE791
:101A5000444603E7AA46013537E700BF3054000883
:101A600010540008F0530008505E0008585E00084B
:101A70005C5E0008000000006D17000810B4044C04
:101A800013460A46014620685DF8044BFFF794BEF2
:101A9000000000202DE9F0470C4691460A6989684C
:101AA000DDF820808A42B8BF0A46C9F8002094F8C1
:101AB000431006461F4611B10132C9F800202368C1
:101AC00099065CD5D9F800200232C9F800202368B5
:101AD00013F0060F19461DD1E1688A1A002AD8BFF3
:101AE000194617DD04F1190A002505E0E368D9F865
:101AF00000209B1AAB420CDD01235246394630468A
:101B0000C047013005F10105F0D14FF0FF30BDE8CD
:101B1000F087216894F84330003318BF01238A0608
:101B20000AD5E1185A1C302081F84300224494F869
:101B3000451082F84310023304F14302394630461F
:101B4000C0470130E1D02368A268216903F0060391
:101B5000042B1DD08A4226DD4FF00009521A914411
:101B60001A34002501E04D451DDA0123224639468D
:101B70003046C047013005F10105F4D1C5E713F047
:101B8000060F13D094F84330003318BF0123D3E776
:101B9000D9F80000E3688A42A3EB000323EAE37963
:101BA000DCDC002BDCDC0020BDE8F087E168D9F844
:101BB00000208A1A002AD8BF194693DCAAE700BF82
:101BC0002DE9F0430C46097E85B06E29064617467E
:101BD0000C98984604F1430E6DD039D9732900F062
:101BE000F68044D9752900F00481782940F01181EC
:101BF00078232268DFF858C284F84530016815065A
:101C000051F8043B016040F1A180D10744BF42F08C
:101C100020022260002B00F093801022002184F823
:101C200043106068A0600028C0F2C880216821F0DD
:101C300004012160002B40F0A380002840F0C08008
:101C40007546082A00F0AC80AEEB0503236141E045
:101C5000632900F0E5801AD8002938D0582940F0CF
:101C6000D88084F845102268DFF8E8C1C6E76F29FC
:101C700000F0BF80702940F0CC802268DFF8D0C12E
:101C800042F020027823226084F84530B6E76429C8
:101C900002D0692940F0BD8022680368110603F173
:101CA000040557D5196805600B46002959DBDFF894
:101CB000A4C10A22B5E70368226861691D1D056099
:101CC00015061B6802D4500600F1BD801960002380
:101CD00075462361CDF800803B4603AA2146304675
:101CE000FFF7D8FE013020D02A4623693946304616
:101CF000C047013019D022680398E368920719D5CC
:101D00001A1A002A16DD04F11909002504E0E36817
:101D100003981A1AAA420DDD01234A463946304675
:101D2000C047013005F10105F1D14FF0FF3005B09A
:101D3000BDE8F0839842B8BF184605B0BDE8F0830F
:101D4000226822F020022260102267E7500648BF76
:101D50009BB25AE75106A5D5B3F900300560194684
:101D6000A3E76168A1602D200029C3F1000384F876
:101D7000430002DB22F004022260DFF8D8C00A220E
:101D8000754600E00B46B3FBF2F102FB11309342C3
:101D90001CF8000005F8010DF4D2082A7FF454AFB6
:101DA0002368DB077FF550AF626823699A423FF7EB
:101DB0004BAF302305F8013C013D45E7002BDFD157
:101DC0009CF8003084F8423004F1420539E703689A
:101DD0006268191D01601D680021284601F078F82D
:101DE000002832D0401B60602061002384F843301B
:101DF00070E72268036812F0800F03F104051AD01F
:101E00001B6805606F290CBF08220A22DFF844C056
:101E100004E7012384F84210236104F14205E4E75A
:101E200003681A68191D0123016004F1420584F852
:101E300042202361D9E712F0400F0DBF1B680560F7
:101E40001B880560DEE7198041E76068CCE700BFCA
:101E5000785E0008645E00082DE9F04F0025ADF5BE
:101E6000237DCDE94455884CDFF828C2874EDFF842
:101E700020A2A0940DF1040907460C469046CDF827
:101E800084C2CDF81891009398F800B0BBF1000F10
:101E900011D016F80B2012F0080208F1010540F0ED
:101EA000D180BBF1250F20D06268002A08DD2268AE
:101EB000117859450FD044980DF5237DBDE8F08F7A
:101EC000A19A214638469047002840F007812268B1
:101ED00011785945EFD16168459B013201390133D1
:101EE0002260A84661604593CEE74392419298F8FC
:101EF00001102A2905D11022419298F8021008F108
:101F00000205A1F13002092A0CD8002202EB82025C
:101F100001EB4202303A439215F8011FA1F1300063
:101F20000928F3D903225A4800F0D2FF691C00287F
:101F300000F0A180419BA0EB0A00012282401A43DD
:101F400005F1020841920A78782A00F22C81DFE834
:101F500012F095002A012A012A012A012A012A01E8
:101F60002A012A012A012A012A012A012A012A0119
:101F70002A012A012A012A012A012A012A012A0109
:101F80002A012A012A012A012A012A012A012A01F9
:101F90002A012A012A012A012A012A0198002A017C
:101FA0002A012A012A012A012A012A012A012A01D9
:101FB0002A012A012A012A012A012A012A012A01C9
:101FC0002A012A012A012A012A012A012A012A01B9
:101FD0002A012A012A012A012A012A01F800F8000F
:101FE000F8002A012A012A012A012A012A012A01CC
:101FF0002A012A012A012A012A012A012A012A0189
:102000002A0118012A012A011A012A012A012A019A
:102010002A012A012A012A01A300E700F800F8009A
:10202000F8002A0106012A012A012A012A010A01CF
:102030002601FB002A012A0104012A01E7002A01E6
:102040002A01180163680CE022681378F35C190711
:102050000FD54599636801320131013B22604591FA
:102060006360002B21463846EEDCA19B9847002890
:10207000EAD0A84608E78846294664E74FF0FF30D3
:102080001AE7454610E700BF7D2A000855540008AE
:10209000585E0008F1260008419B002243F04003EF
:1020A000419347926368002B44DD419B5B0623D537
:1020B000479B022B7CDD042B40F38180434B002B9C
:1020C0003FF4E2AE6B46224641A93846AFF30080AA
:1020D00001283FF4F0AE02287FF4D6AE44980028E1
:1020E000CCD0A38913F0400F18BF4FF0FF30E3E6C8
:1020F000A19B98470028F1D125682B78F35C13F059
:10210000080F05F10105D3D06368459A013B013200
:10211000002B2146384645926360E9DD2560ECE7F7
:102120000A2342936F2A34BF03230423479363682F
:10213000002BBADCA19B2146384698470028B4D032
:10214000CCE705234793ADE7419B43F0200343F4DD
:1021500000731021CDE94131E4E70223E6E70023D3
:1021600042930323E2E7419BDA063FF58DAE009AE6
:102170004599101D0090DD0713684CBF1980196048
:1021800082E6419BE3E74146484600F049FB419B1C
:10219000012243F0400380464193479282E708239F
:1021A00042930423C2E703220A234792429379E72A
:1021B0006B46224641A9384600F088F888E76B460E
:1021C000224641A9384600F0E1F881E7000000000E
:1021D0002DE9F041184E356804460F4690464DB340
:1021E000AB69284683B1154B9C4213D0144B9C42DB
:1021F00018D0144B9C4208BFEC6843463A4621462F
:10220000BDE8F041FFF728BEFEF7DEF90B4B306862
:102210009C42EBD16C6843463A462146BDE8F0410A
:10222000FFF71ABEAC6843463A462146BDE8F04186
:10223000FFF712BE2846D6E7000000203054000801
:1022400010540008F053000810B4044C13460A461A
:10225000014620685DF8044BFFF7FEBD000000203A
:1022600030B5044685B008B185697DB11448814216
:1022700017D0144881421BD01348814208BFE1683F
:10228000204605B0BDE83040FFF7E6BDCDE90223AA
:102290000191FEF799F9019909488142DDE902238C
:1022A000E7D16168204605B0BDE83040FFF7D4BDF6
:1022B000A168204605B0BDE83040FFF7CDBD00BFA6
:1022C0003054000810540008F05300082DE9F8437A
:1022D0000D46896880461446A86929B9002814BFAC
:1022E0004FF0FF320122AA602A68D70603D41A6889
:1022F000111D19601668244F4FF00009F8B101282C
:1023000036D0022824D123681A78D25D12071FD450
:102310002A68D10609F1010903D41B7806F8013BAC
:1023200023686168AA6801330139013AC4E90031C0
:10233000AA606AB1002904DDA8690028DFD12368FA
:10234000E6E7D5F880312146404698470028F3D08B
:102350002B6813F0100305D1EA68A9690132EA601D
:1023600001B133702B694B442B610020BDE8F88329
:1023700023686A691978525C002AC9D1B9F1000F43
:10238000E6D1BDE8F88300BF555400082DE9F04FB1
:102390000C46804FDFF808927F4E87B08046154686
:1023A00097E80700A7680093A36907F1FF3C032B98
:1023B00018BFB14603ABBCF5AE7FCDF8049083E8FF
:1023C000070040F2A88040F25D126FF4AE7007EB98
:1023D000000BA260A1469A4659F81C2B42F45062A9
:1023E00022604E4600272B685AF8040B1978022207
:1023F00000F06EFDA8B1012F00F08280022F00F0E6
:10240000A780A3685A1EA2605BB12B685A1C2A6081
:102410001B7806F8013B6B68013B002B6B6040F3B7
:102420008D800137032FDED16168002976D0C1F19C
:1024300010015A4B6069194400F0F2F9A368002BAF
:1024400000F0A580D5F800C062699CF80000175C18
:102450003FB3002761460BE02B6801332B60A36874
:10246000013BA360EBB1296862690878125CC2B1D4
:10247000D4F800C0302832462CF4106E52D0C4F884
:1024800000E00B7802F8013B16466B68013B002B1D
:10249000294640466B60DFDCD4F88031984700283D
:1024A000DDD02268D1050CD54E4507D916F8011CA0
:1024B000D4F87C312A4640469847013E4E4564D0C8
:1024C000226812F0100211D132706368019D4046FB
:1024D0004946A84723689A0647D500990B681A1DF4
:1024E0000A601B681860E3680133E3602369A6EBA8
:1024F000090637441F442761002007B0BDE8F08F6C
:10250000D4E900321AB90822626043F4007323F45C
:10251000A063236075E74FF0000B5BE70A2363605D
:10252000062186E71CF4006FA9D001330137BBF107
:10253000000FAAD00BF1FF3BA360A6E7D4F88031CF
:1025400029464046984700283FF46BAF0027A8E78C
:10255000236803F4C062B2F5007F7FF465AF43F4F3
:1025600080732360102363604BE7009D2A6813F09B
:10257000010F02F1040103D0296013681880B2E74B
:10258000009B196013681860ADE70120B5E71F468E
:1025900087E700BF58550008D12900088C5E000865
:1025A000910F000810B5044682B008B18369D3B119
:1025B000194B9A4220D0194B9A4225D0184B9A4277
:1025C00008BFE2689368013B002B93601ADA9069B8
:1025D00083421BDBC8B20A2818D013685C1C146045
:1025E000197002B010BDCDE90012FDF7EDFFDDE975
:1025F0000012094B9A42DED162689368013B002BBE
:102600009360E4DBC8B2E8E7A268DBE7204602B0EB
:10261000BDE81040FEF7D6BC305400081054000846
:10262000F05300081E4B70B51D6806460C460DB1F0
:10263000AB69CBB11B4B9C421CD01B4B9C4225D0A1
:102640001A4B9C4208BFEC68A368013B002BA360B7
:1026500016DAA26993421BDBF0B20A2818D023686D
:102660005A1C22601E7070BD2846FDF7ADFF0D4B51
:102670009C42E2D16C68A368013B002BA360E8DBBD
:1026800023685A1C22601E70F0B270BDAC68DBE794
:10269000224631462846BDE87040FEF793BC00BF95
:1026A000000000203054000810540008F0530008C7
:1026B00070B50D46084C114606461A4628460023BA
:1026C000236000F00BFD431C00D070BD2368002B7D
:1026D000FBD0336070BD00BFE4200020838903F08D
:1026E0000903092B01D000207047FDF773BE00BF1E
:1026F000F8B50C46054610B18369002B2ED0434B2C
:102700009C4230D0424B9C422FD0424B9C4208BF4F
:10271000EC68B4F90C2093B200219F06616061D48B
:102720005E0724D4D80660D5190744D442F00402C9
:10273000A2812369002B4AD0B4F90C70BEB2B30752
:1027400028D12269226028466369656A216AA84700
:1027500000286060C8BF00203EDDF8BDFDF734FFF3
:102760002A4B9C42CED16C68D3E7AC68D1E7616B51
:102770000029DED004F14403994202D02846FEF736
:10278000A1F8236C636000206063002BD1D0E36B61
:102790002360F8BD204B214918680123A38106F06E
:1027A0000906FDF731FF092EA781CAD12146284627
:1027B000FDF74AFDC5E721462846FDF7DBFD88B950
:1027C000B4F90C20A060A06122F00802AEE7214617
:1027D0002846FEF749FDAFE7B4F90C300DD143F0C0
:1027E0002003A3814FF0FF30F8BD42F040020923DF
:1027F0002B604FF0FF30A281F8BD43F04003002270
:10280000A38162604FF0FF30F8BD00BF3054000874
:1028100010540008F053000850540008DD2600084A
:1028200070B40C785E2C064620D00022481C154659
:10283000731E06F1FF0103F8012F8B42FBD194B107
:1028400085F001033355411C11F8012C2D2A01F1AB
:10285000FF3508460FD05D2A03D00AB11446F1E7D0
:10286000284670BC7047013870BC704701224C7814
:102870001546881CDCE70D785D2DEFD0AC42EDDC11
:1028800032190134A54202F8013FFADC0231DBE7DC
:102890002DE9F0470F464C4D00E06746BC461CF85A
:1028A000014B2E5D16F00806F7D12D2C58D02B2C9D
:1028B0000ABF9CF80050254607F1020CF3B3102B19
:1028C00054D04FF0FF38B8FBF3F803FB08FA6FEA77
:1028D0000A0A99460027BE4607E0C64513D828D005
:1028E00009FB0E4E01271CF8015BA5F13004092CF1
:1028F00005D9A5F14104192C08D8A5F13704A34244
:102900000CDD002FE9DA4FF0FF37ECE7A5F16104A9
:10291000192C03D8A5F15704A342F2DC002F16DBD3
:102920000EB1CEF1000E0AB1BFB911607046BDE81C
:10293000F0875445D4DD4FF0FF37D4E7302D29D050
:102940000A2399464FF0050ADFF88080C2E7222368
:1029500003604FF0FF3E002AE8D00CF1FF31E4E7BE
:102960009CF80050012607F1020CA7E7302D24D176
:102970009CF8004004F0DF04582C18D14FF01009E7
:102980009CF801504B464FF00F0A0CF1020C6FF00F
:1029900070489FE79CF8003003F0DF03582BEDD020
:1029A000082399464FF0070A6FF0604892E799466E
:1029B0006FF070484FF00F0A8CE74FF00F0A6FF07E
:1029C0007048994686E700BF5554000899999919AF
:1029D0005EE700BF10B4044C13460A460146206867
:1029E0005DF8044B54E700BF0000002010B4044C15
:1029F00013460A46014620685DF8044B48E700BFCD
:102A00000000002001F144032DE9F0410C46496B20
:102A1000994214D0A66B77003A4600F011FB0546A8
:102A200040B300EB0608324640462946FDF760FEFB
:102A3000C4E90D57C4F800800020BDE8F0814FF4D0
:102A40008061FDF795FFA8B194F846304FF480629D
:102A5000C4E90D0280F8FF3394F8453080F8FE3366
:102A600094F8443080F8FD3300F2FD3020600020FF
:102A7000BDE8F0814FF0FF30DFE700BF70B54C1CC0
:102A800068D00E461446054610B18369002B2FD03E
:102A9000324B9C4231D0324B9C4230D0314B9C4225
:102AA00008BFEC68B4F90C3023F020039AB2500749
:102AB000A38106D4D1064DD512073AD443F00403BE
:102AC000A381626B6368F6B2DAB1A26B9A4205DC4D
:102AD00028462146FFF796FF00283BD123685A1E5F
:102AE000226003F8016C636801336360304670BD97
:102AF000FDF76AFD194B9C42CDD16C68D2E7AC68FA
:102B0000D0E7226921682AB18A4203D211F8012C48
:102B1000B2421AD0224604F1440023640323C4E9DC
:102B20000D03E16302F8466F0123C4E90023304638
:102B300070BD21462846FDF71DFC58B9B4F90C308C
:102B4000A060A06123F00803B8E701390133C4E9AC
:102B50000013CBE74FF0FF36C8E700BF3054000842
:102B600010540008F0530008024B0A46014618684A
:102B7000FFF784BF0000002038B50B46074C054620
:102B8000114618460023236000F090FA431C00D041
:102B900038BD2368002BFBD02B6038BDE42000201B
:102BA0009368002B00F002812DE9F04FB1F90C3051
:102BB0009BB20C46190783B08246904635D52269F0
:102BC0009AB313F00202D8F800603DD00027D4F881
:102BD00028B0D4F820C0DFF8CC923D464D452B46B6
:102BE0003A4628BF4B4661465046D5B1D8470028E3
:102BF00040F3D280D8F808301B1A07442D1AC8F8C1
:102C00000830002B00F0B780D4F820C0D4F828B0EA
:102C10004D452B463A4628BF4B4661465046002D4F
:102C2000E4D1D6E900750836D8E721465046FEF7CC
:102C30003FFA002840F03081B4F90C30D8F8006039
:102C40009BB213F00202C1D113F0010940F0B08031
:102C5000A76820684D46002D54D09A0540F1BC80ED
:102C6000AF42BB4600F2E78013F4906F2FD0D4E957
:102C7000041707EB4707A0EB010B07EBD777681C9E
:102C80007F105844B8423A4684BF07463A465B052F
:102C900040F1E98011465046FDF76AFE002800F039
:102CA000F5805A4621690190FDF722FDA289019B1A
:102CB00022F4906242F08002A281A7EB0B0203EBA8
:102CC0000B00676123612060A2602F46AB465A4625
:102CD000494600F04DF9A2682368D21B5B442F4699
:102CE000A26023600025D8F80830DB1BB944C8F87F
:102CF0000830002B3FD0B4F90C30A76820689BB295
:102D0000002DAAD1D6E900950836A4E70BF10803F7
:102D100053E902679B460833002FF9D03A460A214F
:102D2000304600F0D5F8002853D00130A0EB06095A
:102D30004B46D4E904122068BB4228BF3B46884278
:102D400003D9A5681544AB4219DC9A427DDC1346D1
:102D5000A56A216A32465046A847051E1CDDB9EB1C
:102D600005096BD00120D8F808305B1B2E447F1B6F
:102D7000C8F8083013BB002003B0BDE8F08F31461F
:102D80002A4600F0F5F823682B442360214650467C
:102D9000FDF7F0FA0028E2D0B4F90C3043F040031C
:102DA0004FF0FF30A38103B0BDE8F08F00207047E3
:102DB00033469146104617464E469B46002FA5D0F7
:102DC0000028B5D13A460A21304600F081F80028A3
:102DD000ABD17B1C9946ACE72369834215D361696B
:102DE000A94212D82E4BA76A9D4294BF2B466FF082
:102DF00000434A4693FBF1F3504601FB03F3216A7B
:102E0000B847071EC8DDED1B6DE7AF4228BF2F4650
:102E10003A46494600F0ACF8A3682268DB1B3A4406
:102E2000A3602260002BEED121465046FDF7A2FAA6
:102E30000028E8D0B0E72F46AB4648E72146504689
:102E4000FDF798FA00288ED0A6E71A46314601937E
:102E500000F08EF8019BA1682268C91A1A44A1608B
:102E600022601D467BE7504600F0EAF80346002842
:102E70007FF423AF21695046FDF724FDB4F90C30EF
:102E80000C2223F08003CAF8002087E70C23CAF83D
:102E90000030B4F90C3081E74FF0FF306CE700BF31
:102EA000FEFFFF7F00FCFF7F38B5074C002305467F
:102EB0000846236000F002F9431C00D038BD2368A7
:102EC000002BFBD02B6038BDE42000200000000068
:102ED00001F0FF01102A2BDB10F0070F08D010F8CB
:102EE000013B013A8B422DD010F0070F42B3F6D1CF
:102EF000F0B441EA012141EA014122F007047FF0E8
:102F000000070023F0E80256083C85EA010586EA3E
:102F1000010685FA47F5A3FA87F586FA47F6A5FA7A
:102F200087F68EB9EED1F0BC01F0FF0102F0070286
:102F300032B110F8013B013A83EA010313B1F8D131
:102F40000020704701387047002D06BF3546033812
:102F5000073815F0010F07D1013015F4807F02BF4B
:102F6000013015F4C03F0130F0BC0138704700BF9C
:102F70008842F0B40DD98B1883420AD9841832B133
:102F8000224613F8014D02F8014D9942F9D1F0BCE7
:102F900070470F2A0ED80346541E002AF7D001347A
:102FA0000C44013B11F8012B03F8012FA142F9D188
:102FB000F0BC704740EA01039B073BD1A2F1100728
:102FC0003F0901F1200606EB071601F1100300F19D
:102FD000100453F8105C44F8105C53F80C5C44F88F
:102FE0000C5C53F8085C44F8085C53F8045C44F843
:102FF000045C1033B34204F11004EAD17B1C1B01C2
:1030000012F00C0F194402F00F05034415D0043DD3
:10301000AD0803EB850C1C1F0E4656F8047B44F8E4
:10302000047F6445F9D10135AD002B44294402F0F9
:103030000302B1E7541E0346B1E72A46ACE700BFDE
:1030400009B3F8B51446CAB106460D4600F01EF89D
:10305000A04202D32F463846F8BD21463046FDF740
:1030600087FC07460028F6D022462946FDF740FB9C
:1030700030462946FDF726FC3846F8BD2746FDF7C1
:1030800021FC3846F8BD1146FDF772BC51F8043CEE
:10309000181F002BBCBF0B58C0187047024B58229A
:1030A0001A604FF0FF307047E4200020024B582296
:1030B0001A604FF0FF307047E4200020024B582286
:1030C0001A600020704700BFE4200020024B582205
:1030D0001A604FF0FF307047E4200020024B582266
:1030E0001A604FF0FF307047E4200020044A054981
:1030F0001368002B08BF0B46184410601846704731
:10310000A0000020E8200020024B58221A604FF057
:10311000FF307047E420002030B595B000240194C2
:103120001B4B1A6C42F080521A641B6C03F08053E4
:103130000193019B0294174A136823F4404343F41C
:1031400000431360136803F440430293029B02257B
:103150000395012306931023079309950A940B9373
:103160004FF4A8730C9304230D9307230E9303A825
:1031700000F016FF0F230F93109511944FF4805316
:103180001293139429460FA801F0F8F815B030BD3A
:10319000003802400070004010B54048FDF718FDAF
:1031A0003F4C2046FDF714FD3E48FDF711FD3E481B
:1031B000FDF70EFD3D48FDF70BFD2046FDF708FD30
:1031C0003B48FDF705FD3B48FDF74EFC3A4B1B68BD
:1031D0009868FDF7FFF8394C21463948FDF712FD94
:1031E0002378792B24D03748FDF73EFC364B1C68FA
:1031F0002046FDF7C5FD024621463448FDF778FA22
:10320000334B1C682046FDF7BBFD02462146314882
:10321000FDF76EFA3048FDF7DBFC3048FDF7D8FCCF
:103220002F48FDF7D5FC2F48FDF7D2FC002010BD3C
:103230002D48FDF719FC204B1B689868FDF7CAF86C
:103240002A4C0023237021491D48FDF7DBFC207028
:103250002748FDF7BDFC2378272B1AD02548FDF71A
:1032600003FC154B1B689868FDF7B4F81F4C00234E
:10327000237018491248FDF7C5FC20701C48FDF763
:10328000A7FC2378132BC5D11B48FDF7EDFB0420C9
:10329000CDE71A48FDF7E8FB0420C8E764550008AD
:1032A000A4550008E05500081C56000858560008B0
:1032B00094560008D0560008000000204006002068
:1032C000F45600088857000870000020C00800204D
:1032D0006C000020EC080020B8570008FC570008DC
:1032E0004058000884580008F8560008A400002040
:1032F0003C580008485700085C5700081857000859
:1033000010B582B000230193574B1A6B42F00102B3
:103310001A631B6B03F001030193019B00F03CF95E
:10332000FFF7FAFE01F02CF9FFF736FFC0B94F4C5A
:10333000002363700223A3700122E2704C4A1068DC
:1033400060634C4A137001F03FF94B48FDF740FCB5
:10335000204601F05FFA48B94848FDF739FC17E00C
:103360004748FDF781FB002002B010BD4548FDF73E
:103370007BFBF8E74448FDF72BFC444B1B78444AA1
:1033800012784449444801F0D1F93A4B02221A70AC
:10339000384B1B78013B062BFAD801A252F823F0D8
:1033A000753300084F340008BD330008913300081E
:1033B0000334000825340008F53300083748FDF7CA
:1033C00007FC374C204601F049FC21463548FDF703
:1033D0004BFB002323606360A360E360236120460E
:1033E00001F06CFC21463048FDF73EFB214B0522E5
:1033F0001A70CDE72D48FDF7EBFB1E4B02221A7029
:10340000C6E72B48FDF7E4FB2A494FF4FA4001F0E8
:10341000FDF818B1174B02221A70B9E72648FDF7DC
:10342000D7FBF7E72548FDF7D3FB254C2046FDF7F2
:10343000A7FC244B1880214601F0F8F818B10D4B79
:1034400002221A70A4E72048FDF7C2FBF7E72E20FE
:10345000FDF738FB1D4B1B689868FCF7BBFF4FF46A
:10346000FA7000F0C1F893E70038024044090020E8
:1034700064000020BC060020E05800081459000831
:10348000C858000804590008305900086900002095
:1034900068000020EC080020C008002050590008F7
:1034A00044060020645900087C590008945900081B
:1034B000AC5900081C5D0008D0590008F0590008FC
:1034C0006C06002000090020105A000800000020AF
:1034D000FEE7FEE7FEE7FEE7FEE77047704770474E
:1034E00008B500F073F808BD82B0002100910B4BC5
:1034F0005A6C42F480425A645A6C02F48042009240
:10350000009A01911A6C42F080521A641B6C03F00D
:1035100080530193019B02B0704700BF0038024006
:103520000F49D1F8883043F47003C1F888300D4B4F
:103530001A6842F001021A60002098601A6822F0AE
:10354000847222F480321A60074A5A601A6822F4A0
:1035500080221A60D8604FF000638B60704700BF14
:1035600000ED00E0003802401030002410B50446A1
:10357000074B1868074BA3FB0030800900F0E2F905
:10358000002221464FF0FF3000F0A8F9002010BDC6
:1035900074000020D34D621008B50B4B1A6842F43A
:1035A00000721A601A6842F480621A601A6842F463
:1035B00080721A60032000F07FF90F20FFF7D6FF1A
:1035C000FFF792FF002008BD003C0240024A13684A
:1035D00001331360704700BF7C090020014B18685D
:1035E000704700BF7C09002010B582B00190FFF742
:1035F000F5FF0446FFF7F2FF001B019B9842F9D349
:1036000002B010BD00230F2B00F2C780F0B482B0CF
:1036100039E0042200E00022B2403A4302345F4E17
:1036200046F824205E4A1468EA4324EA05064F68F7
:1036300017F4803F01D045EA0406594C26606468BF
:1036400002EA04064F6817F4003F01D045EA040679
:10365000534C6660A46802EA04064F6817F4801FA2
:1036600001D045EA04064E4CA660E46822404E684C
:1036700016F4001F01D045EA0402494CE260013310
:103680000F2B00F2878001229A400C6804EA0205A1
:1036900032EA0404F3D14C68022C01D0122C10D170
:1036A000DE08083650F826C003F00704A7000F24F0
:1036B000BC402CEA040C0C69BC4044EA0C0440F801
:1036C0002640D0F800C05E000324B440E7432CEA53
:1036D000040C4C6804F00304B44044EA0C04046095
:1036E0004C6804F1FF3CBCF1010F03D9112C01D04F
:1036F000122C10D1846807EA040CCC68B44044EA68
:103700000C048460446824EA02024C68C4F3001488
:103710009C4014434460C26817408A68B2403A43F0
:10372000C2604A6812F0805FA9D0002201921D4A4F
:10373000546C44F480445464526C02F4804201920C
:10374000019A9C08A61C154A52F8267003F0030241
:1037500096000F22B24027EA0207134A90423FF434
:103760005AAF02F5806290420ED002F5806290421C
:103770000CD002F5806290420AD002F5806290423D
:103780003FF447AF072247E7012245E7022243E71C
:10379000032241E702B0F0BC704770470038014097
:1037A000003C0140003802400000024000230F2B83
:1037B00075D8F0B509E0042500E0002505FA02F20D
:1037C000A24251D001330F2B68D801229A4002EA5D
:1037D000010C32EA0104F5D104685D00032606FA03
:1037E00005F524EA0504046023FA06F7083750F8C3
:1037F00027E003F00704A4000F2606FA04F42EEADB
:10380000040440F82740846824EA0504846044687E
:1038100024EA02024260C26822EA0505C5609F08E8
:10382000BC1C1F4A52F8244003F003029200964049
:1038300034401C4DA842C0D005F58065A8420DD08B
:1038400005F58065A8420BD005F58065A84209D032
:1038500005F58065A842AED00725AFE70125ADE7A5
:103860000225ABE70325A9E70D4DBA1C55F8224008
:1038700024EA060645F822600B4A146824EA0C0480
:103880001460546824EA0C045460946824EA0C041C
:103890009460D46824EA0C04D46093E7F0BD7047C8
:1038A0000038014000000240003C01400AB1816143
:1038B0007047090481617047074AD36823F4E063C5
:1038C0001B041B0C000200F4E060034343F0BF63E1
:1038D00043F40033D360704700ED00E030B4174B81
:1038E000DB68C3F30223C3F10704042C28BF0424BC
:1038F0001D1D062D18D9033B4FF0FF3505FA04F4C2
:1039000021EA0401994005FA03F322EA030319436B
:1039100000280BDB0901C9B200F1604000F56140ED
:1039200080F8001330BC70470023E5E700F00F007B
:103930000901C9B2024B1954F4E700BF00ED00E0E1
:1039400014ED00E00138B0F1807F0AD2064B5860D8
:10395000064AF02182F823100020986007221A609E
:1039600070470120704700BF10E000E000ED00E06C
:103970002DE9F843044601680A6922F44052C368FD
:1039800013430B610168CA6822F4164222F00C024C
:1039900083680069034360690343E0690343134399
:1039A000CB6021684A6922F44072A36913434B61DA
:1039B000E369B3F5004F60D02368B84A934200F042
:1039C000148102F58062934200F00F8100F0ACFD9B
:1039D00000EB800000EB80006568AD00B0FBF5F502
:1039E000AF4EA6FB05356D092F0100F09DFD00EBE4
:1039F000800505EB850563689B00B5FBF3F900F0D6
:103A000093FD00EB800000EB80006568AD00B0FB2B
:103A1000F5F5A6FB05356D094FF0640808FB159513
:103A20002D013235A6FB05356D0905F0F0053D4445
:103A300000F07AFD00EB800000EB80006768BF00BB
:103A4000B0FBF7F700F070FD00EB800000EB8000AA
:103A500063689B00B0FBF3F0A6FB0030400908FB55
:103A600010784FEA081808F13208A6FB0836C6F3AA
:103A7000431623682E449E600DE12368874A9342D3
:103A80005BD002F58062934257D000F04DFD00EB11
:103A9000800000EB800065686D00B0FBF5F5804E9E
:103AA000A6FB05356D092F0100F03EFD00EB8000FF
:103AB00000EB800065686D00B0FBF5F900F034FDA7
:103AC00000EB800000EB800065686D00B0FBF5F551
:103AD000A6FB05356D094FF0640808FB1595ED0050
:103AE0003235A6FB05356D096D0005F4F8753D44CA
:103AF00000F01AFD00EB800000EB800067687F009B
:103B0000B0FBF7F700F010FD00EB800000EB800049
:103B100063685B00B0FBF3F3A6FB03235B0908FBC0
:103B200013784FEAC80808F13208A6FB0836C6F336
:103B3000421623682E449E60ADE000F00BFD00EBC2
:103B4000800000EB800065686D00B0FBF5F5544E19
:103B5000A6FB05356D092F0100F0FCFC00EB800091
:103B600000EB800065686D00B0FBF5F900F0F2FC39
:103B700000EB800000EB800065686D00B0FBF5F5A0
:103B8000A6FB05356D094FF0640808FB1595ED009F
:103B90003235A6FB05356D096D0005F4F8753D4419
:103BA00000F0D8FC00EB800000EB800067687F002D
:103BB000B0FBF7F700F0CEFC00EB800000EB8000DC
:103BC00063685B00B0FBF3F3A6FB03235B0908FB10
:103BD00013784FEAC80808F13208A6FB0836C6F386
:103BE000421623682E449E6055E000F0B3FC00EBC3
:103BF000800000EB80006568AD00B0FBF5F5284E55
:103C0000A6FB05356D092F0100F0A4FC00EB800533
:103C100005EB850563689B00B5FBF3F900F09AFCA2
:103C200000EB800000EB80006568AD00B0FBF5F5AF
:103C3000A6FB05356D094FF0640808FB15952D01AD
:103C40003235A6FB05356D0905F0F0053D4400F061
:103C500081FC00EB800000EB80006768BF00B0FBD8
:103C6000F7F700F077FC00EB800000EB8000636862
:103C70009B00B0FBF3F0A6FB0030400908FB107876
:103C80004FEA081808F13208A6FB0836C6F34316B7
:103C900023682E449E60BDE8F88300BF00100140F9
:103CA0001F85EB512DE9F84305460F461646994608
:103CB000DDF820802C68246837EA04030CBF012457
:103CC0000024B4421FD1B8F1FF3FF3D0B8F1000F88
:103CD00005D0FFF783FCA0EB09004045EAD92A682C
:103CE000D36823F4D073D3602A68536923F00103A7
:103CF0005361202385F8393085F83A30002385F860
:103D00003830032000E00020BDE8F883704758B346
:103D100010B5044690F839300BB3242384F83930B9
:103D20002268D36823F40053D3602046FFF720FEB7
:103D30002268136923F4904313612268536923F0C6
:103D40002A0353612268D36843F40053D3600020F0
:103D5000E063202384F8393084F83A3010BD80F8CD
:103D60003830FFF7D3FFD8E701207047704778B1AC
:103D700010B50446242380F83930FFF7F7FF002000
:103D8000E06384F8390084F83A0084F8380010BD04
:103D9000012070472DE9F04182B01E4690F839307D
:103DA000DBB2202B53D104460D469046002952D059
:103DB000002A52D090F83830012B50D0012380F8DF
:103DC00038300023C363212380F83930FFF706FC25
:103DD0000746A4F82480A4F8268017E000963B4606
:103DE000002280212046FFF75DFF002839D12B8873
:103DF0002268C3F30803536023690BB9023505E059
:103E0000013503E015F8012B23685A60E28C82B17A
:103E1000013AE284A268B2F5805FDFD000963B46AB
:103E2000002280212046FFF73DFF0028EAD0032032
:103E30000EE000963B4640212046FFF733FF90B945
:103E4000202384F83930002384F8383000E0022041
:103E500002B0BDE8F0810120FAE70120F8E7022076
:103E6000F6E70320F4E70320F2E790F83A30DBB2FC
:103E7000202B1BD1E1B1EAB190F83830012B1BD0D7
:103E800081628285C2850023C363222280F83A20A2
:103E900080F8383001684A6942F001024A610168DD
:103EA000CA6842F49072CA60184670470220704790
:103EB0000120704701207047022070477047026858
:103EC000D36843F00103D3600268136843F0010331
:103ED00013600020704700000368234A90420ED010
:103EE000B0F1804F0BD0A2F57C42904207D002F592
:103EF0008062904203D002F58062904203D123F0A9
:103F000070034A681343184A90421AD0B0F1804FA8
:103F100017D0A2F57C42904213D002F58062904205
:103F20000FD002F5806290420BD002F59A32904297
:103F300007D002F58062904203D002F58062904281
:103F400003D123F44073CA68134303608B68C362D0
:103F50000B688362044B984202D00123436170478F
:103F60000B690363F9E700BF00000140B0B110B571
:103F7000044690F8393063B1022384F83930214681
:103F800051F8040BFFF7A8FF012384F83930002013
:103F900010BD80F83830FFF791FFEDE70120704742
:103FA00030B583B00446036813F0010F2ED0A34B45
:103FB0009B6803F00C03042B1FD0A04B9B6803F0FD
:103FC0000C03082B14D022799D4B1A706368002BC8
:103FD00040D0FFF703FB0546984B1B6813F4003FE6
:103FE00014D1FFF7FBFA401B6428F5D9032072E1D6
:103FF000924B5B6813F4800FE5D0904B1B6813F471
:10400000003F03D06368002B00F06081236813F049
:10401000020F4AD0894B9B6813F00C0F2ED0874BB0
:104020009B6803F00C03082B23D0E368002B63D0BC
:10403000844B01221A60FFF7D1FA05467F4B1B68BB
:1040400013F0020F49D1FFF7C9FA401B0228F5D936
:10405000032040E1FFF7C2FA0546784B1B6813F4D2
:10406000003FD3D0FFF7BAFA401B6428F5D90320EC
:1040700031E1724B5B6813F4800FD6D16F4B1B6834
:1040800013F0020F03D0E368012B40F021816B484D
:10409000036823F0F8032169F82292FAA2F2B2FA37
:1040A00082F201FA02F213430360236813F0080F4F
:1040B00046D0636993B3644B01221A60FFF78EFA0E
:1040C00005465E4B5B6F13F0020F39D1FFF786FA9E
:1040D000401B0228F5D90320FDE05848036823F06F
:1040E000F8032169F82292FAA2F2B2FA82F201FAF6
:1040F00002F213430360D8E7524B00221A60FFF725
:104100006DFA05464D4B1B6813F0020FCDD0FFF73B
:1041100065FA401B0228F5D90320DCE04A4B002257
:104120001A60FFF75BFA0546444B5B6F13F0020F12
:1041300006D0FFF753FA401B0228F5D90320CAE046
:10414000236813F0040F1FD1A369002B00F0C28075
:104150003A4A926802F00C02082A00F0BE80022B54
:1041600059D03A4B00221A60FFF738FA0446334B15
:104170001B6813F0007F00F0A780FFF72FFA001BE9
:104180000228F4D90320A6E0002301932B4B1A6CDC
:1041900042F080521A641B6C03F080530193019B20
:1041A0002B4A136843F480731360FFF717FA054630
:1041B000274B1B6813F4807F06D1FFF70FFA401BD3
:1041C0000228F5D9032086E0227A224B1A70A368D0
:1041D00083B1FFF703FA0546184B1B6F13F0020F6C
:1041E000B2D1FFF7FBF9401B41F288339842F3D973
:1041F000032070E0FFF7F2F90546104B1B6F13F038
:10420000020FA1D0FFF7EAF9401B41F28833984230
:10421000F3D903205FE00D4B00221A60FFF7DEF9AF
:104220000546064B1B6813F0007F15D0FFF7D6F943
:10423000401B0228F5D903204DE000BF00380240A2
:104240000238024000004742800E47426000474269
:104250000070004070380240E369226A1343616ACB
:1042600047F6C07292FAA2F2B2FA82F201FA02F2B0
:104270001343A26A5208013A4FF4403191FAA1F176
:10428000B1FA81F18A401343E16A4FF0706292FA09
:10429000A2F2B2FA82F201FA02F21343104A536018
:1042A000104B01221A60FFF799F904460C4B1B686A
:1042B00013F0007F06D1FFF791F9001B0228F5D912
:1042C000032008E0002006E0002004E0012002E0D6
:1042D000012000E0002003B030BD0120FBE700BF5B
:1042E0000038024060004742214B9B6803F00C03FA
:1042F000042B38D0082B38D11D4B586800F03F00F4
:104300005B6813F4800F1ED01A4AB2FBF0F2184B10
:10431000586847F6C073184093FAA3F3B3FA83F3CF
:10432000D84000FB02F0124B5B6803F440334FF4BB
:10433000403292FAA2F2B2FA82F2D34001335B0029
:10434000B0FBF3F070470C4AB2FBF0F2084B586830
:1043500047F6C073184093FAA3F3B3FA83F3D84037
:1043600000FB02F0DFE7034870470348704700BFD7
:104370000038024040787D010024F40070B5044606
:104380000D46624B1B6803F00F038B4208D2CBB281
:104390005E4A1370136803F00F038B4240F0AF8046
:1043A000236813F0020F06D0594A936823F0F003F4
:1043B000A1680B439360236813F0010F64D0636816
:1043C000012B26D09A1E012A2AD9514A126812F0CE
:1043D000020F00F096804E498A6822F003021343D0
:1043E0008B60FFF7FBF806466368012B1FD0022B9A
:1043F0002CD0032B39D0464B9B6813F00C0F43D0C5
:10440000FFF7ECF8801B41F288339842F3D9032080
:1044100074E03F4A126812F4003FDCD101206DE0E5
:104420003B4A126812F0007FD5D1012066E0384B7C
:104430009B6803F00C03042B26D0FFF7CFF8831BF7
:1044400041F288329342F2D9032057E0304B9B6807
:1044500003F00C03082B17D0FFF7C0F8801B41F2C4
:1044600088339842F2D9032048E0294B9B6803F037
:104470000C030C2B08D0FFF7B1F8801B41F28833F6
:104480009842F2D9032039E0204B1B6803F00F0358
:10449000AB4207D9EAB21D4B1A701B6803F00F0339
:1044A000AB4230D1236813F0040F06D0184A93684A
:1044B00023F4E053E1680B439360236813F0080F83
:1044C00007D0134A936823F46043216943EAC10388
:1044D0009360FFF709FF0E4B9B6803F0F003F02297
:1044E00092FAA2F2B2FA82F2D3400A4AD35CD840DE
:1044F000094B18600F20FFF739F8002070BD01202C
:10450000FCE70120FAE70120F8E700BF003C024089
:1045100000380240605A000874000020014B1868FF
:10452000704700BF7400002008B5FFF7F7FF074B86
:104530009B6803F4E0534FF4E05292FAA2F2B2FA0D
:1045400082F2D340024AD35CD84008BD0038024012
:10455000605A000808B5FFF7E1FF074B9B6803F4BA
:1045600060434FF4604292FAA2F2B2FA82F2D34070
:10457000024AD35CD84008BD00380240605A0008A7
:1045800008B50C4B1B680C4AA2FB03235B0B013BD9
:104590000A4A13600A480B4A02606322C260436001
:1045A000002303618360FFF7E1FC00B908BD00F060
:1045B00017FDFBE7740000205917B7D1A8000020B1
:1045C000A82000200004004008B50E4B0E4A1A60D7
:1045D000586000229A60DA601A614FF48071996124
:1045E0000C215961DA611846FFF7C1FB20B9054873
:1045F000FFF78DFB18B908BD00F0F2FCF7E700F0FB
:10460000EFFCF8E7F40B00200010014008B500F0C3
:10461000BFFC00F095FC08BD034B1B78DB0901D102
:1046200000BFF9E7704700BFD409002038B53A4B06
:104630001B78002B6CD004460D4620B9374BD3F8BD
:10464000E430834266D3FFF7E7FF72B6344A13794A
:1046500043F00503137162B600E000BF314B1B78D5
:1046600013F0010FF9D12F4B5B68002BF5D12C4BC8
:104670001A786FF300021A702A4B1B7813F0200F80
:104680000ED100F049FD274B1B7813F0200F04D109
:10469000214B1B780BB100BFF5E71F4B1B78DBB13B
:1046A0004FF47A73A2B229461F48FFF773FB044602
:1046B00008BB1C4B1B78DB0921D0194B1A7842F040
:1046C00001021A7072B61A7902F0FE026FF38202CA
:1046D0001A7162B6204638BD114B1A7842F00102B9
:1046E0001A7072B61A7902F0FE026FF382021A7122
:1046F00062B60224EEE700F078FC0F24D9E700F060
:10470000F7FC00E000BF074B1B78DB09FAD0D4E7C9
:104710000524DFE70224DDE7AC000020440C002084
:10472000380C0020D4090020F40B002070B504469A
:1047300016461D4619B1084600F056FD20BBF4B1DF
:10474000204600F037FD08BB2946154800F016FD4D
:10475000F8B90321134800F011FDE0B931461248C1
:1047600000F00CFD0446C0B900F070FD0F4A13784C
:1047700043F004031370012000F0D0FA07E00C4B63
:10478000586800F017FDDEE7092400E00824204601
:1047900070BD0A24FBE70A24F9E70A24F7E700BF03
:1047A0000C5B00081C5B0008285B0008380C00202C
:1047B0007016002010B586B0044600210091134BFE
:1047C0001A6B42F004021A631B6B03F0040300939C
:1047D000009B4FF480730193012302930391032301
:1047E000049301A90A48FEF70DFF44B101224FF4DA
:1047F00080710748FFF75AF8002006B010BD00226C
:104800004FF480710248FFF751F8F5E70038024095
:104810000008024070B505469F48FCF725F99F48FF
:10482000FCF7D6F99E48FCF7D3F99E48FCF7D0F97F
:1048300000F0E2FB0120FFF7BDFF00F009FB00F0F4
:10484000EDFC044608B1204670BD696B964800F047
:1048500095FC04460028F6D100F0B8FB934B944A2F
:104860001068186092889A801846FCF789FA80B21E
:1048700000F0F4FB20B900F063FB04460028E2D10D
:1048800000F0E6FA01218B4800F078FC044600288D
:10489000D9D1296B29B1844800F070FC0446002866
:1048A000D1D10021844800F069FC04460028CAD117
:1048B0002B78002B00F0B480012B00F0C2806B78C5
:1048C000012B00F02181022B00F04F81002B00F022
:1048D000C980A978032940F27981E978022940F258
:1048E0008081696829B1754800F02CFC04460028D5
:1048F000A9D1A96829B1724800F024FC0446002817
:10490000A1D1E96829B16F4800F01CFC04460028D9
:1049100099D1296929B16C4800F014FC044600289B
:1049200091D1696929B1694800F00CFC044600285E
:1049300089D1E96929B1664800F004FC04460028E1
:1049400081D1296A31B1634800F0FCFB044600289C
:104950007FF479AF6B6A002B40F04B81A96A002984
:1049600040F0538195F82C1031B15B4800F006FC03
:10497000044600287FF467AF00F028FB4B4C2A7EEA
:1049800056492046FCF790F92046FCF7F9F980B229
:1049900000F064FB28B900F0D3FA044600287FF445
:1049A00052AF00F013FB414E4D4C0FCC30607160A4
:1049B000B260F36003CC30617161237833763046A6
:1049C000FCF7DEF980B200F049FB28B900F0B8FA34
:1049D000044600287FF437AF00F0F8FA334B344A2E
:1049E0001068186092889A801846FCF7C9F980B25E
:1049F00000F034FB0446002800F00F81286B0028EB
:104A000040F0128100F024FA0020FFF7D3FE354871
:104A1000FCF7DEF8344B1B689868FBF7DBFC12E709
:104A20000021324800F0AAFB044600287FF40BAFB7
:104A30002F49304800F086FB044600283FF43FAF82
:104A400001E70121294800F099FB044600287FF482
:104A5000FAAE2949274800F075FB044600283FF4C8
:104A60002EAFF0E60021254800F088FB0446002820
:104A70007FF4E9AE0021224800F080FB04460028C4
:104A80007FF4E1AE00211F4800F078FB04460028C7
:104A90003FF41FAFD7E600BFC85B0008E05B00082B
:104AA000FC5B0008185C00082C5C0008A4160020C1
:104AB0003C5C0008445C00081C5B00083C5A000891
:104AC000745B0008545B00085C5B0008F45C000841
:104AD000005D0008105D00084C5D0008605D000886
:104AE000705A0008705D000800000020545C000847
:104AF000645C0008705C0008845C0008905C00083E
:104B00008C5B00089C5B000801214A4800F036FBE2
:104B1000044600287FF497AE0B21474800F02EFB97
:104B2000044600287FF48FAE0021444800F026FBA5
:104B3000044600287FF487AE0021414800F01EFBA8
:104B4000044600287FF47FAE00213E4800F016FBAB
:104B5000044600287FF477AE00213B4800F00EFBAE
:104B6000044600283FF4B5AE6DE60121314800F05F
:104B700005FB044600287FF466AE0C212E4800F0A9
:104B8000FDFA044600287FF45EAE0A212B4800F0AF
:104B9000F5FA044600287FF456AE0121284800F0BB
:104BA000EDFA044600287FF44EAE0121254800F0BE
:104BB000E5FA044600287FF446AE0021224800F0C2
:104BC000DDFA044600283FF484AE3CE601EB4101E7
:104BD00049001E4800F0D2FA044600283FF47DAE9A
:104BE00031E61B4800F0CAFA044600283FF479AECB
:104BF00029E64FF47A7101FB03F1164800F0BEFA82
:104C0000044600283FF4AAAE1DE6134800F0B6FAA9
:104C1000044600283FF4A6AE15E600F091F90446DC
:104C200000283FF4EBAE0EE6FFF7CEFC00F062F991
:104C3000E8E600BF905C0008A05C0008B85C0008D3
:104C4000CC5C00088C5B00089C5B0008E45C0008FE
:104C5000805B0008205D00083C5D0008F8B5054653
:104C600000F0B4F9114C124A12492046FCF71CF826
:104C70002046FCF785F880B200F0F0F9044608B150
:104C80002046F8BD00F05CF904460B4F3846FCF7AF
:104C900077F80646024639462846FBF729FD324694
:104CA00000213846FBF7BEFDEAE700BFA41600204E
:104CB0003C5A00088C5D0008520C0020F8B50546EF
:104CC00000F084F9114C124A12492046FBF7ECFF20
:104CD0002046FCF755F880B200F0C0F9044608B150
:104CE0002046F8BD00F02CF904460B4F3846FCF77F
:104CF00047F80646024639462846FBF7F9FC324695
:104D000000213846FBF78EFDEAE700BFA41600201D
:104D10009C5D0008AC5D0008520C002038B50446CC
:104D200000F054F90D4D22460D492846FBF7BCFF13
:104D30000C4BFF229A752846FCF722F880B200F04F
:104D40008DF900B138BD084B00221A7000E000BF99
:104D5000044B9B7DDBB20E2BF9D1F3E7A4160020A8
:104D6000BC5B0008D4090020EA0900201B4B1A781C
:104D700042F008021A701A7842F080021A701A780B
:104D80006FF386121A7000225A749A745A60597816
:104D900062F300015970FF2199750221D9741975C8
:104DA0005A75DA600E4B197841F003011970597980
:104DB00062F345115971197A987940F0040098719D
:104DC000D87962F3C710D87101F0F80162F3C3011A
:104DD0001972597A62F3820159727047D40900201E
:104DE000380C002008B5174BDA796FF3C502DA7179
:104DF0000021C3F8AC10C3F8A010C3F8A810C3F882
:104E0000B810C3F8B010A3F89810C3F8BC10C3F8DA
:104E1000C410C3F8C8105973C3F8CC10A3F8941089
:104E20004FF48052C3F8E4200522A3F89A20064BE1
:104E30004FF001321A605A604FF400620348FBF7EA
:104E4000F1FC08BD440C002068160020600E002014
:104E5000F0B583B000260096214B1A6B42F0040295
:104E60001A631A6B02F004020092009A01961A6B00
:104E700042F001021A631B6B03F001030193019BD3
:104E800018494FF480550D6301274F638F63032347
:104E9000CB63154C30312046FEF7B4FB134B1E702C
:104EA000134BFF229A75324629462046FEF7FEFC38
:104EB000C820FEF799FB3A4629462046FEF7F6FC45
:104EC0003220FEF791FB29462046FEF76FFC084B87
:104ED0009B7DDBB20E2B01D000BFF8E703B0F0BD25
:104EE000003802408009002000080240AD00002088
:104EF000D409002008B500224FF480510748FEF77E
:104F0000D5FC012206490748FEF7AFFF20B9064A43
:104F1000537843F01003537008BD00BF00000240F7
:104F2000920C0020F40B0020380C0020034B0022D0
:104F30009A601A7842F004021A707047D40900206F
:104F4000074B5B7813F0010F01D100BFF8E7044A6B
:104F500053786FF300035370024B93F8E8007047E7
:104F6000D4090020440C002000E000BF074B1B7850
:104F700013F0010FF9D1054B1B7813F0020F04D089
:104F8000024B5B7813F0100FEFD07047D40900206C
:104F900038B505460C46FFF7E7FF0A4BC3F8C0508B
:104FA000DC660948172380F8263072B600F1200429
:104FB00094E80600143000F081F962B6204600F053
:104FC000C8F938BD440C00208009002008B54FF412
:104FD000006200210148FBF725FC08BDA416002053
:104FE00008B5002000F0C2F908BD08B5002000F0A7
:104FF000BDF9FFF77FFF08BD38B5134D4FF4806151
:10500000284600F03BF9114A53786FF3430353707D
:1050100000240F4B1C70FFF76DFFFFF7E3FEFFF757
:10502000A5FE322105F1140000F032F9FFF77EFFF2
:10503000084B1C605C600848FEF741FF00B938BDB2
:10504000FFF7D3FFFBE700BF80090020D409002051
:10505000AD000020C00D0020A82000201F4B1B78B1
:1050600013F0100F04D11D4B1B7813F0400F2ED0FE
:105070001B4B5B7813F0010F2BD1194B93F90030C8
:10508000002B28DB10B516494B7843F008034B7012
:1050900080B14FF47A73024612491348FEF77AFE44
:1050A00068B90F4A53786FF3C303537013F01004B9
:1050B00009D010BD0D48FBF7D7FC1F20F9E7FFF71B
:1050C00094FF0F20F5E7FFF715FF2046F1E70520D5
:1050D0007047102070471020704700BFD40900208F
:1050E000380C0020A4160020F40B0020BC5D000842
:1050F00008B5FFF76BFF064B064A106818609288E8
:105100009A801846FBF73CFE80B2FFF7A7FF08BD68
:10511000A4160020DC5D000808B5FFF757FF074B19
:10512000074A106818609188927999809A71184698
:10513000FBF726FE80B2FFF791FF08BDA416002002
:10514000E45D000870B504460D46FFF73FFF094EC9
:105150002B46224608493046FBF7A6FD3046FBF7B2
:105160000FFE80B2FFF77AFF00B170BDFFF7E8FED7
:10517000FBE700BFA4160020EC5D000870B50446F4
:105180000D46FFF723FF094E2B46224608493046BD
:10519000FBF78AFD3046FBF7F3FD80B2FFF75EFFB9
:1051A00000B170BDFFF7CCFEFBE700BFA4160020E6
:1051B000005E000838B50446FFF708FF084D224698
:1051C00008492846FBF770FD2846FBF7D9FD80B259
:1051D000FFF744FF00B138BDFFF7B2FEFBE700BFA9
:1051E000A4160020145E000838B50446FFF7EEFE52
:1051F000084D224608492846FBF756FD2846FBF78E
:10520000BFFD80B2FFF72AFF00B138BDFFF798FE5F
:10521000FBE700BFA4160020285E000808B5FFF7D2
:10522000D5FE084B084A1068186092889A80184684
:10523000FBF7A6FD80B2FFF711FF00B108BDFFF735
:105240007FFEFBE7A4160020485E000808B5FFF7C4
:10525000BDFE084B084A1068186092889A8018466C
:10526000FBF78EFD80B2FFF7F9FE00B108BDFFF736
:1052700067FEFBE7A41600203C5C00088160002369
:105280000360C3604360014B03617047B0000020BE
:10529000C90089B2818000230380C3804380014B11
:1052A00083607047B00400208388C08880B2C3F355
:1052B000CC03984214BF00200120704710B582B083
:1052C000044602AB03E90600FFF7EEFF00283ED1DB
:1052D0006388C3F3CC03A26802EBC302BDF80410D9
:1052E0009180A26802EBC3029DF802109170A2683F
:1052F00002EBC3029DF80110507861F30300507077
:10530000A26802EBC3020909507861F307105070DC
:10531000A2689DF8001002F83310A26802EBC303E4
:105320009DF806209A71E3889BB201339BB2E3801B
:1053300063889BB208339BB26380A3889AB2638868
:1053400099B291FBF2F302FB13139BB2638002B09C
:1053500010BD0023838083714278092363F3030225
:1053600042708370632303707047000008B5012208
:105370002021034B53F82000FEF798FA08BD00BF28
:1053800078000020DFF834D0002103E00C4B5B589C
:10539000435004310B480C4B42189A42F6D30B4A47
:1053A00002E0002342F8043B094B9A42F9D3FEF78E
:1053B000B7F8FBF779F9FDF7A3FF704700800120EC
:1053C000B45E0008000000207C0000207C0000206B
:1053D000E8200020FEE70000F8B500BFF8BC08BCDC
:1053E0009E467047F8B500BFF8BC08BC9E467047A3
:1053F00000000000000000000000000000000000AD
:10540000000000000000000000000000000000009C
:10541000000000000000000000000000000000008C
:10542000000000000000000000000000000000007C
:10543000000000000000000000000000000000006C
:10544000000000000000000000000000000000005C
:1054500004000020002020202020202020202828B8
:105460002828282020202020202020202020202024
:105470002020202020881010101010101010101064
:105480001010101010040404040404040404041094
:105490001010101010104141414141410101010122
:1054A00001010101010101010101010101010101EC
:1054B00010101010101042424242424202020202F8
:1054C00002020202020202020202020202020202BC
:1054D000101010102000000000000000000000006C
:1054E00000000000000000000000000000000000BC
:1054F00000000000000000000000000000000000AC
:10550000000000000000000000000000000000009B
:10551000000000000000000000000000000000008B
:10552000000000000000000000000000000000007B
:10553000000000000000000000000000000000006B
:10554000000000000000000000000000000000005B
:105550000000000000000000A05E0008A45E00083B
:10556000A85E00080D0A0A2F2A2A2A2A2A2A2A2A8D
:105570002A2A2A2A2A2A2A2A2A2A2A2A2A2A2A2A8B
:105580002A2A2A2A2A2A2A2A2A2A2A2A2A2A2A2A7B
:105590002A2A2A2A2A2A2A2A2A2A2A2A2A2A2A2A6B
:1055A000000000000D202A20202020202020202084
:1055B00020202020202020202020202020202020EB
:1055C00020202020202020202020202020202020DB
:1055D000202020202020202020202020202A000001
:1055E0000D202A20582D435542452D574946493113
:1055F00020457870616E73696F6E20536F667477A3
:105600006172652056332E312E312020202020203B
:105610002020202020202020202A00000D202A20C9
:10562000582D4E55434C454F2D49445730787831CD
:105630002057692D4669204D696E692D41502043E0
:105640006F6E66696775726174696F6E2E202020B7
:1056500020202020202A00000D202A205365727669
:1056600065722D536F636B6574204578616D706C46
:1056700065202020202020202020202020202020E5
:10568000202020202020202020202020202020201A
:10569000202A00000D202A2A2A2A2A2A2A2A2A2AEF
:1056A0002A2A2A2A2A2A2A2A2A2A2A2A2A2A2A2A5A
:1056B0002A2A2A2A2A2A2A2A2A2A2A2A2A2A2A2A4A
:1056C0002A2A2A2A2A2A2A2A2A2A2A2A2A2F000089
:1056D0000D0A446F20796F752077616E7420746FA6
:1056E00020736574757020535349443F28792F6E99
:1056F000293A0000257300000D0A456E746572207A
:10570000746865205353494420666F72206D696E3A
:10571000692D41503A000000457863656564656411
:10572000206E756D626572206F66207373696420E8
:1057300063686172616374657273207065726D690C
:105740007474656400000000456E746572207468AE
:10575000652070617373776F72643A004578636592
:1057600065646564206E756D626572206F66207079
:10577000736B206368617261637465727320706516
:10578000726D6974746564000D0A0A4D6F64756CFE
:10579000652077696C6C20636F6E6E65637420772B
:1057A0006974682064656661756C742073657474CF
:1057B000696E67732E0000000D0A2F2A2A2A2A2AF2
:1057C0002A2A2A2A2A2A2A2A2A2A2A2A2A2A2A2A39
:1057D0002A2A2A2A2A2A2A2A2A2A2A2A2A2A2A2A29
:1057E0002A2A2A2A2A2A2A2A2A2A2A2A2A2A2A2A19
:1057F0002A2A2A2A2A2A2A2A0D0000000D0A202AEB
:1058000020436F6E66696775726174696F6E2043BD
:105810006F6D706C65746520202020202020202072
:105820002020202020202020202020202020202078
:105830002020202020202020202020200D000000DB
:105840000D0A202A20506C65617365206D616B65BF
:1058500020737572652061207365727665722069A8
:1058600073206C697374656E696E6720617420675C
:105870006976656E20686F73746E616D6520202097
:105880000D0000000D0A202A2A2A2A2A2A2A2A2A5A
:105890002A2A2A2A2A2A2A2A2A2A2A2A2A2A2A2A68
:1058A0002A2A2A2A2A2A2A2A2A2A2A2A2A2A2A2A58
:1058B0002A2A2A2A2A2A2A2A2A2A2A2A2A2A2A2A48
:1058C0002A2A2A2A0D0000000D0A4572726F7220E2
:1058D000696E2041502053657474696E67730000CF
:1058E0000D0A496E697469616C697A696E67207422
:1058F00068652077696669206D6F64756C652E2E0A
:105900002E0D00004572726F7220696E20436F6E1B
:10591000666967000D0A496E697469616C697A6924
:105920006E6720636F6D706C6574652E0D000000EE
:105930000D0A203E3E73657474696E672075702091
:105940006D696E694150206D6F64652E2E2E0D00BD
:105950000D0A203E3E636F6E6E65637465642E2E85
:105960002E0D00000D0A3E3E4950206164647265B0
:1059700073732069732025730D0A00000D0A3E3EE3
:105980006D616320616464722069732025730D0A60
:10599000000000000D0A203E3E646973636F6E6E66
:1059A00065637465642E2E0D000000000D0A203E14
:1059B0003E576946692073657276657220736F631E
:1059C0006B6574206F70656E696E672E2E0D00001A
:1059D0000D0A203E3E53657276657220536F636BED
:1059E0006574204F70656E204F4B200D0000000045
:1059F0000D0A203E3E57726974696E6720646174B7
:105A00006120746F20636C69656E740D0000000086
:105A10000D0A203E3E53657276657220536F636BAC
:105A20006574205772697465204F4B200D0000008B
:105A30006E765F6D6F64656C0000000069705F6971
:105A400070616464720000003132333435363738A7
:105A500039000000535057463034534100000000D5
:105A60000000000001020304010203040607080904
:105A700041542B532E544C5343455254323D636C86
:105A800065616E2C616C6C0D0000000041542B535D
:105A90002E53455454494D453D256C750D0000006D
:105AA00041542B532E544C53434552543D665F632F
:105AB000612C25640D25730041542B532E544C53F7
:105AC000444F4D41494E3D665F646F6D61696E2C78
:105AD00025730D0041542B532E544C5343455254BF
:105AE0003D665F636572742C25640D2573000000AC
:105AF00041542B532E544C53434552543D665F6BD7
