:020000040800F2
:100000000080012051280008B1090008B309000848
:10001000B5090008B7090008B90900080000000088
:10002000000000000000000000000000BB09000804
:10003000BD09000800000000BF090008C109000850
:10004000A1280008A1280008A1280008A12800086C
:10005000A1280008A1280008A1280008A12800085C
:10006000A1280008A1280008A1280008A12800084C
:10007000A1280008A1280008A1280008A12800083C
:10008000A1280008A1280008A128000800000000FD
:10009000000000000000000000000000A12800088F
:1000A000A1280008A1280008A1280008A12800080C
:1000B000A1280008A1280008A1280008A1280008FC
:1000C000A1280008A1280008A1280008A1280008EC
:1000D000A1280008A1280008A128000800000000AD
:1000E000A1280008A1280008A1280008000000009D
:1000F000000000000000000000000000A12800082F
:1001000000000000A1280008A1280008A12800087C
:1001100000000000000000000000000000000000DF
:10012000A1280008A1280008A1280008A12800088B
:10013000A1280008000000000000000000000000EE
:10014000000000000000000000000000A1280008DE
:10015000A1280008A1280008A1280008A12800085B
:10016000A1280008A12800080000000000000000ED
:10017000000000000000000000000000000000007F
:1001800000000000A128000800000000000000009E
:04019000A12800089A
:1001A00010B5054C237833B9044B13B10448AFF3B1
:1001B00000800123237010BD90000020000000008B
:1001C000943D00080C4B43B10C480D4910B5AFF3FA
:1001D00000800C48036823B910BD0A48036833B98E
:1001E0007047094B002BF7D0BDE810401847064B6D
:1001F000002BF5D0184700BF00000000943D000818
:10020000940000209000002000000000034613F836
:10021000012B002AFBD1181A01387047000000009A
:1002200001F0FF01102A2BDB10F0070F08D010F8A7
:10023000013B013A8B422DD010F0070F42B3F6D1AB
:10024000F0B441EA012141EA014122F007047FF0C4
:1002500000070023F0E80256083C85EA010586EA1B
:10026000010685FA47F5A3FA87F586FA47F6A5FA57
:1002700087F68EB9EED1F0BC01F0FF0102F0070263
:1002800032B110F8013B013A83EA010313B1F8D10E
:100290000020704701387047002D06BF35460338EF
:1002A000073815F0010F07D1013015F4807F02BF28
:1002B000013015F4C03F0130F0BC0138704700BF79
:1002C00053B94AB9002908BF00281CBF4FF0FF31BD
:1002D0004FF0FF3000F07AB9ADF1080C6DE904CEB3
:1002E00000F006F8DDF804E0DDE9022304B0704711
:1002F0002DE9F0478C460D460446089E002B51D14F
:100300008A4217466DD9B2FA82FEBEF1000F0BD0B9
:10031000CEF1200C01FA0EF520FA0CFC02FA0EF7D1
:100320004CEA050C00FA0EF44FEA174A250CBCFB08
:10033000FAF81FFA87F90AFB18CC45EA0C4508FBC6
:1003400009F3AB420AD9ED1908F1FF3280F023819D
:10035000AB4240F22081A8F102083D44ED1AA4B25C
:10036000B5FBFAF00AFB105544EA054400FB09F915
:10037000A14509D9E41900F1FF3380F00A81A145B4
:1003800040F2078102383C44A4EB090440EA0840EB
:100390000021002E61D024FA0EF400233460736033
:1003A000BDE8F0878B4207D9002E54D0002186E8A3
:1003B00021000846BDE8F087B3FA83F1002940F038
:1003C0008E80AB4202D3824200F2FA80841A65EB3F
:1003D00003050120AC46002E3FD086E81010BDE892
:1003E000F08712B90127B7FBF2F7B7FA87FEBEF123
:1003F000000F34D1EB1B3A0C1FFA87FC0121B3FB31
:10040000F2F8250C02FB183345EA03450CFB08F310
:10041000AB4207D9ED1908F1FF3002D2AB4200F22E
:10042000D1808046ED1AA3B2B5FBF2F002FB105565
:1004300043EA05440CFB00FCA44507D9E41900F18C
:10044000FF3302D2A44500F2B8801846A4EB0C0496
:1004500040EA08409DE731463046BDE8F087CEF1DE
:10046000200405FA0EF307FA0EF720FA04F83A0C06
:1004700025FA04F448EA0308B4FBF2F14FEA184500
:1004800002FB11441FFA87FC45EA044501FB0CF30B
:10049000AB4200FA0EF409D9ED1901F1FF3080F0FA
:1004A0008A80AB4240F2878002393D44EB1A1FFA42
:1004B00088F5B3FBF2F002FB103345EA034500FB7D
:1004C0000CF3AB4207D9ED1900F1FF386FD2AB4204
:1004D0006DD902383D44EB1A40EA01418FE7C1F182
:1004E000200722FA07F88B4005FA01F448EA0303D3
:1004F00020FA07FE4FEA134CFD404EEA040EB5FB0E
:10050000FCF94FEA1E440CFB19551FFA83F844EA24
:10051000054509FB08F4AC4202FA01F200FA01FABF
:1005200008D9ED1809F1FF3043D2AC4241D9A9F105
:1005300002091D442D1B1FFA8EFEB5FBFCF00CFBBF
:1005400010554EEA054400FB08F8A04507D9E41809
:1005500000F1FF3529D2A04527D902381C4440EAD2
:100560000940A4EB0804A0FB02894C45C6464D4651
:1005700015D312D056B1BAEB0E0364EB050404FA9E
:1005800007F7CB401F43CC40376074600021BDE8C3
:10059000F0871846F8E69046E0E6C245EAD2B8EBA6
:1005A000020E69EB03050138E4E72846D7E7404629
:1005B00091E78146BEE7014678E702383C4445E7CB
:1005C000084608E7A8F102083D442BE7704700BF42
:1005D00082B000230193064B1A6B42F001021A63AA
:1005E0001B6B03F001030193019B02B0704700BF36
:1005F0000038024008B50A480A4B03604FF4E13363
:10060000436000238360C36003610C224261836105
:10061000C36101F031F900B908BD01F00DFFFBE73E
:10062000A40A00200044004000B595B0302200210B
:1006300008A802F0FAFA00230393049305930693A3
:10064000079301931A4A116C41F080511164126CA6
:1006500002F080520192019A029316490A6822F42C
:10066000404242F400420A600A6802F440420292A8
:10067000029A0222089201220B9210220C920E93EF
:1006800008A800F0ADFC68B90F2303930021049182
:1006900005910691079103A800F0EAFE28B915B06C
:1006A0005DF804FB01F0C8FEEEE701F0C5FEF6E7D9
:1006B000003802400070004010B5254802F0F2FBFF
:1006C000244C204602F0EEFB234802F0EBFB2348CB
:1006D00002F0E8FB224802F0E5FB204602F0E2FBD4
:1006E000204802F0DFFB204B1B68986802F092F96B
:1006F0001E4802F04FFB1E4B1C682046FFF786FD8C
:10070000024621461B4802F085FA1B4B1C68204616
:10071000FFF77CFD02462146184802F07BFA184B91
:100720001C682046FFF772FD02462146154802F07C
:1007300071FA154802F0B6FB144802F0B3FB1448F6
:1007400002F0B0FB134802F0ADFB002010BD00BF6B
:10075000084000084840000884400008C0400008E5
:10076000FC400008384100082C00002074410008BB
:10077000180000207C06002014000020E40A00205D
:100780000800002050060020A4410008E8410008AD
:100790002C4200087042000810B500F023FAFFF761
:1007A00043FFFFF715FFFFF725FF604800F084F9CE
:1007B0005F4802F077FBFFF77FFFF0B95D4802F07A
:1007C00071FB5D4A5D495E4802F0E4FA5D4C00232E
:1007D00063700223A3700122E2705B4A12686263B5
:1007E0005A4A13705A4802F05DFB204601F070FA35
:1007F00040B1584802F056FB02E0574802F052FB65
:10080000002010BD514C2178544802F0C3FA012356
:10081000237002E0524802F045FB4C4B1B78DBB2E0
:10082000082BFAD801A252F823F000BF15080008DF
:1008300051080008130900086B0800081B0800088D
:100840007908000887080008DB0800080509000887
:10085000444802F027FB444B1A783749374801F0E7
:10086000BFF90222394B1A70D7E7404802F01AFB51
:100870000622364B1A70D0E73D4802F013FB0022E7
:10088000324B1A70C9E73B4802F00CFB3A4C204649
:1008900001F05AFC002323606360A360E3602361DE
:1008A0002146364B186801F04FFE354B1B781BB1C3
:1008B0000722264B1A70B0E7324802F0F3FA5022B2
:1008C0003149324801F056F918B102221F4B1A7013
:1008D000A3E72F4802F0E6FAF7E72E4802F0E2FA23
:1008E00050222D492D4B186801F05EF930B92C4883
:1008F00002F0D8FA0222154B1A708EE7294802F04E
:10090000D1FAF7E7284802F045FA02220F4B1A7095
:1009100083E72E2002F056FA244B1B68986802F0F9
:1009200079F84FF4FA7000F089F976E7A40A00200C
:10093000AC3D0008DC3D0008E40A00207C060020F5
:10094000FC3D0008380B0020000000207906002044
:10095000143E0008383E0008C43D00084C3E000824
:100960006C3E0008783E00080C000020943E000811
:10097000A83E0008BC3E00086406002004000020D9
:10098000AC000020CC3E0008E03E000850060020ED
:10099000E83E0008F83E0008243F00081000002050
:1009A000603F0008703F0008A40600202C000020D3
:1009B000FEE7FEE7FEE7FEE7FEE770477047704799
:1009C00008B500F029F908BD82B0002100910B4B59
:1009D0005A6C42F480425A645A6C02F4804200928B
:1009E000009A01911A6C42F080521A641B6C03F059
:1009F00080530193019B02B0704700BF0038024052
:100A000000B589B0002303930493059306930793DD
:100A10000268154B9A4202D009B05DF804FB002130
:100A2000019103F5FA331A6C42F400321A641A6C1D
:100A300002F400320192019A02911A6B42F0010213
:100A40001A631B6B03F001030293029B0C230393B5
:100A500002230493032306930723079303A9034860
:100A600000F05AF9D8E700BF0044004000000240FF
:100A700008B50268064B9A4200D008BD054A136CBF
:100A800023F4003313640C21034800F01FFAF4E749
:100A9000004400400038024000000240054BD3F8FB
:100AA000882042F47002C3F888204FF000629A60F8
:100AB000704700BF00ED00E008B5054B1860054B1E
:100AC0001868002302221946806802F003FA08BD64
:100AD000700B00202C000020022801D80120704754
:100AE00008B501F0DFFE09230360002008BD000007
:100AF00010B5013801280CD814464FF0FF3392B2DC
:100B00000748006800F0FFFE08B1052010BD204630
:100B100010BD01F0C7FE092303604FF0FF3010BD88
:100B2000700B0020022801D80020704708B501F0A2
:100B3000B9FE092303604FF0FF3008BD08B501F08E
:100B4000B1FE092303604FF0FF3008BD08B558B966
:100B50004FF0FF3301220848006800F046FF08B15B
:100B6000052008BD012008BD01F09CFE092303609B
:100B70004FF0FF3008BD00BF700B002008B5022801
:100B800004D84FF400534B60002008BD01F08AFEEA
:100B900009230360F8E7000010B504460E4B1878EF
:100BA0004FF47A73B3FBF0F30C4A1068B0FBF3F028
:100BB00000F09CF868B90F2C01D9012010BD00226B
:100BC00021464FF0FF3000F05FF8054B1C6000201D
:100BD00010BD012010BD00BF200000201C0000201F
:100BE0002400002008B50B4B1A6842F400721A600A
:100BF0001A6842F480621A601A6842F480721A60BD
:100C0000032000F02FF80020FFF7C6FFFFF7DCFEFF
:100C1000002008BD003C0240034A1168034B1B78CA
:100C20000B441360704700BF740B002020000020AD
:100C3000014B1868704700BF740B002038B504469C
:100C4000FFF7F6FF0546B4F1FF3F02D0044B1B78D7
:100C50001C44FFF7EDFF401B8442FAD838BD00BFAB
:100C600020000020074AD36823F4E0631B041B0C18
:100C7000000200F4E060184340F0BF6040F4003030
:100C8000D060704700ED00E030B4164BDB68C3F372
:100C90000223C3F10704042C28BF04241D1D062DC4
:100CA00017D9033B012505FA04F4013C2140994082
:100CB00005FA03F3013B1340194300280BDB09013C
:100CC000C9B200F1604000F5614080F8001330BC0B
:100CD00070470023E6E700F00F000901C9B2024B9C
:100CE0001954F4E700ED00E014ED00E00138B0F134
:100CF000807F0AD2064B5860F021064A82F8231002
:100D00000020986007221A6070470120704700BFDA
:100D100010E000E000ED00E000230F2B00F2CD809A
:100D2000F0B583B095E085684FEA430E032707FAD4
:100D30000EF725EA0705CE6806FA0EF635438560FC
:100D4000456825EA02024D68C5F300159D402A4317
:100D50004260C6685F000322BA40D24316408D68E5
:100D6000BD402E43C6604D68022D00F08480122DD8
:100D700000F0818005682A404D6805F00305BD40FC
:100D80002A4302604A6812F0805F5FD0002201921D
:100D90004A4A556C45F480455564526C02F48042D1
:100DA0000192019A9D08AE1C454A52F8262003F094
:100DB0000306B6000F27B74022EA0702414FB842A8
:100DC00071D007F58067B8426FD007F58067B842E9
:100DD0006DD007F58067B8426BD007F58067B842E1
:100DE0005FD0072707FA06F632430235344E46F83D
:100DF0002520354A1568E24305EA02064F6817F4D4
:100E0000803F01D044EA05062F4D2E606D6802EA4E
:100E100005064F6817F4003F01D044EA05062A4D45
:100E20006E60AD6802EA05064F6817F4801F01D0B6
:100E300044EA0506244DAE60ED682A404E6816F47B
:100E4000001F01D044EA05021F4CE26001330F2B62
:100E500031D801229A400C681440A242F6D14D6864
:100E60006E1E012E7FF65FAF112D3FF45CAF122D89
:100E70007FF46FAF57E74FEAD30E0EF1080E50F82C
:100E80002E5003F0070C4FEA8C0C0F2606FA0CF6D6
:100E900025EA06050E6906FA0CF6354340F82E5091
:100EA00068E704279EE700279CE701279AE70227C7
:100EB00098E7032796E703B0F0BD7047003802407B
:100EC0000038014000000240003C014000230F2B8D
:100ED00079D8F0B52BE04FF0040E01E04FF0000E92
:100EE0000EFA05F5AF4255D005685E000324B44004
:100EF000E44325400560DD08083550F8256003F01F
:100F000007074FEA870E0F2707FA0EF726EA0706AC
:100F100040F82560C5682540C560456825EA02029D
:100F2000426082681440846001330F2B4AD801224A
:100F30009A4002EA0104A242F6D14FEA930C0CF166
:100F40000206214D55F8267003F00305AD000F266B
:100F5000AE403740DFF878E07045BFD00EF5806EC8
:100F600070450ED00EF5806E70450DD00EF5806E7A
:100F700070450CD00EF5806E7045ACD04FF0070E6A
:100F8000AEE74FF0010EABE74FF0020EA8E74FF0CF
:100F9000030EA5E70D4D2F68E44327402F606F68CF
:100FA00027406F60AF682740AF60EF683C40EC605F
:100FB000054F0CF1020457F8245025EA060647F8BD
:100FC000246091E7F0BD704700380140003C0140CB
:100FD0000000024012B909048161704781617047C5
:100FE000002800F0E48170B582B00446036813F075
:100FF000010F3BD0A74B9B6803F00C03042B2CD0B4
:10100000A44B9B6803F00C03082B21D06368B3F555
:10101000803F4FD0B3F5A02F52D09E4B1A6822F4D8
:1010200080321A601A6822F480221A606368002BEA
:1010300050D0FFF7FDFD0546964B1B6813F4003FAB
:1010400014D1FFF7F5FD401B6428F5D90320B3E167
:10105000904B5B6813F4800FD8D08E4B1B6813F451
:10106000003F03D06368002B00F0A381236813F0D6
:10107000020F55D0874B9B6813F00C0F3ED0854B69
:101080009B6803F00C03082B33D0E368002B68D077
:101090000122814B1A60FFF7CBFD05467D4B1B6893
:1010A00013F0020F54D1FFF7C3FD401B0228F5D9FE
:1010B000032081E1774A136843F480331360B5E776
:1010C000744B1A6842F480221A601A6842F4803223
:1010D0001A60ABE7FFF7ACFD05466E4B1B6813F4D7
:1010E000003FC3D0FFF7A4FD401B6428F5D90320BF
:1010F00062E1684B5B6813F4800FC6D1654B1B68D7
:1011000013F0020F04D0E368012B01D0012053E15A
:10111000604A136823F0F803216943EAC1031360AE
:10112000236813F0080F40D0636963B301225B4B5F
:101130001A60FFF77DFD0546564B5B6F13F0020FFB
:1011400033D1FFF775FD401B0228F5D9032033E1A9
:10115000504A136823F0F803216943EAC10313607E
:10116000DEE700224C4B1A60FFF762FD0546494B53
:101170001B6813F0020FD3D0FFF75AFD401B022863
:10118000F5D9032018E10022444B1A60FFF750FD07
:101190000546404B5B6F13F0020F06D0FFF748FD8A
:1011A000401B0228F5D9032006E1236813F0040F41
:1011B00079D0384B1B6C13F0805F33D1002301933F
:1011C000344B1A6C42F080521A641B6C03F080534B
:1011D0000193019B0125324B1B6813F4807F23D0C0
:1011E000A368012B34D0052B38D02A4B1A6F22F07C
:1011F00001021A671A6F22F004021A67A368002B13
:1012000036D0FFF715FD0646224B1B6F13F0020F79
:1012100048D1FFF70DFD801B41F288339842F3D986
:101220000320C9E00025D6E71D4A136843F4807304
:101230001360FFF7FDFC0646194B1B6813F4807F13
:10124000CED1FFF7F5FC801B0228F5D90320B3E0CF
:10125000104A136F43F001031367CFE70D4B1A6F6A
:1012600042F004021A671A6F42F001021A67C5E7DA
:10127000FFF7DEFC0646074B1B6F13F0020F11D081
:10128000FFF7D6FC801B41F288339842F3D9032044
:1012900092E000BF0038024000004742800E474203
:1012A00000700040EDB9A369002B00F08480454A2E
:1012B000926802F00C02082A51D0022B17D00022AB
:1012C000414B1A60FFF7B4FC04463E4B1B6813F019
:1012D000007F42D0FFF7ACFC001B0228F5D90320A9
:1012E0006AE0384A136C23F080531364DBE7002272
:1012F000354B1A60FFF79CFC0546324B1B6813F018
:10130000007F06D0FFF794FC401B0228F5D903208C
:1013100052E0E369226A1343626A43EA8213A26AD3
:101320005208013A43EA0243E26A43EA0263254A69
:1013300053600122244B1A60FFF77AFC0446214BCC
:101340001B6813F0007F06D1FFF772FC001B022818
:10135000F5D9032030E000202EE000202CE0012B06
:101360002CD0184B5B6803F48001E269914201D0F4
:10137000012021E003F03F02216A8A4201D00120CE
:101380001AE0616A47F6C0721A408A4201D0012011
:1013900012E003F44032A16A8A4201D001200BE03E
:1013A00003F07063E26A93420AD0012004E0012056
:1013B0007047012000E0002002B070BD0120FBE773
:1013C0000020F9E70038024060004742F8B5254B9D
:1013D0009B6803F00C03042B41D0082B01D022485A
:1013E000F8BD204B5A6802F03F025B6813F4800F8F
:1013F00012D01C4B5968C1F3881100231B48A1FB74
:101400000001FEF75DFF174B5B68C3F30143013337
:101410005B00B0FBF3F0F8BD124B5B68C3F38813BD
:101420001E4600275C010025E41A65EB0705A901AB
:1014300041EA9461A001001B61EB0501CB0043EA86
:101440005073C400A01943EB07018B0243EA905389
:101450008402204619460023FEF732FFD3E70348F3
:10146000F8BD00BF003802400024F40040787D0140
:10147000002800F09E8070B50446504B1B6803F0B6
:101480000F038B4209D2CBB24C4A1370136803F09E
:101490000F03994201D0012070BD236813F0020FA1
:1014A00017D013F0040F04D0454A936843F4E05377
:1014B0009360236813F0080F04D0414A936843F403
:1014C000604393603E4A936823F0F003A0680343AF
:1014D00093600D46236813F0010F32D06368012B2F
:1014E00021D09A1E012A25D9354A126812F0020F1E
:1014F00061D033498A6822F0030213438B60FFF7FF
:1015000097FB06462E4B9B6803F00C036268B3EB17
:10151000820F16D0FFF78CFB801B41F28833984274
:10152000F0D9032070BD264A126812F4003FE0D1C2
:10153000012070BD224A126812F0007FD9D101202B
:1015400070BD1E4B1B6803F00F039D4209D2EAB227
:101550001A4B1A701B6803F00F039D4201D0012043
:1015600070BD236813F0040F06D0154A936823F466
:10157000E053E1680B439360236813F0080F07D032
:101580000F4A936823F46043216943EAC1039360DF
:10159000FFF71CFF0A4B9B68C3F30313094AD35C94
:1015A000D840094B1860094B1868FFF7F5FA00207E
:1015B00070BD01207047012070BD00BF003C02409B
:1015C00000380240B44200081C0000202400002023
:1015D000014B1868704700BF1C00002008B5FFF7DA
:1015E000F7FF044B9B68C3F38223034AD35CD840C4
:1015F00008BD00BF00380240C442000808B5FFF72C
:10160000E7FF044B9B68C3F34233034AD35CD840E3
:1016100008BD00BF00380240C44200080268D36819
:1016200043F00103D3600268936803F00703062BBD
:1016300003D0136843F001031360002070470000DB
:10164000F8B504460268136923F44053C1680B439C
:10165000136183680269134342691343C2691343E8
:101660000168CA6822F4164222F00C021343CB60D0
:101670000268536923F4407381690B435361C36962
:10168000B3F5004F34D00368604A934200F0928073
:1016900002F58062934200F08D80FFF79FFF25687E
:1016A0000021061841EB010736184F41FB0043EAC1
:1016B0005673F20016461F4663689A009B0F801906
:1016C0007941FEF7FDFD524CA4FB00325109642222
:1016D00002FB110213013233A4FB03235B0903F065
:1016E000F00202EB011203F00F031344AB60F8BDEC
:1016F0000368464A934230D002F5806293422CD070
:10170000FFF76CFF25680021061841EB010736182A
:101710004F41FB0043EA5673F20016461F466268CB
:10172000002392185B4180197941FEF7C9FD384CBE
:10173000A4FB00325109642202FB1102D3003233B0
:10174000A4FB03235B095A0002F4F87202EB0112B6
:1017500003F007031344AB60F8BDFFF74FFF2568A4
:101760000021061841EB010736184F41FB0043EA00
:101770005673F20016461F466268002392185B41BA
:1017800080197941FEF79CFD214CA4FB00325109E0
:10179000642202FB1102D3003233A4FB03235B0952
:1017A0005A0002F4F87202EB011203F0070313442B
:1017B000AB60F8BDFFF722FF25680021061841EB5A
:1017C000010736184F41FB0043EA5673F2001646F4
:1017D0001F4663689A009B0F80197941FEF770FDE0
:1017E0000B4CA4FB00325109642202FB11021301CD
:1017F0003233A4FB03235B0903F0F00202EB011276
:1018000003F00F031344AB60F8BD00BF00100140AC
:101810001F85EB512DE9F04105460F4616469846C7
:10182000069C2B681B6837EA03030CBF01230023C7
:10183000B3421ED1B4F1FF3FF3D02CB1FFF7F8F95A
:10184000A0EB08008442ECD22A68D36823F4D0735A
:10185000D3602A68536923F001035361202385F87C
:10186000393085F83A30002385F838300320BDE858
:10187000F0810020BDE8F08158B310B5044690F81F
:1018800039300BB3242384F839302268D36823F429
:101890000053D3602046FFF7D3FE2268136923F478
:1018A000904313612268536923F02A03536122682D
:1018B000D36843F40053D3600020E063202384F80E
:1018C000393084F83A3010BD80F83830FFF798F896
:1018D000D8E701207047A0B110B50446242380F852
:1018E00039300268D36823F40053D360FFF7C0F89F
:1018F0000020E06384F8390084F83A0084F8380066
:1019000010BD012070472DE9F04383B01E4690F8CA
:101910003930DBB2202B04D00223184603B0BDE8D7
:10192000F08304460D469046002956D0002A56D032
:1019300090F83830012B01D10223EEE7012380F823
:1019400038304FF00009C0F83C90212380F839303E
:10195000FFF76EF90746A4F82480A4F8268084F8DF
:10196000389010E000963B46002280212046FFF789
:1019700051FF002835D122682B88C3F30803536038
:101980002369CBB90235E38C9BB2BBB1E38C9BB22C
:10199000013B9BB2E384A368B3F5805FE2D000967D
:1019A0003B46002280212046FFF734FFD8B9236848
:1019B0002A785A600135E6E70135E4E700963B46B0
:1019C000002240212046FFF725FF034608B10323EC
:1019D000A3E7202284F839209FE701239DE7012314
:1019E0009BE7032399E7032397E72DE9F04383B0AF
:1019F0001E4690F83A30DBB2202B03D0022003B011
:101A0000BDE8F08304460D46904600295AD0002ACE
:101A10005AD090F83830012B01D10220EFE7012392
:101A200080F838304FF00009C0F83C90222380F84D
:101A30003A30FFF7FDF80746A4F82C80A4F82E8072
:101A400084F838901DE000963B4600222021204675
:101A5000FFF7E0FE002839D1236933B923685B68BA
:101A6000C3F3080325F8023B0BE023685B68DBB295
:101A700025F8013B05E023685B6803F07F032B70CA
:101A80000135E38D9BB2C3B1E38D9BB2013B9BB2A9
:101A9000E385A368B3F5805FD5D000963B4600226E
:101AA00020212046FFF7B6FE90B92369002BE2D132
:101AB00023685B682B700135E3E7202384F83A3014
:101AC00000209CE701209AE7012098E7032096E791
:101AD000032094E790F83A30DBB2202B01D00220AB
:101AE0007047F9B102B390F83830012B1ED08162F3
:101AF0008285C2850023C363222280F83A2080F8C1
:101B000038300168CA6842F48072CA6001684A6964
:101B100042F001024A610168CA6842F02002CA60CC
:101B20001846704701207047012070470220704717
:101B300008B50E4B0E4A1A60586000229A60DA60AF
:101B40001A614FF4807199610C215961DA6118466C
:101B5000FFF7C1FE20B90548FFF78EFE18B908BD92
:101B600000F06AFCF7E700F067FCF8E7EC0D0020F6
:101B700000100140A0B110B5044611B9022010BDFB
:101B800000BF084B1B7813F0010FF9D1054B5B68C0
:101B9000002BF5D1204600F023FC00F0F9FB10BD2E
:101BA00002207047CC0B0020A8B110B5044611B933
:101BB000022010BD00BF094B1B7813F0010FF9D1B3
:101BC000064B5B68002BF5D12046012300F008FC92
:101BD00000F0DEFB10BD0220704700BFCC0B0020E0
:101BE00038B51F4B5B7813F0040F02D00724204652
:101BF00038BD154604461A4A43F00403537029B110
:101C0000084600F027FD08B10924F0E72CB1204672
:101C100000F004FD30B10824E9E7124B586800F0E9
:101C2000FDFCF7E72946104800F0DAFC08B10A2469
:101C3000DDE701210D4800F0D3FC044608B10A2479
:101C4000D5E700F03FFD012000F058FD044B1A7865
:101C500042F004021A705A786FF382025A70C6E793
:101C6000300E00206C18002020430008304300088C
:101C700010B586B0044600210091134B1A6B42F058
:101C800004021A631B6B03F004030093009B4FF4E0
:101C9000807301930123029303910323049301A909
:101CA0000A48FFF739F844B900224FF48071074819
:101CB000FFF790F9002006B010BD01224FF48071AB
:101CC0000248FFF787F9F5E70038024000080240B4
:101CD00070B50546AC4801F05DF8AC4801F0E2F89B
:101CE000AB4801F0DFF8AB4801F0DCF800F0B0FBE6
:101CF000A94801F0D7F8A94B1B68986800F08AFE44
:101D0000A74801F0CFF80120FFF7B2FFA54801F086
:101D1000C9F800F0BBFAA44801F0C4F800F0B6FC22
:101D2000044608B1204670BD696BA04800F058FC1D
:101D300004460028F6D100F075FB9D4B9D4A1068C3
:101D4000186092889A801846FEF760FA80B200F018
:101D5000B1FB20B900F01CFB04460028E2D100F0E2
:101D600095FA0121944800F03BFC04460028D9D1A3
:101D7000296B29B18D4800F033FC04460028D1D1ED
:101D800000218E4800F02CFC04460028CAD12B7894
:101D9000002B00F0BD80012B00F0CB806B78012B75
:101DA00000F03481002B00F0D580022B00F05F8121
:101DB000AB78032B40F28C81E978022940F29381C1
:101DC000696829B17E4800F0EDFB04460028A9D1DE
:101DD000A96829B17B4800F0E5FB04460028A1D1A1
:101DE000E96829B1784800F0DDFB0446002899D164
:101DF000296929B1754800F0D5FB0446002891D126
:101E0000696929B1724800F0CDFB0446002889D1E8
:101E1000E96929B16F4800F0C5FB0446002881D16B
:101E2000296A31B16C4800F0BDFB044600287FF4FC
:101E300079AF6B6A002B40F05E81A96A002940F0FF
:101E4000668195F82C1031B1644800F0C9FB044656
:101E500000287FF467AF00F0E5FA554C2A7E604910
:101E6000204601F0E5F82046FEF7D0F980B200F0F8
:101E700021FB28B900F08CFA044600287FF452AF09
:101E800000F0D0FA4A4E574C0FCC30607160B2600F
:101E9000F36003CC30617161237833763046FEF70E
:101EA000B5F980B200F006FB28B900F071FA0446DB
:101EB00000287FF437AF00F0B5FA3D4B3D4A10687B
:101EC000186092889A801846FEF7A0F980B200F058
:101ED000F1FA044628B900F05BFA044600287FF4C2
:101EE00021AF286B18B1FFF723FE00F02BFA00F0AA
:101EF000CDF93D4800F0D6FF0020FFF7B9FE3B4882
:101F000000F0D0FF254B1B68986800F083FD09E7BF
:101F10000021374800F064FB044600287FF402AF3C
:101F20003449354800F03EFB044600283FF436AF04
:101F3000F8E601212E4800F053FB044600287FF408
:101F4000F1AE2E492C4800F02DFB044600283FF44A
:101F500025AFE7E600212A4800F042FB04460028AE
:101F60007FF4E0AE0021274800F03AFB0446002849
:101F70007FF4D8AE0021244800F032FB044600284C
:101F80003FF416AFCEE600BF5C4300087443000880
:101F900090430008AC430008C04300082C00002018
:101FA000DC430008EC430008F84300081C44000828
:101FB000A01800202C4400083444000830430008D6
:101FC000903F000808430008E8420008F04200087B
:101FD000E4440008F0440008004500083C450008BF
:101FE00050450008A44500086045000888450008E1
:101FF0004444000854440008604400087444000845
:10200000804400084046000850460008012144482A
:1020100000F0E6FA044600287FF484AE0B21414824
:1020200000F0DEFA044600287FF47CAE00213E4832
:1020300000F0D6FA044600287FF474AE00213B4835
:1020400000F0CEFA044600287FF46CAE0021384838
:1020500000F0C6FA044600287FF464AE002135483B
:1020600000F0BEFA044600283FF4A2AE5AE6012171
:102070002B4800F0B5FA044600287FF453AE0C213B
:10208000284800F0ADFA044600287FF44BAE0A2140
:10209000254800F0A5FA044600287FF443AE01214C
:1020A000224800F09DFA044600287FF43BAE01214F
:1020B0001F4800F095FA044600287FF433AE002153
:1020C0001C4800F08DFA044600283FF471AE29E662
:1020D00003EB43035900184800F082FA0446002835
:1020E0003FF46AAE1EE6154800F07AFA044600286E
:1020F0003FF466AE16E64FF47A7101FB03F1104827
:1021000000F06EFA044600283FF497AE0AE60D4848
:1021100000F066FA044600283FF493AE02E600BFE2
:102120008044000890440008A8440008BC4400080B
:102130004046000850460008D444000814430008F4
:10214000104500082C450008F8B5064600F06AF96D
:10215000114C124A1249204600F06AFF2046FEF751
:1021600055F880B200F0A6F9044608B12046F8BD43
:1021700000F00EF904460B4D2846FEF747F80746D7
:1021800002462946304600F045FD3A4600212846E1
:1021900000F04BFDEAE700BFA0180020903F0008C8
:1021A0004C4300084A0E00201B4B1A7842F00802EC
:1021B0001A701A7842F080021A701A786FF3861239
:1021C0001A7000225A749A745A60597862F30001A6
:1021D0005970FF2199750221D97419755A75DA6001
:1021E0000E4B197841F003011970597962F34511CA
:1021F0005971197A987940F004009871D87962F38E
:10220000C710D87101F0F80162F3C3011972597A4D
:1022100062F3820159727047CC0B0020300E00200F
:1022200008B5174BDA796FF3C502DA710021C3F8EC
:10223000AC10C3F8A010C3F8A810C3F8B810C3F8C6
:10224000B010A3F89810C3F8BC10C3F8C410C3F8BA
:10225000C8105973C3F8CC10A3F894104FF48052EF
:10226000C3F8E4200522A3F89A20064B4FF0013270
:102270001A605A604FF40062034800F0D6FC08BDB3
:102280003C0E0020641800205C100020F0B583B0E4
:1022900000260096244B1A6B42F004021A631A6B54
:1022A00002F004020092009A01961A6B42F00102B9
:1022B0001A631B6B03F001030193019B1B494FF44D
:1022C00080550D6301274F638F630323CB63184C45
:1022D00030312046FEF720FD164B1E70FF22164BB4
:1022E0009A75324629462046FEF774FEC820FEF74E
:1022F000A5FC3A4629462046FEF76CFE3220FEF742
:102300009DFC29462046FEF7E1FD0C4800F0CAFD81
:1023100000E000BF084B9B7DDBB20E2BF9D10848D3
:1023200000F0C0FD03B0F0BD00380240780B002083
:102330000008024040060020CC0B00202047000887
:102340003C47000808B500224FF480510748FEF7CB
:1023500041FE012206490748FFF7BCFB20B9064AA7
:10236000537843F01003537008BD00BF00000240D3
:102370008A0E0020EC0D0020300E0020034B0022BE
:102380009A601A7842F004021A707047CC0B002051
:1023900000E000BF064B5B7813F0010FF9D0044A50
:1023A00053786FF300035370024B93F8E8007047C3
:1023B000CC0B00203C0E002000E000BF074B1B7838
:1023C00013F0010FF9D1054B1B7813F0020F04D065
:1023D000024B5B7813F0100FEFD07047CC0B00204E
:1023E000F8B507460E4615461C46FFF7E5FF0B4BB2
:1023F0001F665E66C3F8C050DC720948062380F889
:10240000263072B600F1200494E80600143000F083
:10241000B5F962B6204600F0F8F9F8BD3C0E002090
:10242000780B002008B54FF400620021014800F04D
:10243000FCFB08BDA018002008B5002000F0FCF946
:1024400008BD08B5002000F0F7F9FFF77BFF08BDD5
:1024500038B5134D4FF48061284600F0E3F9114A76
:1024600053786FF34303537000240F4B1C70FFF736
:1024700069FFFFF7D5FEFFF797FE322105F1140043
:1024800000F066F9FFF77AFF084B1C605C600848B3
:10249000FFF7C4F800B938BDFFF7D3FFFBE700BF73
:1024A000780B0020CC0B002040060020B80F002045
:1024B000A422002008B51F4B1B7813F0100F06D183
:1024C0001C4B1B7813F0400F01D1052008BD1A4B9F
:1024D0005B7813F0010F01D0102008BD164B93F963
:1024E0000030002B24DB144A537843F00803537068
:1024F00020B9124800F04EFC1F2008BD4FF47A733B
:1025000002460F490F48FFF7FEF948B90A4A5378C7
:102510006FF3C303537013F0100F05D0002008BDF4
:10252000FFF78FFF0F2008BDFFF70CFF002008BD4D
:10253000102008BDCC0B0020300E00200047000802
:10254000A0180020EC0D0020F8B505460E46FFF758
:1025500069FF114C2A461149204600F069FD2046CA
:10256000FDF754FE80B2FFF7A5FF044608B12046F0
:10257000F8BDFFF70DFF0446094D2846FDF746FE5E
:10258000074602462946304600F044FB3A46002101
:10259000284600F04AFBEAE7A01800207C46000825
:1025A0004A0E002070B505460E46FFF73BFF0A4C69
:1025B00033462A460949204600F03AFD2046FDF7F9
:1025C00025FE80B2FFF776FF034608B1184670BDBE
:1025D000FFF7DEFE0346F9E7A0180020A446000836
:1025E00070B505460E46FFF71DFF0A4C33462A46D6
:1025F0000949204600F01CFD2046FDF707FE80B289
:10260000FFF758FF034608B1184670BDFFF7C0FE3C
:102610000346F9E7A0180020B846000838B505467B
:10262000FFF700FF094C2A460949204600F000FD4B
:102630002046FDF7EBFD80B2FFF73CFF034608B1F3
:10264000184638BDFFF7A4FE0346F9E7A01800209E
:10265000CC46000838B50546FFF7E4FE094C2A468B
:102660000949204600F0E4FC2046FDF7CFFD80B28A
:10267000FFF720FF034608B1184638BDFFF788FE74
:102680000346F9E7A0180020E046000808B5FFF768
:10269000C9FE0A4B0A4A1068186092889A80184648
:1026A000FDF7B4FD80B2FFF705FF034608B11846F9
:1026B00008BDFFF76DFE0346F9E700BFA018002034
:1026C0009C46000808B5FFF7ADFE0A4B0A4A1068A1
:1026D000186092889A801846FDF798FD80B2FFF73F
:1026E000E9FE034608B1184608BDFFF751FE034650
:1026F000F9E700BFA01800202C44000838B50546B3
:10270000FFF790FE0E4C2A460E49204600F090FC42
:10271000FF220D4B9A752046FDF778FD80B2FFF73A
:10272000C9FE024608B1104638BD0021074B19709A
:1027300000E000BF044B9B7DDBB20E2BF9D1F2E72A
:10274000A018002070460008CC0B0020E20B0020EF
:10275000C90089B2818000230380C3804380014B7C
:1027600083607047B00000208388C08880B2C3F3C4
:10277000CC03984214BF00200120704730B583B0CD
:10278000044602AB03E90600FFF7EEFF00283AD14A
:102790006288C2F3CC02A168D3001944BDF80400DA
:1027A0008880A16819449DF802008870A1681944C6
:1027B0009DF801004D7860F303054D70A168194440
:1027C00000094D7860F307154D70A1689DF8000071
:1027D00001F83200A26813449DF806209A71E3883C
:1027E0009BB201339BB2E38063889BB208339BB2F8
:1027F0006380A3889AB2638899B291FBF2F302FBDB
:1028000013139BB2638003B030BD002383808371B8
:102810004278092363F303024270837063230370D9
:1028200070470000816000230360C3604360014B78
:10283000036170474002002008B501222021034BAC
:1028400053F82000FEF7C6FB08BD00BF280000209B
:10285000DFF834D0002103E00C4B5B5843500431C7
:102860000B480C4B42189A42F6D30B4A02E0002365
:1028700042F8043B094B9A42F9D3FEF70FF900F0F6
:10288000A5F9FDF789FF704700800120EC4700089B
:10289000000000209000002090000020E82200208E
:1028A000FEE70000014B1868704700BF2C000020B5
:1028B0008A892DE9F041054610070C465AD44B6829
:1028C000002B05DC0B6C002B02DC0020BDE8F08146
:1028D000E66A002EF9D0002312F480522F682B6094
:1028E00033D0606DA3895A0705D56368C01A636B3E
:1028F0000BB1236CC01A00230246E66A216A2846FF
:10290000B047431CA38906D129681D294BD82B4AFF
:10291000CA40D60747D500226260D90422692260E6
:1029200004D5421C01D12B6803B96065616B2F602F
:102930000029CAD004F14403994202D0284600F08D
:102940007DF900206063BDE8F081216A01232846FB
:10295000B047411CC6D12B68002BC3D01D2B01D022
:10296000162B01D12F60B0E7A38943F04003A38168
:10297000BDE8F0810F69002FA7D093070E6808BF4C
:102980004B690F6018BF0023A6EB07088B60B8F1F6
:10299000000F9ADD43463A46216AA66A2846B047A8
:1029A000002807DCA38943F04003A3814FF0FF30E8
:1029B000BDE8F0810744A8EB0008E8E701004020EB
:1029C00038B50B6905460C46DBB118B183690BB904
:1029D00000F072F80C4B9C4209D16C68B4F90C30D1
:1029E0007BB121462846BDE83840FFF761BF074B61
:1029F0009C4201D1AC68F1E7054B9C4208BFEC68F2
:102A0000ECE7002038BD00BF644700088447000899
:102A100044470008014620B9044B0549186800F0F6
:102A2000B7B8044B1868FFF7CBBF00BFA447000836
:102A3000C12900082C000020014900F0A9B800BFFE
:102A4000C1290008002310B5044603604360836079
:102A500081814366C2810361436183611946082213
:102A60005C3000F0E2F8054B6362054BA362054B56
:102A7000E362054B2462236310BD00BF7930000878
:102A80009B300008D3300008F730000870B54A1EAC
:102A9000682555430E4605F1740100F01DF9044602
:102AA00040B1002180E842000C30A06005F16802CE
:102AB00000F0BBF8204670BD836910B5044633BBF7
:102AC0008364C3640365124B124A1B688262984296
:102AD00004BF0123836100F01FF86060204600F00E
:102AE0001BF8A060204600F017F80022E0600421E7
:102AF0006068FFF7A7FF01220921A068FFF7A2FF86
:102B000002221221E068FFF79DFF0123A36110BD9F
:102B1000A4470008392A0008F8B51C4B1E68B369A1
:102B2000074613B93046FFF7C7FF4836B4687368E5
:102B3000013B03D5336833B13668F7E7B4F90C507D
:102B40006DB16834F4E704213846FFF79FFF306029
:102B50000028F1D10C233B6004462046F8BD4FF617
:102B6000FF73E3810123A38165662560A56065602D
:102B700025616561A5610822294604F15C0000F029
:102B800054F86563A563A564E564E6E7A447000817
:102B90002DE9F8438046894600F14804002614B91F
:102BA0003046BDE8F883A5686768013F01D5246811
:102BB000F5E7AB89012B07D9B5F90E30013303D006
:102BC00029464046C84706436835EEE770B50D4EC6
:102BD0000D4CA41BA4100025A54209D10B4E0C4C92
:102BE00001F0D8F8A41BA4100025A54205D170BDA2
:102BF00056F8253098470135EEE756F825309847C6
:102C00000135F2E7E4470008E4470008E44700081C
:102C1000E847000810B5431E0A44914200D110BD98
:102C200011F8014B03F8014FF7E7024403469342C2
:102C300000D1704703F8011BF9E7000038B50546DD
:102C4000002945D051F8043C0C1F002BB8BFE418F4
:102C500000F0B6FB1F4A1368104633B96360146076
:102C60002846BDE8384000F0ACBBA3420CD921682F
:102C70006218934204BF1A685B68636004BF52180D
:102C800022600460ECE713465A680AB1A242FAD9FE
:102C900019685818A0420BD1206801445818824284
:102CA0001960DDD1106852685A6001441960D7E795
:102CB00002D90C232B60D3E7206821188A4204BF75
:102CC00011685268626004BF091821605C60C7E740
:102CD00038BD00BF4406002070B5CD1C25F00305AB
:102CE00008350C2D38BF0C25002D064601DBA94206
:102CF00003D90C233360002070BD00F061FB234A30
:102D00001468214691B9224C23681BB9304600F063
:102D1000D1F820602946304600F0CCF8431C26D17B
:102D20000C233360304600F04CFBE4E70B685B1B80
:102D30001AD40B2B0FD90B60CD50CC18304600F0B5
:102D400040FB04F10B00231D20F00700C31A1BD029
:102D50005A42E25070BD8C420DBF63684B6863609D
:102D6000136018BF0C46E9E70C464968CAE7C41C63
:102D700024F00304A04205D0211A304600F09AF84E
:102D80000130CDD02560D9E770BD00BF44060020DA
:102D9000480600200FB40A4B13B51C6824B1A36980
:102DA00013B92046FFF788FE05AB049AA16801938A
:102DB000204600F081FC02B0BDE8104004B070472E
:102DC0002C00002038B5084B1C68054624B1A369C7
:102DD00013B92046FFF770FEA26829462046BDE8D9
:102DE000384000F015BF00BF2C00002070B50E4623
:102DF000054618B183690BB9FFF75EFEAB69AC6895
:102E000013B92846FFF758FE234B9C4217D16C6834
:102E1000A3891B071DD52369DBB1013EA36816F802
:102E2000011F013BA360E9B9002B2EDA22460A21DB
:102E3000284600F065F9013011D00A2070BD174B0B
:102E40009C4201D1AC68E3E7154B9C4208BFEC689B
:102E5000DEE72146284600F0B7F90028DDD04FF024
:102E6000FF3070BD002B04DAA269934206DB0A2909
:102E700004D023685A1C22601970CFE722462846E6
:102E800000F03EF90130C9D1E9E723680A205A1C55
:102E90002260187070BD00BF6447000884470008B6
:102EA00044470008024B01461868FFF79FBF00BF68
:102EB0002C00002038B5064C002305460846236048
:102EC00000F05AFF431C02D1236803B12B6038BDC8
:102ED000E42200202DE9F7431D46514B1E680446AD
:102EE0000F46904626B1B36913B93046FFF7E4FDAB
:102EF0004C4B9C4252D17468B8F1020F06D0B8F125
:102F0000010F00F28980002DC0F2868021463046F4
:102F1000FFF756FD616B41B104F14403994202D0C1
:102F20003046FFF78BFE002363630023A3616360D9
:102F3000A3891B0603D521693046FFF77FFEA389CD
:102F400023F44A6323F00303B8F1020FA3815DD099
:102F500001AB6A462146304600F0C6F9A389184302
:102F6000A0812DBB009D284600F022FA07460028CC
:102F70004ED1DDF80090A9453CD14FF0FF30A38938
:102F800043F00203A3810023A36004F147032360FD
:102F900023610123636103B0BDE8F083224B9C42AF
:102FA00001D1B468A8E7214B9C4208BFF468A3E7AD
:102FB000002FD8D0B36913B93046FFF77DFDB8F1C3
:102FC000010F08BFA389276004BF43F00103A38159
:102FD000A389276113F0080065611BD013F001007D
:102FE00018BF6D424FF000031DBFA360A5611846D6
:102FF000A560D0E7484600F0DBF907460028BCD0C2
:10300000A38943F08003A3814D46D3E70020B6E7B0
:10301000A946F5E7A060BEE74FF0FF30BBE700BF71
:103020002C0000206447000884470008444700083B
:103030000EB400B59CB04FF402711DABADF8141086
:10304000029006906FF000410A48049107914FF6F4
:10305000FF7153F8042BADF816100068019302A914
:1030600000F00CFA029B00221A701CB05DF804EB11
:1030700003B070472C00002010B50C46B1F90E10BB
:1030800000F0FCFD0028ABBF636DA3891B1823F47F
:103090008053ACBF6365A38110BD2DE9F0411F468D
:1030A0008B89DB0505460C46164605D50223002212
:1030B000B1F90E1000F006F9A389B4F90E1023F44B
:1030C0008053A38132463B462846BDE8F04100F0DC
:1030D00069B810B50C46B1F90E1000F0F3F8431CB6
:1030E000A38915BF606523F4805343F48053A38103
:1030F00018BFA38110BDB1F90E1000F0D3B80000C5
:10310000F8B50E461446054618B183690BB9FFF7AA
:10311000D3FC214B9C422AD16C68A369A360A3898C
:103120001A072ED5236963B323692068C01A63691F
:10313000F6B29842374604DB21462846FFF740FCAA
:1031400028BBA368013BA36023685A1C22601E7041
:1031500063690130984204D0A389DB0719D50A2E90
:1031600017D121462846FFF72BFC90B10FE00B4BFF
:103170009C4201D1AC68D0E7094B9C4208BFEC6887
:10318000CBE72146284600F01FF80028CCD04FF0AE
:10319000FF373846F8BD00BF644700088447000881
:1031A0004447000838B5074C05460846114600223A
:1031B00022601A46FDF79CFC431C02D1236803B130
:1031C0002B6038BDE4220020324B70B51D680646E6
:1031D0000C4625B1AB6913B92846FFF76DFC2E4BA1
:1031E0009C420FD16C68B4F90C309AB215072CD4FC
:1031F000D00611D40922326043F04003A3814FF07E
:10320000FF3070BD254B9C4201D1AC68EBE7244BED
:103210009C4208BFEC68E6E7510712D5616B41B1EB
:1032200004F14403994202D03046FFF707FD002322
:103230006363A38923F02403A381002363602369CC
:103240002360A38943F00803A38123694BB9A389B1
:1032500003F42073B3F5007F03D02146304600F01D
:1032600067F8A28912F001030CD00023A360636900
:103270005B42A361236953B9B4F90C3013F08000A9
:10328000BAD170BD920758BF6369A360F2E700200E
:10329000F7E700BF2C0000206447000884470008BF
:1032A0004447000838B5064C00230546084623600D
:1032B000FDF738FC431C02D1236803B12B6038BDF5
:1032C000E422002038B5074C054608461146002286
:1032D00022601A46FDF732FC431C02D1236803B179
:1032E0002B6038BDE422002070B50E46B1F90E10F7
:1032F000002990B014461D4607DA00232B60B389DD
:103300001A0610D44FF480630EE001AA00F0C8FC46
:103310000028F2DB029A02F47042A2F500535A42EE
:103320005A412A60EEE740230020236010B070BDB0
:103330008B8973B59D0706460C4607D504F14703F4
:10334000236023610123636102B070BD01AB6A4653
:10335000FFF7CAFF009905463046FFF7BDFC48B9A4
:10336000B4F90C309A05EFD423F0030343F00203C1
:10337000A381E3E70D4BB362A389206043F0800390
:10338000A381009B6361019B20615BB1B4F90E10C6
:10339000304600F097FC28B1A38923F0030343F0E3
:1033A0000103A381A3891D43A581CDE7392A000824
:1033B000024B01461868FFF78FBC00BF2C000020AD
:1033C000704770472DE9F0478E689E4282460C4652
:1033D0009146984635D88A8912F4906F31D0256885
:1033E00009696F1A6569022305EB450595FBF3F53D
:1033F00008F101033B449D4238BF1D46530531D5BA
:103400002946FFF769FC064650B90C23CAF800307C
:10341000A38943F04003A3814FF0FF30BDE8F0875C
:103420003A462169FFF7F6FBA38923F4906343F042
:103430008003A381266165613E44ED1B2660A56083
:103440004646464528BF464632464946206800F073
:1034500049FCA3689B1BA36023681E4426600020D0
:10346000BDE8F0872A4600F057FC06460028E1D167
:1034700021695046FFF7E2FBC7E700002DE9F04F56
:103480009DB0804603938B891C060D4616460FD5CA
:103490000B696BB94021FFF71FFC2860286128B930
:1034A0000C23C8F800304FF0FF30C5E040236B61BB
:1034B0000023099320238DF8293030238DF82A30FA
:1034C0004FF0010B37463C4614F8013B002B3CD132
:1034D000B7EB060A0BD05346324629464046FFF763
:1034E00071FF013000F0A380099B534409933B789E
:1034F000002B00F09C8000234FF0FF3204930793D1
:10350000059206938DF853301A930522217850487E
:10351000FCF786FE671C049BD8B9D90644BF20225D
:103520008DF853201A0744BF2B228DF853202278A0
:103530002A2A16D0079A00210A20274601343B7810
:10354000303B092B51D9C9B111E0252BC0D02746FA
:10355000B9E73F4A801A0BFA00F0184304903C4642
:10356000D3E7039A111D12680391002A01DB079229
:1035700004E0524243F00203079204933B782E2B5F
:103580000ED17B782A2B07F1010132D1039B1A1D42
:103590001B680392002BB8BF4FF0FF33023705932F
:1035A0002C4C397803222046FCF73AFE38B14023F0
:1035B000001B03FA00F0049B03430493013739789E
:1035C00025488DF8281006227E1CFCF729FE0028CD
:1035D00035D0224BFBB9039B073323F00703083395
:1035E0000393099B4B4409936CE700FB02320121D2
:1035F000A3E70023059318460A240F4601313A78C1
:10360000303A092A03D9002BCAD00590C8E704FB39
:1036100000200123F1E703AB00932A46104B04A9D5
:103620004046AFF30080B0F1FF3F8146D9D1AB896E
:103630005B063FF538AF09981DB0BDE8F08F03ABCE
:1036400000932A46064B04A9404600F0C1F9EAE778
:10365000A8470008AE470008B24700080000000075
:10366000C53300089368013B002B10B4936009DA5E
:103670009469A34202DBCBB20A2B03D15DF8044B61
:10368000FFF73EBD1368581C10601970C8B25DF892
:10369000044B7047F8B506460F461446D518AC42A1
:1036A00001D1002007E03A4614F8011B3046FFF72D
:1036B000D9FF431CF3D1F8BD2DE9F04F9DB00C4666
:1036C00017460393064618B183690BB9FFF7F4F95F
:1036D0007C4B9C4257D17468A38918075DD5236938
:1036E000002B5AD00023099320238DF82930302352
:1036F0008DF82A304FF0010BB846454615F8013BCE
:10370000002B55D1B8EB070A0BD053463A46214659
:103710003046FFF7BFFF013000F0C480099B5344DF
:10372000099398F80030002B00F0BC8000234FF084
:10373000FF3204930793059206938DF853301A9342
:10374000052229786048FCF76BFD05F10108049B10
:10375000002831D1D90644BF20228DF853201A0702
:1037600044BF2B228DF853202A782A2A2CD0079A7E
:1037700000210A20A846013598F80030303B092B7B
:103780006DD971B326E0514B9C4201D1B468A3E7D7
:103790004F4B9C4208BFF4689EE721463046FFF736
:1037A00013FD00289ED04FF0FF301DB0BDE8F08F14
:1037B000252BA7D0A846A0E7434A801A0BFA00F0B1
:1037C000184304904546BBE7039A111D1268039104
:1037D000002A01DB079204E0524243F00203079201
:1037E000049398F800302E2B10D198F801302A2B32
:1037F00008F1010137D1039B1A1D1B680392002BAE
:10380000B8BF4FF0FF3308F102080593314D98F827
:10381000001003222846FCF703FD40B14023401B63
:1038200003FA00F0049B0343049308F1010898F89D
:10383000001029488DF82810062208F10107FCF72E
:10384000EFFC002834D0254B03BB039B073323F048
:10385000070308330393099B4B4409934CE700FB90
:103860000232012186E70023059318460A2588467F
:10387000013198F80020303A092A03D9002BC5D02D
:103880000590C3E705FB00200123F0E703AB00939D
:103890002246134B04A93046AFF30080B0F1FF3F3E
:1038A0008146D8D1A3895B063FF57DAF09987CE7B7
:1038B00003AB009322460A4B04A9304600F088F877
:1038C000ECE700BF64470008A847000884470008E9
:1038D00044470008AE470008B24700080000000057
:1038E000953600082DE9F04791461F468A680B6916
:1038F000DDF820809342B8BF1346C9F8003091F834
:10390000432006460C4612B10133C9F80030236843
:10391000990642BFD9F800300233C9F80030256853
:1039200015F0060507D104F1190AE368D9F800205B
:103930009B1A9D4229DB94F843302268003318BF5C
:10394000012392062ED404F1430239463046C04783
:10395000013021D02368E568D9F8002003F0060380
:10396000042B08BFAD1AA36822690CBF25EAE575D0
:1039700000259342C4BF9B1AED184FF000091A347A
:103980004D451BD10020BDE8F08701235246394642
:103990003046C047013003D14FF0FF30BDE8F0871B
:1039A0000135C2E7E1185A1C302081F84300224457
:1039B00094F8451082F843100233C4E701232246ED
:1039C00039463046C0470130E6D009F10109D7E752
:1039D0002DE9F04317460A7E85B06E2A98460646C2
:1039E0000C460C9B01F1430E00F0BC801AD8632AF0
:1039F0002ED00AD8002A00F0C880582A00F08A8009
:103A000004F1420584F842202AE0642A01D0692AA0
:103A1000F6D121681A6811F0800F23D0111D1960AA
:103A2000136827E0732A00F0B48008D86F2A2AD0E0
:103A3000702AE5D10A6842F020020A6003E0752A84
:103A400021D0782ADCD1782284F845206E4964E0C0
:103A50001A6801F14205111D1960136884F842309B
:103A60000123A3E011F0400F02F104011960D7D047
:103A7000B2F90030002B03DA2D225B4284F8432098
:103A800062490A2217E02068196810F0800F03D0FD
:103A9000081D18600B6806E010F0400F01F10400EB
:103AA0001860F7D00B8859496F2A14BF0A220822E0
:103AB000002084F843006568A560002DC0F29C805A
:103AC000206820F004002060002B3FD1002D40F042
:103AD00095807546082A0BD12368DA0708D5236933
:103AE00062689A42DEBF302305F8013C05F1FF35DC
:103AF000AEEB05032361CDF800803B4603AA2146C7
:103B00003046FFF7EFFE013055D14FF0FF3005B0E2
:103B1000BDE8F08381F845203C492268186812F01E
:103B2000800F00F104051D6001D0036802E0550616
:103B3000FBD50388D00744BF42F0200222601BB9A6
:103B4000226822F0200222601022B1E77546B3FB02
:103B5000F2F002FB1033CB5C05F8013D0346002870
:103B6000F5D1B7E708681A68496910F0800F04D0EA
:103B7000101D18601368196007E010F0400F02F183
:103B8000040018601368F6D019800023236175467D
:103B9000B1E71A68111D196015686268002128468E
:103BA000FCF73EFB08B1401B6060636823610023A3
:103BB00084F843309FE723692A4639463046C04798
:103BC0000130A2D023689B0707D5002504F119090D
:103BD000E368039A9B1A9D4205DBE068039B9842C9
:103BE000B8BF184693E701234A4639463046C047D6
:103BF00001308AD00135EBE7002BA7D10B7884F890
:103C0000423004F1420565E7CA470008B947000899
:103C100070B50D461446064618B183690BB9FEF718
:103C20004BFF134B9C4212D17468A368013B002BDD
:103C3000A36016DAA269934202DBEBB20A2B10D121
:103C4000224629463046BDE87040FFF759BA094B75
:103C50009C4201D1B468E8E7074B9C4208BFF46876
:103C6000E3E723685A1C22601D70E8B270BD00BFF4
:103C700064470008844700084447000838B5074CEB
:103C8000054608461146002222601A46FCF75EFFF0
:103C9000431C02D1236803B12B6038BDE42200200D
:103CA00038B5074C00230546084611462360FCF74B
:103CB00065FF431C02D1236803B12B6038BD00BFF0
:103CC000E422002038B5064C002305460846236050
:103CD000FCF702FF431C02D1236803B12B6038BDFF
:103CE000E4220020884210B501EB020303D8421EF3
:103CF00099420CD110BD9842F9D28118D21AD34200
:103D000000D110BD13F8014D01F8014DF7E711F88E
:103D1000014B02F8014FEBE7F8B5074614460E4693
:103D200021B91146BDE8F840FEF7D6BF22B9FEF72B
:103D300085FF25462846F8BD00F014F884420FD9C7
:103D400021463846FEF7C8FF05460028F2D0314626
:103D50002246FEF75FFF31463846FEF76FFFE9E780
:103D60003546E7E751F8040C0028A0F10400BCBF79
:103D70000B58C01870470000044A05491368002B0F
:103D800008BF0B4618441060184670474C060020C8
:103D9000E8220020F8B500BFF8BC08BC9E4670477A
:0C3DA000F8B500BFF8BC08BC9E46704798
:103DAC005541525420496E697420636F6D706C6577
:103DBC007465210D000000004572726F7220696EEF
:103DCC002041502053657474696E67730D000000B8
:103DDC00576966692073657474696E677320696EC0
:103DEC00697420636F6D706C657465210D00000043
:103DFC00535349443A2025732050415353434F4465
:103E0C00452025730D0A0000496E697469616C695F
:103E1C007A696E67207468652077696669206D6FB2
:103E2C0064756C652E2E2E0D000000004572726FAD
:103E3C007220696E20436F6E6669670D000000008A
:103E4C00496E697420737563636573732C20737486
:103E5C0061746520636F64653A2025640D0A000067
:103E6C000D0A203E3E52455345540D000D0A203E8E
:103E7C003E636F6E6E656374696E6720746F20416C
:103E8C00502E2E2E0D0000000D0A203E3E636F6E4C
:103E9C006E65637465642E2E2E0D00000D0A203E97
:103EAC003E446973636F6E6E65637465640D0000E8
:103EBC000D0A203E3E41637469766974790D0000E9
:103ECC000D0A3E3E576946695F4854545047455465
:103EDC000D0000002F676574000000000D0A4854A7
:103EEC00545020474554204F4B0D00000D0A3E3EC8
:103EFC00506F7374696E67206461746120746F20F5
:103F0C00706F7374746573747365727665722E63F7
:103F1C006F6D2E2E0D0000002F706F73742E706855
:103F2C00702F6E616D653D64656D6F26656D6169A1
:103F3C006C3D6D796D61696C267375626A6563742D
:103F4C003D7375626A26626F64793D6D657373614A
:103F5C00676500000D0A4854545020504F535420AC
:103F6C004F4B0D000D0A4854545020504F535420C1
:103F7C004572726F720D00006E765F6D6F64656CCA
:103F8C000000000069705F69706164647200000079
:103F9C00706F7374746573747365727665722E6367
:103FAC006F6D00006874747062696E2E6F726700BA
:103FBC006161643038396631396562336533373461
:103FCC006364343336663961646339396134643817
:103FDC00323130623134656563393632316438647C
:103FEC003530313130373937303339636639303623
:103FFC00000000004772696D6D0000000D0A0A2F69
:10400C002A2A2A2A2A2A2A2A2A2A2A2A2A2A2A2A04
:10401C002A2A2A2A2A2A2A2A2A2A2A2A2A2A2A2AF4
:10402C002A2A2A2A2A2A2A2A2A2A2A2A2A2A2A2AE4
:10403C002A2A2A2A2A2A2A2A000000000D202A20AD
:10404C002020202020202020202020202020202064
:10405C002020202020202020202020202020202054
:10406C002020202020202020202020202020202044
:10407C0020202020202A00000D202A20582D4355D6
:10408C0042452D574946493120457870616E736918
:10409C006F6E20536F6674776172652076332E31A4
:1040AC002E312020202020202020202020202020E5
:1040BC00202A00000D202A20582D4E55434C454FE8
:1040CC002D494457307878312057692D4669204D59
:1040DC00696E692D415020436F6E66696775726118
:1040EC0074696F6E2E20202020202020202A0000B2
:1040FC000D202A20485454502D52657175657374E7
:10410C00204578616D706C652020202020202020B7
:10411C002020202020202020202020202020202093
:10412C002020202020202020202A00000D202A2AB8
:10413C002A2A2A2A2A2A2A2A2A2A2A2A2A2A2A2AD3
:10414C002A2A2A2A2A2A2A2A2A2A2A2A2A2A2A2AC3
:10415C002A2A2A2A2A2A2A2A2A2A2A2A2A2A2A2AB3
:10416C002A2A2A2A2A2F00000D0A0A4D6F64756C20
:10417C00652077696C6C20636F6E6E656374207755
:10418C006974682064656661756C742073657474F9
:10419C00696E67732E0000000D0A2F2A2A2A2A2A1C
:1041AC002A2A2A2A2A2A2A2A2A2A2A2A2A2A2A2A63
:1041BC002A2A2A2A2A2A2A2A2A2A2A2A2A2A2A2A53
:1041CC002A2A2A2A2A2A2A2A2A2A2A2A2A2A2A2A43
:1041DC002A2A2A2A2A2A2A2A0D0000000D0A202A15
:1041EC0020436F6E66696775726174696F6E2043E8
:1041FC006F6D706C6574652020202020202020209D
:10420C0020202020202020202020202020202020A2
:10421C002020202020202020202020200D00000005
:10422C000D0A202A20506C65617365206D616B65E9
:10423C0020737572652061205365727665722069F2
:10424C00732072756E6E696E672061742067697673
:10425C00656E20686F73746E616D65202020202060
:10426C000D0000000D0A202A2A2A2A2A2A2A2A2A84
:10427C002A2A2A2A2A2A2A2A2A2A2A2A2A2A2A2A92
:10428C002A2A2A2A2A2A2A2A2A2A2A2A2A2A2A2A82
:10429C002A2A2A2A2A2A2A2A2A2A2A2A2A2A2A2A72
:1042AC002A2A2A2A0D00000000000000000000004D
:1042BC0001020304060708090000000001020304C0
:1042CC003139322E3136382E322E3130300000005A
:1042DC003139322E3136382E322E310069705F670B
:1042EC007700000069705F646E7300003235352E04
:1042FC003235352E3235352E3000000069705F6E48
:10430C0065746D61736B000069705F7573655F64D4
:10431C0068637000776966695F707269765F6D6F4C
:10432C0064650000776966695F6D6F646500000005
:10433C00776966695F6368616E6E656C6E756D003A
:10434C0041542B532E5354533D25730D0000000044
:10435C000D0A0A4275696C6420436F6E6669677555
:10436C00726174696F6E3A000D0A4E75636C656FFD
:10437C003A204E55434C454F2D4634303152450D65
:10438C0000000000582D4E75636C656F3A20582D57
:10439C004E55434C454F2D49445730314D310D004E
:1043AC00496E746572666163653A20554152540DCD
:1043BC0000000000494457204D6F64756C6520491E
:1043CC006E697469616C697A65642E2E0D0000004B
:1043DC00574946492057414B4555500D00000000A8
:1043EC00574946492052455345540D00696620648F
:1043FC006566696E656428434F4E534F4C455F5557
:10440C004152545F454E41424C4544290D00000039
:10441C00636F6E736F6C65315F73706565640000FC
:10442C00415426570D000000636F6E736F6C65313D
:10443C005F68776663000000776966695F68745F20
:10444C006D6F6465000000003078303030303346DA
:10445C0043460000776966695F6F70725F726174C2
:10446C00655F6D61736B00003078303033464646C3
:10447C0043460000776966695F706F776572736198
:10448C0076650000776966695F6F70657261746943
:10449C006F6E616C5F6D6F646500000077696669B3
:1044AC005F626561636F6E5F77616B65757000004D
:1044BC00776966695F6C697374656E5F696E746544
:1044CC007276616C00000000776966695F74785FD2
:1044DC00706F77657200000069705F686F73746E3F
:1044EC00616D650069705F6170646F6D61696E6E9E
:1044FC00616D650069705F61707265646972656396
:10450C007400000069705F687474705F6765745F35
:10451C00726563765F74696D656F75740000000079
:10452C0069705F646863705F74696D656F75740042
:10453C00776966695F7265675F636F756E747279B0
:10454C000000000041542B532E48545450443D2538
:10455C00640D0000656E64696620646566696E654D
:10456C006428434F4E534F4C455F554152545F4561
:10457C004E41424C4544290D000000000D0A456E89
:10458C0064206F6620496E697469616C697A617424
:10459C00696F6E2E2E0D000041542B532E544C532C
:1045AC0043455254323D636C65616E2C616C6C0DED
:1045BC000000000041542B532E53455454494D4593
:1045CC003D256C750D00000041542B532E544C535B
:1045DC00434552543D665F63612C25640D25730081
:1045EC0041542B532E544C53444F4D41494E3D6630
:1045FC005F646F6D61696E2C25730D0041542B53F4
:10460C002E544C53434552543D665F636572742C73
:10461C0025640D257300000041542B532E544C532C
:10462C00434552543D665F6B65792C25640D2573AB
:10463C0000000000736C6565705F656E61626C658F
:10464C00640000007374616E6462795F656E616210
:10465C006C6564007374616E6462795F74696D6516
:10466C000000000041542B4346554E3D25640D007F
:10467C0041542B532E474346473D25730D000000F4
:10468C00776966695F6D6F6465203D2000000000EE
:10469C00415426460D00000041542B532E534346E3
:1046AC00473D25732C25730D0000000041542B53FE
:1046BC002E534346473D25732C25640D0000000006
:1046CC0041542B532E535349445458543D25730D88
:1046DC000000000041542B532E534346473D77694D
:1046EC0066695F7770615F70736B5F746578742C4B
:1046FC0025730D004552524F5220696E205553417F
:10470C0052545F5472616E736D69745F41545F43B0
:10471C006D64210057414954494E4720464F522061
:10472C0048415244574152452E2E2E0D0000000098
:10473C00594159210D00000000000000000000004C
:10474C00000000000000000000000000000000005D
:10475C00000000000000000000000000000000004D
:10476C00000000000000000000000000000000003D
:10477C00000000000000000000000000000000002D
:10478C00000000000000000000000000000000001D
:10479C00000000000000000030000020232D302B12
:1047AC002000686C4C006566674546470030313226
:1047BC00333435363738394142434445460030317D
:1047CC0032333435363738396162636465660000DC
:0847DC0014BBFF7F0100000087
:0447E400C501000803
:0447E800A101000823
:1047EC0000C20100843F0008B03F00080200000036
:1047FC009C3F0008BC3F0008004000080024F40067
:10480C0001000000100000000000024030000020F9
:10481C000000000064470008844700084447000873
:10482C00000000000000000000000000000000007C
:10483C00000000000000000000000000000000006C
:10484C00000000000000000000000000000000005C
:10485C00000000000000000000000000000000004C
:10486C00000000000000000000000000000000003C
:040000050800285176
:00000001FF
