:020000040800F2
:100000000080012035270008AD0A0008AF0A00086B
:10001000B10A0008B30A0008B50A00080000000091
:10002000000000000000000000000000B70A000807
:10003000B90A000800000000BB0A0008BD0A000859
:1000400085270008852700088527000885270008E0
:1000500085270008852700088527000885270008D0
:1000600085270008852700088527000885270008C0
:1000700085270008852700088527000885270008B0
:100080008527000885270008852700080000000054
:1000900000000000000000000000000085270008AC
:1000A0008527000885270008852700088527000880
:1000B0008527000885270008852700088527000870
:1000C0008527000885270008852700088527000860
:1000D0008527000885270008852700080000000004
:1000E00085270008852700088527000800000000F4
:1000F000000000000000000000000000852700084C
:1001000000000000852700088527000885270008D3
:1001100000000000000000000000000000000000DF
:1001200085270008852700088527000885270008FF
:10013000852700080000000000000000000000000B
:1001400000000000000000000000000085270008FB
:1001500085270008852700088527000885270008CF
:100160008527000885270008000000000000000027
:10017000000000000000000000000000000000007F
:1001800000000000852700080000000000000000BB
:0401900085270008B7
:1001A00010B5054C237833B9044B13B10448AFF3B1
:1001B00000800123237010BDFC010020000000001E
:1001C000904600080C4B43B10C480D4910B5AFF3F5
:1001D00000800C48036823B910BD0A48036833B98E
:1001E0007047094B002BF7D0BDE810401847064B6D
:1001F000002BF5D0184700BF000000009046000813
:1002000000020020FC01002000000000034613F85B
:10021000012B002AFBD1181A01387047000000009A
:1002200001F0FF01102A2BDB10F0070F08D010F8A7
:10023000013B013A8B422DD010F0070F42B3F6D1AB
:10024000F0B441EA012141EA014122F007047FF0C4
:1002500000070023F0E80256083C85EA010586EA1B
:10026000010685FA47F5A3FA87F586FA47F6A5FA57
:1002700087F68EB9EED1F0BC01F0FF0102F0070263
:1002800032B110F8013B013A83EA010313B1F8D10E
:100290000020704701387047002D06BF35460338EF
:1002A000073815F0010F07D1013015F4807F02BF28
:1002B000013015F4C03F0130F0BC0138704700BF79
:1002C00053B94AB9002908BF00281CBF4FF0FF31BD
:1002D0004FF0FF3000F07AB9ADF1080C6DE904CEB3
:1002E00000F006F8DDF804E0DDE9022304B0704711
:1002F0002DE9F0478C460D460446089E002B51D14F
:100300008A4217466DD9B2FA82FEBEF1000F0BD0B9
:10031000CEF1200C01FA0EF520FA0CFC02FA0EF7D1
:100320004CEA050C00FA0EF44FEA174A250CBCFB08
:10033000FAF81FFA87F90AFB18CC45EA0C4508FBC6
:1003400009F3AB420AD9ED1908F1FF3280F023819D
:10035000AB4240F22081A8F102083D44ED1AA4B25C
:10036000B5FBFAF00AFB105544EA054400FB09F915
:10037000A14509D9E41900F1FF3380F00A81A145B4
:1003800040F2078102383C44A4EB090440EA0840EB
:100390000021002E61D024FA0EF400233460736033
:1003A000BDE8F0878B4207D9002E54D0002186E8A3
:1003B00021000846BDE8F087B3FA83F1002940F038
:1003C0008E80AB4202D3824200F2FA80841A65EB3F
:1003D00003050120AC46002E3FD086E81010BDE892
:1003E000F08712B90127B7FBF2F7B7FA87FEBEF123
:1003F000000F34D1EB1B3A0C1FFA87FC0121B3FB31
:10040000F2F8250C02FB183345EA03450CFB08F310
:10041000AB4207D9ED1908F1FF3002D2AB4200F22E
:10042000D1808046ED1AA3B2B5FBF2F002FB105565
:1004300043EA05440CFB00FCA44507D9E41900F18C
:10044000FF3302D2A44500F2B8801846A4EB0C0496
:1004500040EA08409DE731463046BDE8F087CEF1DE
:10046000200405FA0EF307FA0EF720FA04F83A0C06
:1004700025FA04F448EA0308B4FBF2F14FEA184500
:1004800002FB11441FFA87FC45EA044501FB0CF30B
:10049000AB4200FA0EF409D9ED1901F1FF3080F0FA
:1004A0008A80AB4240F2878002393D44EB1A1FFA42
:1004B00088F5B3FBF2F002FB103345EA034500FB7D
:1004C0000CF3AB4207D9ED1900F1FF386FD2AB4204
:1004D0006DD902383D44EB1A40EA01418FE7C1F182
:1004E000200722FA07F88B4005FA01F448EA0303D3
:1004F00020FA07FE4FEA134CFD404EEA040EB5FB0E
:10050000FCF94FEA1E440CFB19551FFA83F844EA24
:10051000054509FB08F4AC4202FA01F200FA01FABF
:1005200008D9ED1809F1FF3043D2AC4241D9A9F105
:1005300002091D442D1B1FFA8EFEB5FBFCF00CFBBF
:1005400010554EEA054400FB08F8A04507D9E41809
:1005500000F1FF3529D2A04527D902381C4440EAD2
:100560000940A4EB0804A0FB02894C45C6464D4651
:1005700015D312D056B1BAEB0E0364EB050404FA9E
:1005800007F7CB401F43CC40376074600021BDE8C3
:10059000F0871846F8E69046E0E6C245EAD2B8EBA6
:1005A000020E69EB03050138E4E72846D7E7404629
:1005B00091E78146BEE7014678E702383C4445E7CB
:1005C000084608E7A8F102083D442BE7704700BF42
:1005D00082B000230193064B1A6B42F001021A63AA
:1005E0001B6B03F001030193019B02B0704700BF36
:1005F0000038024008B50A480A4B03604FF4E13363
:10060000436000238360C36003610C224261836105
:10061000C36101F03FF900B908BD01F07FFEFBE7BF
:10062000140C00200044004000B595B03022002199
:1006300008A802F082FA002303930493059306931B
:10064000079301931A4A116C41F080511164126CA6
:1006500002F080520192019A029316490A6822F42C
:10066000404242F400420A600A6802F440420292A8
:10067000029A0222089201220B9210220C920E93EF
:1006800008A800F0BBFC68B90F2303930021049174
:1006900005910691079103A800F0F8FE28B915B05E
:1006A0005DF804FB01F03AFEEEE701F037FEF6E7F5
:1006B000003802400070004000B59BB06422014643
:1006C00001A802F0FAFB4FF47A73642201A90348EF
:1006D00001F027F91BB05DF804FB00BF140C0020EB
:1006E00010B56148FFF7E8FF604C2046FFF7E4FFD4
:1006F0005F48FFF7E1FF5F48FFF7DEFF5E48FFF767
:10070000DBFF2046FFF7D8FF5C48FFF7D5FF5C48CA
:10071000FFF7D2FF5B4B1B68986802F0E7F85A4C72
:1007200021465A4802F04AFB5948FFF7C5FF237893
:10073000792B2ED05748FFF7BFFF574B1C68204638
:10074000FFF764FD02462146544802F0EBF9544B92
:100750001C682046FFF75AFD02462146514802F028
:10076000E1F9514B1C682046FFF750FD0246214637
:100770004E4802F0D7F94E48FFF79EFF4D48FFF76D
:100780009BFF4D48FFF798FF4C48FFF795FF00206F
:1007900010BD01224A4B1A704A48FFF78DFF394BB2
:1007A0001B68986802F0A2F8474C002323703B496D
:1007B000364802F003FB20703548FFF77DFF2378B1
:1007C000272B31D04148FFF777FF2E4B1B689868E5
:1007D00002F08CF83C4C0023237032492B4802F085
:1007E000EDFA20702A48FFF767FF2378132B20D0FB
:1007F0003748FFF761FF234B1B68986802F076F8D3
:10080000214C2146214802F0D9FA2148FFF754FF34
:100810002378312B20D0322B22D0302B0ED02D48F4
:10082000FFF74AFF042010BD2B48FFF745FF0420C7
:1008300010BD2A48FFF740FF042010BD0022284BBE
:100840001A70194B1C682046FFF7E0FC024621464F
:10085000164802F067F98EE70122214B1A70F0E783
:1008600002221F4B1A70ECE748480008884800082D
:10087000C4480008004900083C49000878490008BD
:10088000B44900082C000020BC070020D84900080B
:100890007C4B0008C84A000818000020EC07002024
:1008A00014000020540C002008000020C007002085
:1008B000F84A00083C4B0008804B0008C44B000875
:1008C0001A020020DC490008180200201C4A000817
:1008D0005C4A00089C4A0008EC490008304A0008BD
:1008E0000C00002038B500F08BF9FFF79DFEFFF7F4
:1008F0006FFEFFF77FFEFFF7F3FE20B15048FFF7D2
:10090000DBFE002038BD4F4D286801F0ABF84E4C9F
:10091000002363700223A3700122E2702A686263DD
:100920004A4A13704A48FFF7C7FE204601F06AF9A9
:1009300078B14848FFF7C0FEE3E74748FFF7BCFE41
:10094000464B1A784649474801F0E4F802223F4BEB
:100950001A703E4B1B78013B072BFAD801A252F8C4
:1009600023F000BF3B090008270A0008850900089A
:1009700053090008930900089B090008EF090008C3
:10098000190A00083848FFF797FE06222F4B1A7005
:10099000DFE700222D4B1A70DBE7344C204601F0D4
:1009A0004FFB002323606360A360E3602361214663
:1009B0002F4B186801F03AFD2E4B1B781BB1072214
:1009C000224B1A70C5E72C48FFF776FE50222B49C0
:1009D0002B4801F069F830B92A48FFF76DFE022272
:1009E0001A4B1A70B5E72848FFF766FEF7E7274865
:1009F000FFF762FE50222649264B186801F06EF878
:100A000030B92548FFF758FE0222104B1A70A0E7B4
:100A10002248FFF751FEF7E72148FFF74DFE02227B
:100A20000A4B1A7095E71F48FFF746FE1E4B1B68DE
:100A3000986801F05BFF4FF4FA7000F00DF988E759
:100A4000B446000800000020A80C0020E8070020A1
:100A5000CC460008F0460008004700080C000020C3
:100A6000540C0020EC0700201C470008D40700208D
:100A70000400002019020020304700084447000805
:100A8000C00700204C4700085C470008704700087A
:100A90009C47000810000020D8470008EC470008D9
:100AA00014080020F44A00082C000020FEE7FEE7AE
:100AB000FEE7FEE7FEE770477047704708B500F0B5
:100AC000B9F808BD82B0002100910B4B5A6C42F47A
:100AD00080425A645A6C02F480420092009A01915A
:100AE0001A6C42F080521A641B6C03F0805301931D
:100AF000019B02B0704700BF0038024000B589B0CA
:100B00000023039304930593069307930268154B00
:100B10009A4202D009B05DF804FB0021019103F56F
:100B2000FA331A6C42F400321A641A6C02F400327E
:100B30000192019A02911A6B42F001021A631B6B37
:100B400003F001030293029B0C23039302230493FB
:100B5000032306930723079303A9034800F0EAF849
:100B6000D8E700BF004400400000024008B502681A
:100B7000064B9A4200D008BD054A136C23F400339B
:100B800013640C21034800F0AFF9F4E7004400407F
:100B90000038024000000240054BD3F8882042F4A0
:100BA0007002C3F888204FF000629A60704700BF5F
:100BB00000ED00E010B504460E4B18784FF47A7340
:100BC000B3FBF0F30C4A1068B0FBF3F000F09CF8B4
:100BD00068B90F2C01D9012010BD002221464FF029
:100BE000FF3000F05FF8054B1C60002010BD0120B5
:100BF00010BD00BF200000201C00002024000020A9
:100C000008B50B4B1A6842F400721A601A6842F475
:100C100080621A601A6842F480721A60032000F041
:100C20002FF80020FFF7C6FFFFF74CFF002008BD9C
:100C3000003C0240034A1168034B1B780B441360CD
:100C4000704700BFE00C002020000020014B186816
:100C5000704700BFE00C002038B50446FFF7F6FFF0
:100C60000546B4F1FF3F02D0044B1B781C44FFF74C
:100C7000EDFF401B8442FAD838BD00BF20000020A1
:100C8000074AD36823F4E0631B041B0C000200F442
:100C9000E060184340F0BF6040F40030D06070471F
:100CA00000ED00E030B4164BDB68C3F30223C3F160
:100CB0000704042C28BF04241D1D062D17D9033B4F
:100CC000012505FA04F4013C2140994005FA03F39B
:100CD000013B1340194300280BDB0901C9B200F1A5
:100CE000604000F5614080F8001330BC704700237D
:100CF000E6E700F00F000901C9B2024B1954F4E70E
:100D000000ED00E014ED00E00138B0F1807F0AD280
:100D1000064B5860F021064A82F8231000209860A4
:100D200007221A6070470120704700BF10E000E002
:100D300000ED00E000230F2B00F2CD80F0B583B072
:100D400095E085684FEA430E032707FA0EF725EA78
:100D50000705CE6806FA0EF635438560456825EA34
:100D600002024D68C5F300159D402A434260C668E3
:100D70005F000322BA40D24316408D68BD402E4327
:100D8000C6604D68022D00F08480122D00F0818035
:100D900005682A404D6805F00305BD402A430260FE
:100DA0004A6812F0805F5FD0002201924A4A556C77
:100DB00045F480455564526C02F480420192019AD8
:100DC0009D08AE1C454A52F8262003F00306B600E3
:100DD0000F27B74022EA0702414FB84271D007F50A
:100DE0008067B8426FD007F58067B8426DD007F5CD
:100DF0008067B8426BD007F58067B8425FD007279D
:100E000007FA06F632430235344E46F82520354AB5
:100E10001568E24305EA02064F6817F4803F01D0E7
:100E200044EA05062F4D2E606D6802EA05064F68FC
:100E300017F4003F01D044EA05062A4D6E60AD6804
:100E400002EA05064F6817F4801F01D044EA050640
:100E5000244DAE60ED682A404E6816F4001F01D0A4
:100E600044EA05021F4CE26001330F2B31D8012206
:100E70009A400C681440A242F6D14D686E1E012EB5
:100E80007FF65FAF112D3FF45CAF122D7FF46FAF93
:100E900057E74FEAD30E0EF1080E50F82E5003F02C
:100EA000070C4FEA8C0C0F2606FA0CF625EA06050D
:100EB0000E6906FA0CF6354340F82E5068E7042711
:100EC0009EE700279CE701279AE7022798E7032778
:100ED00096E703B0F0BD704700380240003801408B
:100EE00000000240003C014000230F2B79D8F0B5F0
:100EF0002BE04FF0040E01E04FF0000E0EFA05F566
:100F0000AF4255D005685E000324B440E443254059
:100F10000560DD08083550F8256003F007074FEA43
:100F2000870E0F2707FA0EF726EA070640F8256016
:100F3000C5682540C560456825EA020242608268AE
:100F40001440846001330F2B4AD801229A4002EAF0
:100F50000104A242F6D14FEA930C0CF10206214D96
:100F600055F8267003F00305AD000F26AE4037405C
:100F7000DFF878E07045BFD00EF5806E70450ED07A
:100F80000EF5806E70450DD00EF5806E70450CD05C
:100F90000EF5806E7045ACD04FF0070EAEE74FF007
:100FA000010EABE74FF0020EA8E74FF0030EA5E7E6
:100FB0000D4D2F68E44327402F606F6827406F6016
:100FC000AF682740AF60EF683C40EC60054F0CF124
:100FD000020457F8245025EA060647F8246091E7F2
:100FE000F0BD704700380140003C01400000024065
:100FF00012B909048161704781617047002800F0CF
:10100000E48170B582B00446036813F0010F3BD051
:10101000A74B9B6803F00C03042B2CD0A44B9B68BC
:1010200003F00C03082B21D06368B3F5803F4FD049
:10103000B3F5A02F52D09E4B1A6822F480321A606A
:101040001A6822F480221A606368002B50D0FFF7E0
:10105000FDFD0546964B1B6813F4003F14D1FFF7C6
:10106000F5FD401B6428F5D90320B3E1904B5B6884
:1010700013F4800FD8D08E4B1B6813F4003F03D0BD
:101080006368002B00F0A381236813F0020F55D092
:10109000874B9B6813F00C0F3ED0854B9B6803F089
:1010A0000C03082B33D0E368002B68D00122814B5E
:1010B0001A60FFF7CBFD05467D4B1B6813F0020F4E
:1010C00054D1FFF7C3FD401B0228F5D9032081E16D
:1010D000774A136843F480331360B5E7744B1A689A
:1010E00042F480221A601A6842F480321A60ABE738
:1010F000FFF7ACFD05466E4B1B6813F4003FC3D0F1
:10110000FFF7A4FD401B6428F5D9032062E1684B7A
:101110005B6813F4800FC6D1654B1B6813F0020F98
:1011200004D0E368012B01D0012053E1604A136829
:1011300023F0F803216943EAC1031360236813F025
:10114000080F40D0636963B301225B4B1A60FFF75D
:101150007DFD0546564B5B6F13F0020F33D1FFF751
:1011600075FD401B0228F5D9032033E1504A13686E
:1011700023F0F803216943EAC1031360DEE700228C
:101180004C4B1A60FFF762FD0546494B1B6813F094
:10119000020FD3D0FFF75AFD401B0228F5D90320D8
:1011A00018E10022444B1A60FFF750FD0546404B02
:1011B0005B6F13F0020F06D0FFF748FD401B0228BB
:1011C000F5D9032006E1236813F0040F79D0384BDA
:1011D0001B6C13F0805F33D100230193344B1A6CE6
:1011E00042F080521A641B6C03F080530193019B00
:1011F0000125324B1B6813F4807F23D0A368012B99
:1012000034D0052B38D02A4B1A6F22F001021A670E
:101210001A6F22F004021A67A368002B36D0FFF77A
:1012200015FD0646224B1B6F13F0020F48D1FFF746
:101230000DFD801B41F288339842F3D90320C9E0A9
:101240000025D6E71D4A136843F480731360FFF747
:10125000FDFC0646194B1B6813F4807FCED1FFF7C7
:10126000F5FC801B0228F5D90320B3E0104A136F68
:1012700043F001031367CFE70D4B1A6F42F00402EE
:101280001A671A6F42F001021A67C5E7FFF7DEFC22
:101290000646074B1B6F13F0020F11D0FFF7D6FC69
:1012A000801B41F288339842F3D9032092E000BFBB
:1012B0000038024000004742800E47420070004064
:1012C000EDB9A369002B00F08480454A926802F0D2
:1012D0000C02082A51D0022B17D00022414B1A6071
:1012E000FFF7B4FC04463E4B1B6813F0007F42D06E
:1012F000FFF7ACFC001B0228F5D903206AE0384A4E
:10130000136C23F080531364DBE70022354B1A6023
:10131000FFF79CFC0546324B1B6813F0007F06D09C
:10132000FFF794FC401B0228F5D9032052E0E36943
:10133000226A1343626A43EA8213A26A5208013A9C
:1013400043EA0243E26A43EA0263254A5360012208
:10135000244B1A60FFF77AFC0446214B1B6813F0FC
:10136000007F06D1FFF772FC001B0228F5D903208D
:1013700030E000202EE000202CE0012B2CD0184B78
:101380005B6803F48001E269914201D0012021E011
:1013900003F03F02216A8A4201D001201AE0616A0B
:1013A00047F6C0721A408A4201D0012012E003F4CD
:1013B0004032A16A8A4201D001200BE003F0706341
:1013C000E26A93420AD0012004E001207047012024
:1013D00000E0002002B070BD0120FBE70020F9E72B
:1013E0000038024060004742F8B5254B9B6803F087
:1013F0000C03042B41D0082B01D02248F8BD204B10
:101400005A6802F03F025B6813F4800F12D01C4B45
:101410005968C1F3881100231B48A1FB0001FEF7A6
:101420004FFF174B5B68C3F3014301335B00B0FB15
:10143000F3F0F8BD124B5B68C3F388131E46002718
:101440005C010025E41A65EB0705A90141EA9461F6
:10145000A001001B61EB0501CB0043EA5073C400FF
:10146000A01943EB07018B0243EA90538402204604
:1014700019460023FEF724FFD3E70348F8BD00BF59
:10148000003802400024F40040787D01002800F07C
:101490009E8070B50446504B1B6803F00F038B42CF
:1014A00009D2CBB24C4A1370136803F00F03994270
:1014B00001D0012070BD236813F0020F17D013F084
:1014C000040F04D0454A936843F4E05393602368C3
:1014D00013F0080F04D0414A936843F460439360CB
:1014E0003E4A936823F0F003A068034393600D46DF
:1014F000236813F0010F32D06368012B21D09A1EAC
:10150000012A25D9354A126812F0020F61D03349F9
:101510008A6822F0030213438B60FFF797FB0646AD
:101520002E4B9B6803F00C036268B3EB820F16D05E
:10153000FFF78CFB801B41F288339842F0D90320DF
:1015400070BD264A126812F4003FE0D1012070BD40
:10155000224A126812F0007FD9D1012070BD1E4BC3
:101560001B6803F00F039D4209D2EAB21A4B1A70AE
:101570001B6803F00F039D4201D0012070BD23685A
:1015800013F0040F06D0154A936823F4E053E16882
:101590000B439360236813F0080F07D00F4A93683A
:1015A00023F46043216943EAC1039360FFF71CFF02
:1015B0000A4B9B68C3F30313094AD35CD840094B19
:1015C0001860094B1868FFF7F5FA002070BD01207C
:1015D0007047012070BD00BF003C0240003802404F
:1015E000084C00081C00002024000020014B186853
:1015F000704700BF1C00002008B5FFF7F7FF044B41
:101600009B68C3F38223034AD35CD84008BD00BF64
:1016100000380240184C000808B5FFF7E7FF044BFC
:101620009B68C3F34233034AD35CD84008BD00BF74
:1016300000380240184C00080268D36843F00103E8
:10164000D3600268936803F00703062B03D0136886
:1016500043F001031360002070470000F8B5044612
:101660000268136923F44053C1680B431361836814
:101670000269134342691343C26913430168CA688C
:1016800022F4164222F00C021343CB600268536925
:1016900023F4407381690B435361C369B3F5004F71
:1016A00034D00368604A934200F0928002F5806271
:1016B000934200F08D80FFF79FFF256800210618F8
:1016C00041EB010736184F41FB0043EA5673F20025
:1016D00016461F4663689A009B0F80197941FEF7F2
:1016E000EFFD524CA4FB00325109642202FB1102AF
:1016F00013013233A4FB03235B0903F0F00202EB76
:10170000011203F00F031344AB60F8BD0368464AAF
:10171000934230D002F5806293422CD0FFF76CFFE9
:1017200025680021061841EB010736184F41FB00E0
:1017300043EA5673F20016461F4662680023921869
:101740005B4180197941FEF7BBFD384CA4FB0032A8
:101750005109642202FB1102D3003233A4FB03239C
:101760005B095A0002F4F87202EB011203F007035E
:101770001344AB60F8BDFFF74FFF25680021061842
:1017800041EB010736184F41FB0043EA5673F20064
:1017900016461F466268002392185B418019794102
:1017A000FEF78EFD214CA4FB00325109642202FB9E
:1017B0001102D3003233A4FB03235B095A0002F465
:1017C000F87202EB011203F007031344AB60F8BD9B
:1017D000FFF722FF25680021061841EB01073618A4
:1017E0004F41FB0043EA5673F20016461F466368FA
:1017F0009A009B0F80197941FEF762FD0B4CA4FB08
:1018000000325109642202FB110213013233A4FB9E
:1018100003235B0903F0F00202EB011203F00F0354
:101820001344AB60F8BD00BF001001401F85EB51B1
:101830002DE9F04105460F4616469846069C2B6852
:101840001B6837EA03030CBF01230023B3421ED1F8
:10185000B4F1FF3FF3D02CB1FFF7F8F9A0EB08008B
:101860008442ECD22A68D36823F4D073D3602A6808
:10187000536923F001035361202385F8393085F83B
:101880003A30002385F838300320BDE8F08100208D
:10189000BDE8F08158B310B5044690F839300BB369
:1018A000242384F839302268D36823F40053D360AA
:1018B0002046FFF7D3FE2268136923F49043136197
:1018C0002268536923F02A0353612268D36843F4E2
:1018D0000053D3600020E063202384F8393084F87B
:1018E0003A3010BD80F83830FFF708F9D8E701200A
:1018F0007047A0B110B50446242380F8393002683F
:10190000D36823F40053D360FFF730F90020E0637D
:1019100084F8390084F83A0084F8380010BD0120BA
:1019200070472DE9F04383B01E4690F83930DBB2A2
:10193000202B04D00223184603B0BDE8F0830446F0
:101940000D469046002956D0002A56D090F83830DF
:10195000012B01D10223EEE7012380F838304FF04C
:101960000009C0F83C90212380F83930FFF76EF968
:101970000746A4F82480A4F8268084F8389010E064
:1019800000963B46002280212046FFF751FF0028A9
:1019900035D122682B88C3F3080353602369CBB980
:1019A0000235E38C9BB2BBB1E38C9BB2013B9BB293
:1019B000E384A368B3F5805FE2D000963B46002243
:1019C00080212046FFF734FFD8B923682A785A606F
:1019D0000135E6E70135E4E700963B460022402169
:1019E0002046FFF725FF034608B10323A3E7202283
:1019F00084F839209FE701239DE701239BE7032318
:101A000099E7032397E790F83A30DBB2202B01D017
:101A100002207047F9B102B390F83830012B1ED084
:101A200081628285C2850023C363222280F83A2026
:101A300080F838300168CA6842F48072CA60016870
:101A40004A6942F001024A610168CA6842F0200214
:101A5000CA60184670470120704701207047022075
:101A60007047000008B50E4B0E4A1A6058600022FD
:101A70009A60DA601A614FF4807199610C215961A2
:101A8000DA611846FFF735FF20B90548FFF702FF76
:101A900018B908BD00F042FCF7E700F03FFCF8E79A
:101AA000580F002000100140A0B110B5044611B934
:101AB000022010BD00BF084B1B7813F0010FF9D1B5
:101AC000054B5B68002BF5D1204600F0FBFB00F0D6
:101AD000D1FB10BD02207047380D0020A8B110B511
:101AE000044611B9022010BD00BF094B1B7813F04A
:101AF000010FF9D1064B5B68002BF5D1204601237D
:101B000000F0E0FB00F0B6FB10BD0220704700BF04
:101B1000380D002038B51F4B5B7813F0040F02D04E
:101B20000724204638BD154604461A4A43F00403EC
:101B3000537029B1084600F0FFFC08B10924F0E712
:101B40002CB1204600F0DCFC30B10824E9E7124B50
:101B5000586800F0D5FCF7E72946104800F0B2FCC1
:101B600008B10A24DDE701210D4800F0ABFC044672
:101B700008B10A24D5E700F017FD012000F030FD80
:101B8000044B1A7842F004021A705A786FF38202FA
:101B90005A70C6E79C0F0020D8190020744C00082A
:101BA000844C000810B586B0044600210091134B08
:101BB0001A6B42F004021A631B6B03F004030093D8
:101BC000009B4FF48073019301230293039103233D
:101BD000049301A90A48FFF7ADF844B900224FF475
:101BE00080710748FFF704FA002006B010BD0122FB
:101BF0004FF480710248FFF7FBF9F5E70038024027
:101C00000008024070B50546A24801F04BF8A24812
:101C100001F0BCF8A14801F0B9F8A14801F0B6F80C
:101C200000F088FB0120FFF7BDFF00F0ABFA00F0E9
:101C30009FFC044608B1204670BD696B994800F0CE
:101C400041FC04460028F6D100F05EFB964B974A13
:101C50001068186092889A801846FEF7D7FA80B20A
:101C600000F09AFB20B900F005FB04460028E2D101
:101C700000F088FA01218E4800F024FC0446002878
:101C8000D9D1296B29B1874800F01CFC04460028F3
:101C9000D1D10021874800F015FC04460028CAD1A4
:101CA0002B78002B00F0BA80012B00F0C8806B78F5
:101CB000012B00F02781002B00F0D280022B00F0D6
:101CC0005281AB78032B40F27F81E978022940F200
:101CD0008681696829B1784800F0D6FB044600285F
:101CE000A9D1A96829B1754800F0CEFB04460028A7
:101CF000A1D1E96829B1724800F0C6FB044600286A
:101D000099D1296929B16F4800F0BEFB044600282B
:101D100091D1696929B16C4800F0B6FB04460028EE
:101D200089D1E96929B1694800F0AEFB0446002871
:101D300081D1296A31B1664800F0A6FB044600282B
:101D40007FF479AF6B6A002B40F05181A96A0029BA
:101D500040F0598195F82C1031B15E4800F0B2FB8B
:101D6000044600287FF467AF00F0CEFA4E4C2A7E7E
:101D70005949204601F03AF82046FEF747FA80B26A
:101D800000F00AFB28B900F075FA044600287FF439
:101D900052AF00F0B9FA444E504C0FCC3060716035
:101DA000B260F36003CC30617161237833763046E2
:101DB000FEF72CFA80B200F0EFFA28B900F05AFAD8
:101DC000044600287FF437AF00F09EFA364B374ABE
:101DD0001068186092889A801846FEF717FA80B249
:101DE00000F0DAFA044628B900F044FA0446002864
:101DF0007FF421AF286B18B1FFF734FE00F014FA1E
:101E000000F0C0F90020FFF7CDFE354800F0BEFF1E
:101E1000344B1B68986800F069FD0CE700213248DC
:101E200000F050FB044600287FF405AF2F493048EE
:101E300000F02AFB044600283FF439AFFBE60121FD
:101E4000294800F03FFB044600287FF4F4AE2949FE
:101E5000274800F019FB044600283FF428AFEAE6C3
:101E60000021254800F02EFB044600287FF4E3AE55
:101E70000021224800F026FB044600287FF4DBAE58
:101E800000211F4800F01EFB044600283FF419AF54
:101E9000D1E600BFB04C0008C84C0008E44C000874
:101EA000004D0008144D00080C1A0020244D0008B5
:101EB0002C4D0008844C00080C4800085C4C0008BD
:101EC0003C4C0008444C0008DC4D0008E84D00087C
:101ED000F84D0008344E0008484E0008744E0008C3
:101EE000584E00082C0000203C4D00084C4D0008C6
:101EF000584D00086C4D0008784D0008104F000840
:101F0000204F00080121444800F0DCFA0446002874
:101F10007FF491AE0B21414800F0D4FA044600282A
:101F20007FF489AE00213E4800F0CCFA0446002838
:101F30007FF481AE00213B4800F0C4FA044600283B
:101F40007FF479AE0021384800F0BCFA044600283E
:101F50007FF471AE0021354800F0B4FA0446002841
:101F60003FF4AFAE67E601212B4800F0ABFA044620
:101F700000287FF460AE0C21284800F0A3FA044644
:101F800000287FF458AE0A21254800F09BFA044649
:101F900000287FF450AE0121224800F093FA044655
:101FA00000287FF448AE01211F4800F08BFA044658
:101FB00000287FF440AE00211C4800F083FA04465C
:101FC00000283FF47EAE36E603EB43035900184881
:101FD00000F078FA044600283FF477AE2BE6154867
:101FE00000F070FA044600283FF473AE23E64FF485
:101FF0007A7101FB03F1104800F064FA04460028EE
:102000003FF4A4AE17E60D4800F05CFA0446002841
:102010003FF4A0AE0FE600BF784D0008884D0008E1
:10202000A04D0008B44D0008104F0008204F0008D4
:10203000CC4D0008684C0008084E0008244E0008EB
:10204000F8B5064600F060F9114C124A12492046D4
:1020500000F0CCFE2046FEF7D9F880B200F09CF9E3
:10206000044608B12046F8BD00F004F904460B4DC3
:102070002846FEF7CBF8074602462946304600F0D0
:1020800051FD3A460021284600F057FDEAE700BF1F
:102090000C1A00200C480008A04C0008B60F0020C5
:1020A0001B4B1A7842F008021A701A7842F080022C
:1020B0001A701A786FF386121A7000225A749A7482
:1020C0005A60597862F300015970FF219975022115
:1020D000D97419755A75DA600E4B197841F00301FD
:1020E0001970597962F345115971197A987940F04C
:1020F00004009871D87962F3C710D87101F0F80123
:1021000062F3C3011972597A62F3820159727047FE
:10211000380D00209C0F002008B5174BDA796FF3BB
:10212000C502DA710021C3F8AC10C3F8A010C3F8DF
:10213000A810C3F8B810C3F8B010A3F89810C3F8EB
:10214000BC10C3F8C410C3F8C8105973C3F8CC103E
:10215000A3F894104FF48052C3F8E4200522A3F8AA
:102160009A20064B4FF001321A605A604FF4006219
:10217000034800F0E2FC08BDA80F0020D0190020A1
:10218000C8110020F0B583B000260096214B1A6BD1
:1021900042F004021A631A6B02F004020092009AE1
:1021A00001961A6B42F001021A631B6B03F00103E4
:1021B0000193019B18494FF480550D6301274F632C
:1021C0008F630323CB63154C30312046FEF7B2FDFD
:1021D000134B1E70FF22134B9A7532462946204638
:1021E000FEF706FFC820FEF737FD3A46294620468F
:1021F000FEF7FEFE3220FEF72FFD29462046FEF7B1
:1022000073FE00E000BF074B9B7DDBB20E2BF9D1C4
:1022100003B0F0BD00380240E40C0020000802408A
:10222000AC070020380D002008B500224FF4805183
:102230000748FEF7DDFE012206490748FFF7E3FBEA
:1022400020B9064A537843F01003537008BD00BF0D
:1022500000000240F60F0020580F00209C0F0020C5
:10226000034B00229A601A7842F004021A707047F9
:10227000380D002000E000BF064B5B7813F0010F23
:10228000F9D0044A53786FF300035370024B93F86C
:10229000E8007047380D0020A80F002000E000BFC4
:1022A000074B1B7813F0010FF9D1054B1B7813F086
:1022B000020F04D0024B5B7813F0100FEFD0704781
:1022C000380D0020F8B507460E4615461C46FFF7A8
:1022D000E5FF0B4B1F665E66C3F8C050DC72094811
:1022E000062380F8263072B600F1200494E8060038
:1022F000143000F0B5F962B6204600F0F8F9F8BDE8
:10230000A80F0020E40C002008B54FF40062002163
:10231000014800F012FC08BD0C1A002008B500208E
:1023200000F0FCF908BD08B5002000F0F7F9FFF750
:102330007BFF08BD38B5134D4FF48061284600F08F
:10234000E3F9114A53786FF34303537000240F4BA2
:102350001C70FFF769FFFFF7DFFEFFF7A1FE3221D8
:1023600005F1140000F066F9FFF77AFF084B1C60D6
:102370005C600848FFF760F900B938BDFFF7D3FF8C
:10238000FBE700BFE40C0020380D0020AC07002064
:10239000241100201024002008B51F4B1B7813F0D7
:1023A000100F06D11C4B1B7813F0400F01D10520F4
:1023B00008BD1A4B5B7813F0010F01D0102008BD47
:1023C000164B93F90030002B24DB144A537843F06A
:1023D0000803537020B9124800F064FC1F2008BDA8
:1023E0004FF47A7302460F490F48FFF79AFA48B93B
:1023F0000A4A53786FF3C303537013F0100F05D0DC
:10240000002008BDFFF78FFF0F2008BDFFF70CFF6E
:10241000002008BD102008BD380D00209C0F0020B2
:10242000D04F00080C1A0020580F0020F8B50546C0
:102430000E46FFF769FF114C2A461149204600F06D
:10244000D5FC2046FDF7E2FE80B2FFF7A5FF04466B
:1024500008B12046F8BDFFF70DFF0446094D284698
:10246000FDF7D4FE074602462946304600F05AFBE7
:102470003A460021284600F060FBEAE70C1A0020EB
:102480004C4F0008B60F002070B505460E46FFF70A
:102490003BFF0A4C33462A460949204600F0A6FC79
:1024A0002046FDF7B3FE80B2FFF776FF034608B182
:1024B000184670BDFFF7DEFE0346F9E70C1A002050
:1024C000744F000870B505460E46FFF71DFF0A4C15
:1024D00033462A460949204600F088FC2046FDF78D
:1024E00095FE80B2FFF758FF034608B1184670BD4D
:1024F000FFF7C0FE0346F9E70C1A0020884F0008DA
:1025000038B50546FFF700FF094C2A460949204621
:1025100000F06CFC2046FDF779FE80B2FFF73CFF2F
:10252000034608B1184638BDFFF7A4FE0346F9E795
:102530000C1A00209C4F000838B50546FFF7E4FE52
:10254000094C2A460949204600F050FC2046FDF778
:102550005DFE80B2FFF720FF034608B1184638BD84
:10256000FFF788FE0346F9E70C1A0020B04F000879
:1025700008B5FFF7C9FE0A4B0A4A1068186092882E
:102580009A801846FDF742FE80B2FFF705FF03462A
:1025900008B1184608BDFFF76DFE0346F9E700BF16
:1025A0000C1A00206C4F000808B5FFF7ADFE0A4B6F
:1025B0000A4A1068186092889A801846FDF726FE2D
:1025C00080B2FFF7E9FE034608B1184608BDFFF7E1
:1025D00051FE0346F9E700BF0C1A0020244D000805
:1025E00038B50546FFF790FE0E4C2A460E492046A8
:1025F00000F0FCFBFF220D4B9A752046FDF706FE0E
:1026000080B2FFF7C9FE024608B1104638BD00216E
:10261000074B197000E000BF044B9B7DDBB20E2B13
:10262000F9D1F2E70C1A0020404F0008380D0020C5
:102630004E0D0020C90089B2818000230380C38031
:102640004380014B836070471C0200208388C08850
:1026500080B2C3F3CC03984214BF0020012070471E
:1026600030B583B0044602AB03E90600FFF7EEFF86
:1026700000283AD16288C2F3CC02A168D300194481
:10268000BDF804008880A16819449DF80200887094
:10269000A16819449DF801004D7860F303054D7061
:1026A000A168194400094D7860F307154D70A168C1
:1026B0009DF8000001F83200A26813449DF806203E
:1026C0009A71E3889BB201339BB2E38063889BB22B
:1026D00008339BB26380A3889AB2638899B291FB56
:1026E000F2F302FB13139BB2638003B030BD0023EF
:1026F000838083714278092363F3030242708370FD
:102700006323037070470000816000230360C3608F
:102710004360014B03617047AC03002008B5012200
:102720002021034B53F82000FEF762FC08BD00BFD8
:1027300028000020DFF834D0002103E00C4B5B5868
:10274000435004310B480C4B42189A42F6D30B4AC3
:1027500002E0002342F8043B094B9A42F9D3FEF70A
:102760001BFA00F0BBF9FEF7BDF8704700800120AE
:10277000C051000800000020FC010020FC010020E6
:1027800054240020FEE700008A892DE9F041054627
:1027900010070C465AD44B68002B05DC0B6C002B41
:1027A00002DC0020BDE8F081E66A002EF9D00023AB
:1027B00012F480522F682B6033D0606DA3895A07C2
:1027C00005D56368C01A636B0BB1236CC01A002374
:1027D0000246E66A216A2846B047431CA38906D10F
:1027E00029681D294BD82B4ACA40D60747D5002255
:1027F0006260D9042269226004D5421C01D12B6891
:1028000003B96065616B2F600029CAD004F14403ED
:10281000994202D0284600F099F900206063BDE893
:10282000F081216A01232846B047411CC6D12B689C
:10283000002BC3D01D2B01D0162B01D12F60B0E788
:10284000A38943F04003A381BDE8F0810F69002F05
:10285000A7D093070E6808BF4B690F6018BF00230D
:10286000A6EB07088B60B8F1000F9ADD43463A46A5
:10287000216AA66A2846B047002807DCA38943F0EE
:102880004003A3814FF0FF30BDE8F0810744A8EB7F
:102890000008E8E70100402038B50B6905460C4602
:1028A000DBB118B183690BB900F072F80C4B9C4294
:1028B00009D16C68B4F90C307BB121462846BDE8DB
:1028C0003840FFF761BF074B9C4201D1AC68F1E78C
:1028D000054B9C4208BFEC68ECE7002038BD00BF08
:1028E0001050000830500008F04F0008014620B991
:1028F000044B0549186800F0D3B8044B1868FFF77B
:10290000CBBF00BF50500008992800082C000020C1
:10291000014900F0C5B800BF99280008002310B590
:10292000044603604360836081814366C281036122
:1029300043618361194608225C3000F0FEF8054BC4
:102940006362054BA362054BE362054B246223637C
:1029500010BD00BF352E0008572E00088F2E00082E
:10296000B32E000870B54A1E682555430E4605F182
:10297000740100F039F9044640B1002180E84200BA
:102980000C30A06005F1680200F0D7F8204670BD59
:10299000836910B5044633BB8364C3640365124B7B
:1029A000124A1B688262984204BF0123836100F0CF
:1029B0001FF86060204600F01BF8A060204600F081
:1029C00017F80022E06004216068FFF7A7FF0122EA
:1029D0000921A068FFF7A2FF02221221E068FFF799
:1029E0009DFF0123A36110BD50500008112900086C
:1029F000F8B51C4B1E68B369074613B93046FFF79C
:102A0000C7FF4836B4687368013B03D5336833B1F8
:102A10003668F7E7B4F90C506DB16834F4E7042177
:102A20003846FFF79FFF30600028F1D10C233B6050
:102A300004462046F8BD4FF6FF73E3810123A381CE
:102A400065662560A560656025616561A5610822F0
:102A5000294604F15C0000F070F86563A563A56485
:102A6000E564E6E7505000082DE9F041884600F1A2
:102A70004804002614B93046BDE8F081A5686768AF
:102A8000013F01D52468F5E7AB89012B06D9B5F9DB
:102A90000E30013302D02846C04706436835EFE7C1
:102AA0002DE9F8438046894600F14804002614B910
:102AB0003046BDE8F883A5686768013F01D5246802
:102AC000F5E7AB89012B07D9B5F90E30013303D0F7
:102AD00029464046C84706436835EEE770B50D4EB7
:102AE0000D4CA41BA4100025A54209D10B4E0C4C83
:102AF00001F0CEFDA41BA4100025A54205D170BD98
:102B000056F8253098470135EEE756F825309847B6
:102B10000135F2E7B8510008B8510008B851000873
:102B2000BC51000810B5431E0A44914200D110BDAB
:102B300011F8014B03F8014FF7E7024403469342B3
:102B400000D1704703F8011BF9E7000038B50546CE
:102B5000002945D051F8043C0C1F002BB8BFE418E5
:102B600000F0CEFB1F4A1368104633B9636014604F
:102B70002846BDE8384000F0C4BBA3420CD9216808
:102B80006218934204BF1A685B68636004BF5218FE
:102B900022600460ECE713465A680AB1A242FAD9EF
:102BA00019685818A0420BD1206801445818824275
:102BB0001960DDD1106852685A6001441960D7E786
:102BC00002D90C232B60D3E7206821188A4204BF66
:102BD00011685268626004BF091821605C60C7E731
:102BE00038BD00BFB007002070B5CD1C25F003052F
:102BF00008350C2D38BF0C25002D064601DBA942F7
:102C000003D90C233360002070BD00F079FB234A08
:102C10001468214691B9224C23681BB9304600F054
:102C2000BDF820602946304600F0B8F8431C26D194
:102C30000C233360304600F064FBE4E70B685B1B59
:102C40001AD40B2B0FD90B60CD50CC18304600F0A6
:102C500058FB04F10B00231D20F00700C31A1BD002
:102C60005A42E25070BD8C420DBF63684B6863608E
:102C7000136018BF0C46E9E70C464968CAE7C41C54
:102C800024F00304A04205D0211A304600F086F853
:102C90000130CDD02560D9E770BD00BFB00700205E
:102CA000B40700200FB40A4B13B51C6824B1A36904
:102CB00013B92046FFF76CFE05AB049AA168019397
:102CC000204600F099FC02B0BDE8104004B0704707
:102CD0002C00002070B50E46054618B183690BB96B
:102CE000FFF756FEAB69AC6813B92846FFF750FEF4
:102CF000234B9C4217D16C68A3891B071DD5236900
:102D0000DBB1013EA36816F8011F013BA360E9B9DE
:102D1000002B2EDA22460A21284600F075F90130F0
:102D200011D00A2070BD174B9C4201D1AC68E3E77B
:102D3000154B9C4208BFEC68DEE72146284600F0B0
:102D4000C7F90028DDD04FF0FF3070BD002B04DA4A
:102D5000A269934206DB0A2904D023685A1C226028
:102D60001970CFE72246284600F04EF90130C9D14C
:102D7000E9E723680A205A1C2260187070BD00BF62
:102D80001050000830500008F04F0008024B014678
:102D90001868FFF79FBF00BF2C00002038B5064C15
:102DA000002305460846236001F05CFC431C02D169
:102DB000236803B12B6038BD502400200FB40A4BA8
:102DC00013B51C6824B1A36913B92046FFF7E0FDD1
:102DD00005AB049A61680193204601F00DF802B03A
:102DE000BDE8104004B070472C0000200EB400B5C0
:102DF0009CB04FF402711DABADF814100290069018
:102E00006FF000410A48049107914FF6FF7153F8A3
:102E1000042BADF816100068019302A900F0CEFA59
:102E2000029B00221A701CB05DF804EB03B07047DF
:102E30002C00002010B50C46B1F90E1001F05CF921
:102E40000028ABBF636DA3891B1823F48053ACBF6C
:102E50006365A38110BD2DE9F0411F468B89DB0519
:102E600005460C46164605D502230022B1F90E1080
:102E700000F0BEF9A389B4F90E1023F48053A381A6
:102E800032463B462846BDE8F04100F00FB910B588
:102E90000C46B1F90E1000F0ABF9431CA38915BF25
:102EA000606523F4805343F48053A38118BFA3814A
:102EB00010BDB1F90E1000F079B970B5044602B931
:102EC00070BD234611F8015B03F8015B561E1DB966
:102ED0001444A34203D170BD1C463246EFE703F809
:102EE000015BF6E72DE9F84F8046894692461F467A
:102EF0008B465D460A9815F8014B00F067F92044AF
:102F0000467816F008060BD12D2C0BD12C78012613
:102F10000BF1020567B1102F14D1302C0AD011E04B
:102F2000AB46E6E72B2C04BF2C780BF10205F1E74A
:102F3000302C27D12B7803F0DF03582B4BD16C7842
:102F400010270235002E0CBF6FF000414FF00041FA
:102F50000022B1FBF7FE104607FB1E1CA4F1300354
:102F6000092B11D81C46A7421DDD531C07D08645EE
:102F700016D301D1A44513DB00FB0740012215F84D
:102F8000014BEBE70A27DDE7A4F14103192B01D838
:102F9000373CE8E7A4F16103192B04D8573CE2E77A
:102FA0004FF0FF32EBE7531C08D12223C8F8003062
:102FB0000846BAF1000F07D1BDE8F88F06B14042CC
:102FC000BAF1000F0CD022B1013DCAF80050BDE8A3
:102FD000F88F4D46F9E73024002FB3D10827B1E729
:102FE000BDE8F88F37B5064C064D2468246A002CDE
:102FF00008BF2C460094FFF775FF03B030BD00BF3B
:103000002C00002090000020F8B50E46144605461E
:1030100018B183690BB9FFF7BBFC214B9C422AD145
:103020006C68A369A360A3891A072ED5236963B3CB
:1030300023692068C01A6369F6B29842374604DBF8
:1030400021462846FFF728FC28BBA368013BA36064
:1030500023685A1C22601E7063690130984204D0B4
:10306000A389DB0719D50A2E17D121462846FFF779
:1030700013FC90B10FE00B4B9C4201D1AC68D0E740
:10308000094B9C4208BFEC68CBE72146284600F07C
:103090001FF80028CCD04FF0FF373846F8BD00BFEE
:1030A0001050000830500008F04F000838B5074CA9
:1030B000054608461146002222601A4601F0E0FA51
:1030C000431C02D1236803B12B6038BD502400207B
:1030D000324B70B51D6806460C4625B1AB6913B975
:1030E0002846FFF755FC2E4B9C420FD16C68B4F973
:1030F0000C309AB215072CD4D00611D409223260B4
:1031000043F04003A3814FF0FF3070BD254B9C423C
:1031100001D1AC68EBE7244B9C4208BFEC68E6E7C2
:10312000510712D5616B41B104F14403994202D0B9
:103130003046FFF70BFD00236363A38923F02403CC
:10314000A3810023636023692360A38943F00803FC
:10315000A38123694BB9A38903F42073B3F5007FDE
:1031600003D02146304600F079F8A28912F001031D
:103170000CD00023A36063695B42A361236953B948
:10318000B4F90C3013F08000BAD170BD920758BF6B
:103190006369A360F2E70020F7E700BF2C0000207E
:1031A0001050000830500008F04F000838B5064CA9
:1031B000002305460846236001F02CFA431C02D187
:1031C000236803B12B6038BD50240020D0F8EC00F8
:1031D00070470000044B054A1B681B6A002B08BFA0
:1031E0001346D3F8EC0070472C000020900000201C
:1031F00038B5074C054608461146002222601A469B
:1032000001F020FA431C02D1236803B12B6038BDC2
:103210005024002070B50E46B1F90E10002990B070
:1032200014461D4607DA00232B60B3891A0610D412
:103230004FF480630EE001AA01F080F90028F2DB70
:10324000029A02F47042A2F500535A425A412A608F
:10325000EEE740230020236010B070BD8B8973B56A
:103260009D0706460C4607D504F1470323602361FA
:103270000123636102B070BD01AB6A46FFF7CAFF6C
:10328000009905463046FFF7AFFC48B9B4F90C3059
:103290009A05EFD423F0030343F00203A381E3E78D
:1032A0000D4BB362A389206043F08003A381009B90
:1032B0006361019B20615BB1B4F90E10304601F0EF
:1032C0004FF928B1A38923F0030343F00103A3813D
:1032D000A3891D43A581CDE71129000882B001B95A
:1032E00001A942B14BB113780B601278101C18BFC2
:1032F000012002B070471046FBE76FF00100F8E7CD
:10330000704770472DE9F0478E689E4282460C4612
:103310009146984635D88A8912F4906F31D0256845
:1033200009696F1A6569022305EB450595FBF3F5FD
:1033300008F101033B449D4238BF1D46530531D57A
:103340002946FFF751FC064650B90C23CAF8003055
:10335000A38943F04003A3814FF0FF30BDE8F0871D
:103360003A462169FFF7DEFBA38923F4906343F01B
:103370008003A381266165613E44ED1B2660A56044
:103380004646464528BF464632464946206801F033
:10339000F7F8A3689B1BA36023681E4426600020E7
:1033A000BDE8F0872A4601F005F906460028E1D17C
:1033B00021695046FFF7CAFBC7E700002DE9F04F2F
:1033C0009DB0804603938B891C060D4616460FD58B
:1033D0000B696BB94021FFF707FC2860286128B909
:1033E0000C23C8F800304FF0FF30C5E040236B617C
:1033F0000023099320238DF8293030238DF82A30BB
:103400004FF0010B37463C4614F8013B002B3CD1F2
:10341000B7EB060A0BD05346324629464046FFF723
:1034200071FF013000F0A380099B534409933B785E
:10343000002B00F09C8000234FF0FF320493079391
:10344000059206938DF853301A930522217850483F
:10345000FCF7E6FE671C049BD8B9D90644BF2022BE
:103460008DF853201A0744BF2B228DF85320227861
:103470002A2A16D0079A00210A20274601343B78D1
:10348000303B092B51D9C9B111E0252BC0D02746BB
:10349000B9E73F4A801A0BFA00F0184304903C4603
:1034A000D3E7039A111D12680391002A01DB0792EA
:1034B00004E0524243F00203079204933B782E2B20
:1034C0000ED17B782A2B07F1010132D1039B1A1D03
:1034D0001B680392002BB8BF4FF0FF3302370593F0
:1034E0002C4C397803222046FCF79AFE38B1402351
:1034F000001B03FA00F0049B03430493013739785F
:1035000025488DF8281006227E1CFCF789FE00282D
:1035100035D0224BFBB9039B073323F00703083355
:103520000393099B4B4409936CE700FB0232012192
:10353000A3E70023059318460A240F4601313A7881
:10354000303A092A03D9002BCAD00590C8E704FBFA
:1035500000200123F1E703AB00932A46104B04A996
:103560004046AFF30080B0F1FF3F8146D9D1AB892F
:103570005B063FF538AF09981DB0BDE8F08F03AB8F
:1035800000932A46064B04A9404600F0C1F9EAE739
:103590005E500008645000086850000800000000F9
:1035A000053300089368013B002B10B4936009DADF
:1035B0009469A34202DBCBB20A2B03D15DF8044B22
:1035C000FFF722BD1368581C10601970C8B25DF86F
:1035D000044B7047F8B506460F461446D518AC4262
:1035E00001D1002007E03A4614F8011B3046FFF7EE
:1035F000D9FF431CF3D1F8BD2DE9F04F9DB00C4627
:1036000017460393064618B183690BB9FFF7C0F953
:103610007C4B9C4257D17468A38918075DD52369F8
:10362000002B5AD00023099320238DF82930302312
:103630008DF82A304FF0010BB846454615F8013B8E
:10364000002B55D1B8EB070A0BD053463A4621461A
:103650003046FFF7BFFF013000F0C480099B5344A0
:10366000099398F80030002B00F0BC8000234FF045
:10367000FF3204930793059206938DF853301A9303
:10368000052229786048FCF7CBFD05F10108049B71
:10369000002831D1D90644BF20228DF853201A07C3
:1036A00044BF2B228DF853202A782A2A2CD0079A3F
:1036B00000210A20A846013598F80030303B092B3C
:1036C0006DD971B326E0514B9C4201D1B468A3E798
:1036D0004F4B9C4208BFF4689EE721463046FFF7F7
:1036E000F7FC00289ED04FF0FF301DB0BDE8F08FF2
:1036F000252BA7D0A846A0E7434A801A0BFA00F072
:10370000184304904546BBE7039A111D12680391C4
:10371000002A01DB079204E0524243F002030792C1
:10372000049398F800302E2B10D198F801302A2BF2
:1037300008F1010137D1039B1A1D1B680392002B6E
:10374000B8BF4FF0FF3308F102080593314D98F8E8
:10375000001003222846FCF763FD40B14023401BC4
:1037600003FA00F0049B0343049308F1010898F85E
:10377000001029488DF82810062208F10107FCF7EF
:103780004FFD002834D0254B03BB039B073323F0A8
:10379000070308330393099B4B4409934CE700FB51
:1037A0000232012186E70023059318460A25884640
:1037B000013198F80020303A092A03D9002BC5D0EE
:1037C0000590C3E705FB00200123F0E703AB00935E
:1037D0002246134B04A93046AFF30080B0F1FF3FFF
:1037E0008146D8D1A3895B063FF57DAF09987CE778
:1037F00003AB009322460A4B04A9304600F088F838
:10380000ECE700BF105000085E5000083050000880
:10381000F04F0008645000086850000800000000E5
:10382000D53500082DE9F04791461F468A680B6997
:10383000DDF820809342B8BF1346C9F8003091F8F4
:10384000432006460C4612B10133C9F80030236804
:10385000990642BFD9F800300233C9F80030256814
:1038600015F0060507D104F1190AE368D9F800201C
:103870009B1A9D4229DB94F843302268003318BF1D
:10388000012392062ED404F1430239463046C04744
:10389000013021D02368E568D9F8002003F0060341
:1038A000042B08BFAD1AA36822690CBF25EAE57591
:1038B00000259342C4BF9B1AED184FF000091A343B
:1038C0004D451BD10020BDE8F08701235246394603
:1038D0003046C047013003D14FF0FF30BDE8F087DC
:1038E0000135C2E7E1185A1C302081F84300224418
:1038F00094F8451082F843100233C4E701232246AE
:1039000039463046C0470130E6D009F10109D7E712
:103910002DE9F04317460A7E85B06E2A9846064682
:103920000C460C9B01F1430E00F0BC801AD8632AB0
:103930002ED00AD8002A00F0C880582A00F08A80C9
:1039400004F1420584F842202AE0642A01D0692A61
:10395000F6D121681A6811F0800F23D0111D19606B
:10396000136827E0732A00F0B48008D86F2A2AD0A1
:10397000702AE5D10A6842F020020A6003E0752A45
:1039800021D0782ADCD1782284F845206E4964E081
:103990001A6801F14205111D1960136884F842305C
:1039A0000123A3E011F0400F02F104011960D7D008
:1039B000B2F90030002B03DA2D225B4284F8432059
:1039C00062490A2217E02068196810F0800F03D0BE
:1039D000081D18600B6806E010F0400F01F10400AC
:1039E0001860F7D00B8859496F2A14BF0A220822A1
:1039F000002084F843006568A560002DC0F29C801B
:103A0000206820F004002060002B3FD1002D40F002
:103A100095807546082A0BD12368DA0708D52369F3
:103A200062689A42DEBF302305F8013C05F1FF359C
:103A3000AEEB05032361CDF800803B4603AA214687
:103A40003046FFF7EFFE013055D14FF0FF3005B0A3
:103A5000BDE8F08381F845203C492268186812F0DF
:103A6000800F00F104051D6001D0036802E05506D7
:103A7000FBD50388D00744BF42F0200222601BB967
:103A8000226822F0200222601022B1E77546B3FBC3
:103A9000F2F002FB1033CB5C05F8013D0346002831
:103AA000F5D1B7E708681A68496910F0800F04D0AB
:103AB000101D18601368196007E010F0400F02F144
:103AC000040018601368F6D019800023236175463E
:103AD000B1E71A68111D196015686268002128464F
:103AE000FCF79EFB08B1401B606063682361002304
:103AF00084F843309FE723692A4639463046C04759
:103B00000130A2D023689B0707D5002504F11909CD
:103B1000E368039A9B1A9D4205DBE068039B984289
:103B2000B8BF184693E701234A4639463046C04796
:103B300001308AD00135EBE7002BA7D10B7884F850
:103B4000423004F1420565E7805000086F500008DC
:103B50002DE9F04FADF5257D0DF10C080193002303
:103B600046934793A04BA293DFF884929F4BCDF8E6
:103B7000208106460C46A39392460A279AF8003005
:103B8000002B00F02F81FFF725FB9AF800B0584476
:103B9000437813F0080343D1BBF1250F0AF1010567
:103BA00040F09980459343939AF801302A2B03D132
:103BB000102343930AF102052978A1F13002092A62
:103BC000AA4605F1010541D903228948FCF728FBE3
:103BD00038B1A0EB090301209840439B1843439060
:103BE000AA469AF80030672B0AF101054AD8652BDE
:103BF00080F0B780472B2FD8452B80F0B280002B68
:103C000000F08280252B66D003234993449745E03A
:103C1000479901314791616801330139616023603F
:103C20006368002B0BDDFFF7D5FA23681978084489
:103C300041780D07ECD40AF10105AA469EE7A39B43
:103C40002146304698470028EDD0F4E7459B07FB16
:103C50000313303B4593AFE75B2B61D00CD8582B57
:103C6000D2D1439A42F400724392102244926F2BB5
:103C7000B4BF0323042310E0632B5CD0642BC3D1B7
:103C80004497F4E7702B42D01DD86E2B59D043D8FF
:103C9000692BB9D100234493032349936368002B14
:103CA00061DD439B59066FD5499B022B7CDC01AB40
:103CB000224643A9304600F0C7F8012800F0928060
:103CC0000228BAD11DE0752BDAD0782BC9D0732B1E
:103CD0009AD10223E1E76368002B0CDD23681A7890
:103CE00093457FD1013362682360479B013A0133DA
:103CF00062604793A1E7A39B21463046984700287E
:103D0000ECD04698002863D14FF0FF3066E0439A2C
:103D100042F020024392A4E7082344930423BCE723
:103D20002946404600F08EFA439B43F040034393FC
:103D300005460123B1E7439B43F04003439300232F
:103D4000ABE7439AD0063FF578AF12F0010F019A26
:103D5000479B02F104010191126814BF13801360A4
:103D60006BE7052399E7A39B214630469847002837
:103D700097D0C6E7479A013247926268013A002A13
:103D800062600ADD01332360FFF724FA23681A78A2
:103D9000104442781207EDD486E7A39B21463046B3
:103DA00098470028F0D0ACE7042B06DC01AB224694
:103DB00043A9304600F0ACF87FE70E4B002B3FF4F0
:103DC0003CAF01AB224643A93046AFF3008074E715
:103DD000A38913F0400F18BF4FF0FF300DF5257D7C
:103DE000BDE8F08F4698F9E73D44000831410008EE
:103DF00064500008000000002DE9F0410C46164612
:103E00001F46054618B183690BB9FEF7C1FD0B4B80
:103E10009C4208D16C683B46324621462846BDE8A4
:103E2000F041FFF795BE064B9C4201D1AC68F2E72A
:103E3000044B9C4208BFEC68EDE700BF105000083F
:103E400030500008F04F00082DE9F04115468A680F
:103E500080460C4632B98A69002A0CBF01224FF015
:103E6000FF328A602268D1065FBF1A68111D19608F
:103E700017680026A369DBB1012B07D12B686269A3
:103E80001B78D35CA3B9002E32D106E0022B07D0F9
:103E9000002E2DD1A369012B2AD10120BDE8F0818C
:103EA000FFF798F92B681B78184443781B07EFD469
:103EB0002368DA065EBF2B681B783B702A686B6844
:103EC00002F101022A60A26803F1FF3302F1FF321E
:103ED0006B6006F1010658BF0137A26042B1002BAA
:103EE000C8DCD4F880312946404698470028C1D024
:103EF000236813F0100305D1E2680132E260A26981
:103F000002B13B7023691E4426610020BDE8F081A8
:103F10002DE9F04F9A46744B0C468346164693E8BB
:103F2000070087B003ABA76883E807006F4BA16960
:103F30006F4A032918BF1A467B1EB3F5AE7F84BFB4
:103F400040F25D13A3602368009243F4506388BF7E
:103F50006FF4AE7504F11C0923608CBF7F19002734
:103F60004B464FF000080193316803AB022253F82F
:103F700028000978FCF754F9019B28B3B8F1010F28
:103F800056D162682AB908226260226842F400723F
:103F90002260226822F4A0622260A268511EA16001
:103FA00092B13268511C316012781A705D1C7368CE
:103FB000013B002B736006DCD4F880313146584653
:103FC0009847002876D12B4608F10108B8F1030F75
:103FD000C9D162680AB90A226260626845496069AB
:103FE0000193891A00F02EF9019B4FF000081D463D
:103FF000A368002B38D0316860690A78805C00289B
:1040000032D0302A226821D110051FD508F10108CD
:1040100017B10133013FA3607368013B002B73604C
:104020001BDD336801333360A368013BA360DFE726
:10403000B8F1020FB1D1226802F4C061B1F5007F7E
:10404000C2D11021616042F48072A5E722F41062AF
:1040500022600B782B700135DEE7D4F880313146D1
:10406000584698470028DFD02368D9050CD54D4520
:1040700008D915F8011CD4F87C31324658469847C7
:104080006F1E3D464D452CD0226812F010021ED105
:104090002A706368009E49465846B0472268DAF89D
:1040A000003012F0200F08D01A1DCAF800201B683B
:1040B000186009E04FF00008D6E7D207F4D51A1DC2
:1040C000CAF800201B681880E3680133E360A5EBA1
:1040D0000905A844256945442561002007B0BDE8CD
:1040E000F08F0120FAE700BFA8460008A1430008AE
:1040F000E52F0008A150000838B5074C05460846D2
:104100001146002222601A4600F0A4FA431C02D194
:10411000236803B12B6038BD50240020838903F04D
:104120000903092B01D1FEF7E1BB00207047000015
:10413000F8B50C46054618B183690BB9FEF728FCA3
:104140003B4B9C420AD16C68B4F90C20002363609D
:1041500093B29E060CD54FF0FF30F8BD354B9C4214
:1041600001D1AC68F0E7344B9C4208BFEC68EBE748
:10417000580748D4D90605D4092342F040022B60E1
:10418000A281E8E71A070BD521462846FEF784FBF3
:104190000028E0D1A389A06023F00803A381A061D7
:1041A000A38943F00403A38123691BB92146284650
:1041B000FFF754F8B4F90C70BEB2B3070FD0012367
:1041C000A3811E4B1E49186806F00906FEF74CFC39
:1041D000092EA78103D121462846FEF7D5FA226988
:1041E0002260666A6369216A2846B04700286060D9
:1041F0001CDCA38917BF002243F0200343F04003D7
:104200006260A381A7E7616B0029CDD004F144036C
:10421000994202D02846FEF799FC236C6360002087
:104220006063002BC0D0E36B2360F8BD0020F8BDB5
:104230001050000830500008F04F0008505000089F
:104240001D41000870B50B785E2B13BF4A1C8A1CF9
:104250004B78002108BF0121441E00F1FF0504F83E
:10426000011FA542FBD113B9013A104670BD81F080
:104270000104C45411460D782D2D01F1010206D020
:104280005D2DF2D00DB90A46EFE72B46F1E74E78E7
:104290005D2EFAD0B342F8DC023101339E42C454A1
:1042A000FBDCE8E72DE9F0478046894692461E464A
:1042B0000F463D46089815F8014BFEF787FF20444E
:1042C000437813F008030AD12D2C0AD12C7801234E
:1042D000BD1C5EB1102E13D1302C09D010E02F463A
:1042E000E7E72B2C04BF2C78BD1CF2E7302C25D13E
:1042F0002A7802F0DF02582A4AD16C78102602355B
:104300004FF0FF310027B1FBF6F106FB01FE6FEA2B
:104310000E0E3846A4F13002092A11D81446A642DE
:104320001DDD002F18DB814216D301D1A64513DB1A
:1043300000FB0640012715F8014BEBE70A26DFE7F3
:10434000A4F14102192A01D8373CE8E7A4F161023F
:10435000192A04D8573CE2E74FF0FF37EBE7002F6C
:1043600009DA2223C8F800304FF0FF30BAF1000F0D
:1043700007D1BDE8F08703B14042BAF1000F0CD07D
:1043800027B1013DCAF80050BDE8F0874D46F9E776
:104390003024002EB4D10826B2E7BDE8F087000033
:1043A00037B5064C064D2468246A002C08BF2C46FD
:1043B0000094FFF777FF03B030BD00BF2C00002052
:1043C000900000202DE9F0410C46496B04F14403B4
:1043D00099421ED14FF48061FEF706FC18B94FF0E8
:1043E000FF30BDE8F0814FF48063A36394F846305A
:1043F000606380F8FF3394F8453080F8FE3394F81A
:10440000443080F8FD3300F2FD3020600020BDE82C
:10441000F081A66B77003A4600F0CCF805460028FC
:10442000DDD000EB0608014632464046FEF77AFB37
:10443000C4F800806563A763E8E700004B1C70B513
:1044400006460D46144603D14FF0FF35284670BD91
:1044500018B183690BB9FEF79BFA2E4B9C422CD105
:104460007468B4F90C3023F02003A3819BB2590780
:1044700013D4DA06E8D51B070BD521463046FEF7E4
:104480000BFA0028E0D1A389A06023F00803A381E0
:10449000A061A38943F00403A381636B6268EDB25A
:1044A000E3B1A36B9A4212DA23685A1E226003F822
:1044B000015C636801336360C8E7174B9C4201D11C
:1044C000B468CEE7154B9C4208BFF468C9E72146A3
:1044D0003046FFF777FF0028E6D0B5E7216923686B
:1044E00051B1994208D213F8011C8D4204D1013B0D
:1044F000013223606260A9E7E36304F1440363636C
:104500000323A3632346226403F8465F2360012349
:10451000D1E700BF1050000830500008F04F0008ED
:1045200049B1FF2A85BF8A2303600A704FF0FF302C
:1045300098BF0120704708467047000038B5074C07
:104540000023054608461146236000F06BF8431C23
:1045500002D1236803B12B6038BD00BF5024002076
:1045600038B5064C002305460846236000F062F883
:10457000431C02D1236803B12B6038BD50240020B6
:10458000884210B501EB020303D8421E99420CD1B8
:1045900010BD9842F9D28118D21AD34200D110BD71
:1045A00013F8014D01F8014DF7E711F8014B02F83E
:1045B000014FEBE7F8B5074614460E4621B9114600
:1045C000BDE8F840FEF710BB22B9FEF7BFFA25465A
:1045D0002846F8BD00F014F884420FD92146384629
:1045E000FEF702FB05460028F2D031462246FEF7D0
:1045F00099FA31463846FEF7A9FAE9E73546E7E782
:1046000051F8040C0028A0F10400BCBF0B58C018DE
:1046100070470000024B58221A604FF0FF3070477D
:1046200050240020024B58221A604FF0FF30704790
:1046300050240020024B58221A600020704700BF0F
:1046400050240020024B58221A604FF0FF30704770
:1046500050240020024B58221A604FF0FF30704760
:1046600050240020044A05491368002B08BF0B465C
:104670001844106018467047B807002058240020DE
:10468000024B58221A604FF0FF3070475024002030
:10469000F8B500BFF8BC08BC9E467047F8B500BF2F
:0846A000F8BC08BC9E467047FF
:1046A800A3500008A6500008A95000080D0A45723A
:1046B800726F7220696E2041502053657474696E60
:1046C800677300000D0A0A496E697469616C697A3A
:1046D800696E67207468652077696669206D6F6404
:1046E800756C652E2E2E00004572726F7220696EF1
:1046F80020436F6E666967000D0A203E3E636F6E49
:104708006E656374696E6720746F2041502E2E2E7B
:104718000D0A00000D0A203E3E636F6E6E656374DD
:1047280065642E2E2E0D0A000D0A3E3E5769466915
:104738005F485454504745540D0A00002F6765746C
:10474800000000000D0A4854545020474554204F9B
:104758004B0D0A000D0A4854545020474554204533
:1047680072726F720D0A00000D0A3E3E506F73742C
:10477800696E67206461746120746F20706F737450
:10478800746573747365727665722E636F6D2E2E01
:104798000D0A00002F706F73742E7068702F6E6191
:1047A8006D653D64656D6F26656D61696C3D6D79FC
:1047B8006D61696C267375626A6563743D737562B1
:1047C8006A26626F64793D6D657373616765000081
:1047D8000D0A4854545020504F5354204F4B0D0A43
:1047E800000000000D0A4854545020504F535420E4
:1047F8004572726F720D0A006E765F6D6F64656C3C
:104808000000000069705F697061646472000000F4
:10481800706F7374746573747365727665722E63E2
:104828006F6D00006874747062696E2E6F72670035
:1048380053544D64656D6F505744000053544D00F8
:104848000D0A0A2F2A2A2A2A2A2A2A2A2A2A2A2A18
:104858002A2A2A2A2A2A2A2A2A2A2A2A2A2A2A2AB0
:104868002A2A2A2A2A2A2A2A2A2A2A2A2A2A2A2AA0
:104878002A2A2A2A2A2A2A2A2A2A2A2A0A0000002E
:104888000D202A2020202020202020202020202029
:104898002020202020202020202020202020202010
:1048A8002020202020202020202020202020202000
:1048B8002020202020202020202A0A000D202A2025
:1048C800582D435542452D57494649312045787062
:1048D800616E73696F6E20536F66747761726520BD
:1048E80076332E312E312020202020202020202019
:1048F80020202020202A0A000D202A20582D4E553D
:10490800434C454F2D494457307878312057692D0D
:104918004669204D696E692D415020436F6E666966
:104928006775726174696F6E2E2020202020202008
:10493800202A0A000D202A20485454502D5265710F
:1049480075657374204578616D706C652020202032
:10495800202020202020202020202020202020204F
:10496800202020202020202020202020202A0A006B
:104978000D202A2A2A2A2A2A2A2A2A2A2A2A2A2AB6
:104988002A2A2A2A2A2A2A2A2A2A2A2A2A2A2A2A7F
:104998002A2A2A2A2A2A2A2A2A2A2A2A2A2A2A2A6F
:1049A8002A2A2A2A2A2A2A2A2A2F0A000D0A446F82
:1049B80020796F752077616E7420746F2073657429
:1049C800757020535349443F28792F6E293A0000C7
:1049D80025730000456E7465722074686520535312
:1049E80049443A004578636565646564206E756D71
:1049F800626572206F6620737369642063686172F0
:104A0800616374657273207065726D69747465642E
:104A180000000000456E746572207468652070613E
:104A28007373776F72643A0045786365656465648B
:104A3800206E756D626572206F662070736B2063DF
:104A4800686172616374657273207065726D6974F0
:104A580074656400456E7465722074686520656EBF
:104A68006372797074696F6E206D6F646528303A6F
:104A78004F70656E2C20313A5745502C20323A57EA
:104A88005041322F575041322D506572736F6E610D
:104A98006C293A000D0A57726F6E6720456E747262
:104AA800792E2050726976204D6F646520697320D5
:104AB8006E6F7420636F6D70617469626C650A0053
:104AC8000D0A0A4D6F64756C652077696C6C2063FC
:104AD8006F6E6E65637420776974682064656661BB
:104AE800756C742073657474696E67732E000000AA
:104AF8000D0A2F2A2A2A2A2A2A2A2A2A2A2A2A2A46
:104B08002A2A2A2A2A2A2A2A2A2A2A2A2A2A2A2AFD
:104B18002A2A2A2A2A2A2A2A2A2A2A2A2A2A2A2AED
:104B28002A2A2A2A2A2A2A2A2A2A2A2A2A2A2A2ADD
:104B38000D0A00000D0A202A20436F6E666967750A
:104B4800726174696F6E20436F6D706C6574652057
:104B5800202020202020202020202020202020204D
:104B6800202020202020202020202020202020203D
:104B7800202020200D0A00000D0A202A20506C65F4
:104B8800617365206D616B652073757265206120A6
:104B98005365727665722069732072756E6E696EE0
:104BA8006720617420676976656E20686F73746E1C
:104BB800616D6520202020200D0A00000D0A202AA2
:104BC8002A2A2A2A2A2A2A2A2A2A2A2A2A2A2A2A3D
:104BD8002A2A2A2A2A2A2A2A2A2A2A2A2A2A2A2A2D
:104BE8002A2A2A2A2A2A2A2A2A2A2A2A2A2A2A2A1D
:104BF8002A2A2A2A2A2A2A2A2A2A2A2A0D0A00009E
:104C08000000000000000000010203040607080974
:104C180000000000010203043139322E3136382EEB
:104C2800322E3130300000003139322E3136382EF4
:104C3800322E310069705F677700000069705F6429
:104C48006E7300003235352E3235352E3235352E1D
:104C58003000000069705F6E65746D61736B0000F1
:104C680069705F7573655F6468637000776966690A
:104C78005F707269765F6D6F646500007769666959
:104C88005F6D6F6465000000776966695F636861DE
:104C98006E6E656C6E756D0041542B532E535453D4
:104CA8003D25730D000000000D0A0A4275696C6409
:104CB80020436F6E66696775726174696F6E3A003A
:104CC8000D0A4E75636C656F3A204E55434C454F3F
:104CD8002D4634303152450D00000000582D4E75D8
:104CE800636C656F3A20582D4E55434C454F2D49FE
:104CF800445730314D310D00496E746572666163F9
:104D0800653A20554152540D00000000636F6E73E0
:104D18006F6C65315F737065656400004154265798
:104D28000D000000636F6E736F6C65315F687766A6
:104D380063000000776966695F68745F6D6F64651A
:104D480000000000307830303030334643460000F1
:104D5800776966695F6F70725F726174655F6D61B4
:104D6800736B0000307830303346464643460000C7
:104D7800776966695F706F77657273617665000041
:104D8800776966695F6F7065726174696F6E616C6F
:104D98005F6D6F6465000000776966695F626561D1
:104DA800636F6E5F77616B65757000007769666920
:104DB8005F6C697374656E5F696E74657276616C39
:104DC80000000000776966695F74785F706F7765C7
:104DD8007200000069705F686F73746E616D6500C2
:104DE80069705F6170646F6D61696E6E616D650099
:104DF80069705F6170726564697265637400000050
:104E080069705F687474705F6765745F72656376F4
:104E18005F74696D656F75740000000069705F6488
:104E28006863705F74696D656F757400776966692A
:104E38005F7265675F636F756E747279000000005A
:104E480041542B532E48545450443D25640D0000C2
:104E58000D0A456E64206F6620496E697469616C3D
:104E6800697A6174696F6E2E2E0D000041542B53C0
:104E78002E544C5343455254323D636C65616E2C3D
:104E8800616C6C0D0000000041542B532E534554A7
:104E980054494D453D256C750D00000041542B5378
:104EA8002E544C53434552543D665F63612C256430
:104EB8000D25730041542B532E544C53444F4D41F0
:104EC800494E3D665F646F6D61696E2C25730D00F8
:104ED80041542B532E544C53434552543D665F6303
:104EE8006572742C25640D257300000041542B5302
:104EF8002E544C53434552543D665F6B65792C25BF
:104F0800640D257300000000736C6565705F656E45
:104F180061626C65640000007374616E6462795F3D
:104F2800656E61626C6564007374616E6462795F5A
:104F380074696D650000000041542B4346554E3D91
:104F480025640D0041542B532E474346473D257396
:104F58000D000000776966695F6D6F6465203D200C
:104F680000000000415426460D00000041542B5318
:104F78002E534346473D25732C25730D0000000032
:104F880041542B532E534346473D25732C25640D1E
:104F98000000000041542B532E5353494454585495
:104FA8003D25730D0000000041542B532E534346FA
:104FB800473D776966695F7770615F70736B5F748F
:104FC8006578742C25730D004552524F5220696E36
:104FD8002055534152545F5472616E736D69745F0A
:104FE80041545F436D642100000000000000000090
:104FF80000000000000000000000000000000000A9
:105008000000000000000000000000000000000098
:105018000000000000000000000000000000000088
:105028000000000000000000000000000000000078
:105038000000000000000000000000000000000068
:105048000000000000000000300000204300504F26
:10505800534958002E00232D302B2000686C4C003B
:105068006566674546470030313233343536373860
:1050780039414243444546003031323334353637BE
:10508800383961626364656600412D46612D663872
:105098003930313233343536375D002B2D0030301E
:1050A80000785800002020202020202020202828B8
:1050B80028282820202020202020202020202020D0
:1050C8002020202020881010101010101010101010
:1050D8001010101010040404040404040404041040
:1050E80010101010101041414141414101010101CE
:1050F8000101010101010101010101010101010198
:1051080010101010101042424242424202020202A3
:105118000202020202020202020202020202020267
:105128001010101020000000000000000000000017
:105138000000000000000000000000000000000067
:105148000000000000000000000000000000000057
:105158000000000000000000000000000000000047
:105168000000000000000000000000000000000037
:105178000000000000000000000000000000000027
:105188000000000000000000000000000000000017
:105198000000000000000000000000000000000007
:0851A8000000000000000000FF
:0851B00040B1FF7F0100000087
:0451B800C501000825
:0451BC00A101000845
:1051C00000C20100004800082C480008020000004E
:1051D0001848000838480008444800080024F40033
:1051E000010000001000000000000240300000201C
:1051F000000000001050000830500008F04F000878
:10520000000000000000000000000000000000009E
:10521000000000000000000000000000000000008E
:10522000000000000000000000000000000000007E
:10523000000000000000000000000000000000006E
:10524000000000000000000000000000000000005E
:10525000430000000000000000000000000000000B
:10526000000000000000000000000000000000003E
:1052700043000000000000000000000000000000EB
:10528000000000000000000000000000000000001E
:1052900043000000000000000000000000000000CB
:1052A00000000000000000000000000000000000FE
:1052B00043000000000000000000000000000000AB
:1052C00000000000000000000000000000000000DE
:1052D000430000000000000000000000000000008B
:1052E00000000000000000000000000000000000BE
:1052F000430000000000000000000000000000006B
:10530000000000000000000000000000000000009D
:10531000430000000000000000000000000000004A
:10532000000000000000000000000000000000007D
:1053300021450008DD32000800000000AC500008E4
:105340005C50000863500008635000086350000878
:105350006350000863500008635000086350000861
:105360006350000863500008FFFFFFFFFFFFFFFFCF
:10537000FFFFFFFFFFFF00000100415343494900C9
:10538000000000000000000000000000000000001D
:1053900000000000000000000000415343494900A4
:1053A00000000000000000000000000000000000FD
:0C53B000000000000000000000000000F1
:040000050800273593
:00000001FF
